{
	"dataTypesValor.sol": {
		"dataTypeValor": {
			"abi": [
				{
					"inputs": [],
					"name": "addressAccount",
					"outputs": [
						{
							"internalType": "address",
							"name": "",
							"type": "address"
						}
					],
					"stateMutability": "view",
					"type": "function"
				},
				{
					"inputs": [],
					"name": "addressExternally",
					"outputs": [
						{
							"internalType": "address",
							"name": "",
							"type": "address"
						}
					],
					"stateMutability": "view",
					"type": "function"
				},
				{
					"inputs": [],
					"name": "balanceAddressAccount",
					"outputs": [
						{
							"internalType": "uint256",
							"name": "",
							"type": "uint256"
						}
					],
					"stateMutability": "view",
					"type": "function"
				},
				{
					"inputs": [],
					"name": "balanceAddressExternally",
					"outputs": [
						{
							"internalType": "uint256",
							"name": "",
							"type": "uint256"
						}
					],
					"stateMutability": "view",
					"type": "function"
				},
				{
					"inputs": [],
					"name": "getEdad",
					"outputs": [
						{
							"internalType": "uint8",
							"name": "",
							"type": "uint8"
						}
					],
					"stateMutability": "view",
					"type": "function"
				},
				{
					"inputs": [],
					"name": "lenghtData1",
					"outputs": [
						{
							"internalType": "uint256",
							"name": "",
							"type": "uint256"
						}
					],
					"stateMutability": "view",
					"type": "function"
				},
				{
					"inputs": [],
					"name": "lenghtData2",
					"outputs": [
						{
							"internalType": "uint256",
							"name": "",
							"type": "uint256"
						}
					],
					"stateMutability": "view",
					"type": "function"
				},
				{
					"inputs": [],
					"name": "p1",
					"outputs": [
						{
							"internalType": "bool",
							"name": "vacunado",
							"type": "bool"
						},
						{
							"internalType": "uint8",
							"name": "edad",
							"type": "uint8"
						},
						{
							"internalType": "bytes32",
							"name": "nombre",
							"type": "bytes32"
						}
					],
					"stateMutability": "view",
					"type": "function"
				},
				{
					"inputs": [],
					"name": "p2",
					"outputs": [
						{
							"internalType": "bool",
							"name": "vacunado",
							"type": "bool"
						},
						{
							"internalType": "uint8",
							"name": "edad",
							"type": "uint8"
						},
						{
							"internalType": "bytes32",
							"name": "nombre",
							"type": "bytes32"
						}
					],
					"stateMutability": "view",
					"type": "function"
				}
			],
			"devdoc": {
				"kind": "dev",
				"methods": {},
				"version": 1
			},
			"evm": {
				"assembly": "    /* \"dataTypesValor.sol\":66:1963  contract dataTypeValor{\r... */\n  mstore(0x40, 0x80)\n    /* \"dataTypesValor.sol\":134:138  true */\n  0x01\n    /* \"dataTypesValor.sol\":113:138  bool flagVerdadero = true */\n  0x00\n  dup1\n  0x0100\n  exp\n  dup2\n  sload\n  dup2\n  0xff\n  mul\n  not\n  and\n  swap1\n  dup4\n  iszero\n  iszero\n  mul\n  or\n  swap1\n  sstore\n  pop\n    /* \"dataTypesValor.sol\":162:167  false */\n  0x00\n    /* \"dataTypesValor.sol\":145:167  bool flagFalse = false */\n  dup1\n  exp(0x0100, 0x01)\n  dup2\n  sload\n  dup2\n  0xff\n  mul\n  not\n  and\n  swap1\n  dup4\n  iszero\n  iszero\n  mul\n  or\n  swap1\n  sstore\n  pop\n    /* \"dataTypesValor.sol\":290:292  -8 */\n  0xfffffffffffffffffffffffffffffffffffffffffffffffffffffffffffffff8\n    /* \"dataTypesValor.sol\":276:292  int number1 = -8 */\n  0x01\n  sstore\n    /* \"dataTypesValor.sol\":334:336  -8 */\n  0xfffffffffffffffffffffffffffffffffffffffffffffffffffffffffffffff8\n    /* \"dataTypesValor.sol\":319:336  int8 number2 = -8 */\n  0x02\n  exp(0x0100, 0x00)\n  dup2\n  sload\n  dup2\n  0xff\n  mul\n  not\n  and\n  swap1\n  dup4\n  0x00\n  signextend\n  0xff\n  and\n  mul\n  or\n  swap1\n  sstore\n  pop\n    /* \"dataTypesValor.sol\":386:388  -8 */\n  0xfffffffffffffffffffffffffffffffffffffffffffffffffffffffffffffff8\n    /* \"dataTypesValor.sol\":370:388  int16 number3 = -8 */\n  0x02\n  exp(0x0100, 0x01)\n  dup2\n  sload\n  dup2\n  0xffff\n  mul\n  not\n  and\n  swap1\n  dup4\n  0x01\n  signextend\n  0xffff\n  and\n  mul\n  or\n  swap1\n  sstore\n  pop\n    /* \"dataTypesValor.sol\":463:464  8 */\n  0x08\n    /* \"dataTypesValor.sol\":448:464  uint number4 = 8 */\n  0x03\n  sstore\n    /* \"dataTypesValor.sol\":508:509  8 */\n  0x08\n    /* \"dataTypesValor.sol\":492:509  uint8 number5 = 8 */\n  0x04\n  exp(0x0100, 0x00)\n  dup2\n  sload\n  dup2\n  0xff\n  mul\n  not\n  and\n  swap1\n  dup4\n  0xff\n  and\n  mul\n  or\n  swap1\n  sstore\n  pop\n    /* \"dataTypesValor.sol\":555:556  8 */\n  0x08\n    /* \"dataTypesValor.sol\":538:556  uint32 number6 = 8 */\n  0x04\n  exp(0x0100, 0x01)\n  dup2\n  sload\n  dup2\n  0xffffffff\n  mul\n  not\n  and\n  swap1\n  dup4\n  0xffffffff\n  and\n  mul\n  or\n  swap1\n  sstore\n  pop\n    /* \"dataTypesValor.sol\":752:756  this */\n  address\n    /* \"dataTypesValor.sol\":712:757  address public addressAccount = address(this) */\n  0x04\n  exp(0x0100, 0x05)\n  dup2\n  sload\n  dup2\n  0xffffffffffffffffffffffffffffffffffffffff\n  mul\n  not\n  and\n  swap1\n  dup4\n  0xffffffffffffffffffffffffffffffffffffffff\n  and\n  mul\n  or\n  swap1\n  sstore\n  pop\n    /* \"dataTypesValor.sol\":897:907  msg.sender */\n  caller\n    /* \"dataTypesValor.sol\":862:907  address public addressExternally = msg.sender */\n  0x05\n  exp(0x0100, 0x00)\n  dup2\n  sload\n  dup2\n  0xffffffffffffffffffffffffffffffffffffffff\n  mul\n  not\n  and\n  swap1\n  dup4\n  0xffffffffffffffffffffffffffffffffffffffff\n  and\n  mul\n  or\n  swap1\n  sstore\n  pop\n    /* \"dataTypesValor.sol\":1030:1044  addressAccount */\n  0x04\n  0x05\n  swap1\n  sload\n  swap1\n  0x0100\n  exp\n  swap1\n  div\n  0xffffffffffffffffffffffffffffffffffffffff\n  and\n    /* \"dataTypesValor.sol\":1030:1052  addressAccount.balance */\n  0xffffffffffffffffffffffffffffffffffffffff\n  and\n  balance\n    /* \"dataTypesValor.sol\":994:1052  uint public balanceAddressAccount = addressAccount.balance */\n  0x06\n  sstore\n    /* \"dataTypesValor.sol\":1100:1117  addressExternally */\n  0x05\n  0x00\n  swap1\n  sload\n  swap1\n  0x0100\n  exp\n  swap1\n  div\n  0xffffffffffffffffffffffffffffffffffffffff\n  and\n    /* \"dataTypesValor.sol\":1100:1125  addressExternally.balance */\n  0xffffffffffffffffffffffffffffffffffffffff\n  and\n  balance\n    /* \"dataTypesValor.sol\":1061:1125  uint public balanceAddressExternally = addressExternally.balance */\n  0x07\n  sstore\n    /* \"dataTypesValor.sol\":1272:1290  bytes1 data =  \"9\" */\n  0x3900000000000000000000000000000000000000000000000000000000000000\n  0x08\n  exp(0x0100, 0x00)\n  dup2\n  sload\n  dup2\n  0xff\n  mul\n  not\n  and\n  swap1\n  dup4\n  0xf8\n  shr\n  mul\n  or\n  swap1\n  sstore\n  pop\n    /* \"dataTypesValor.sol\":1301:1320  bytes2 data2 = \"90\" */\n  0x3930000000000000000000000000000000000000000000000000000000000000\n  0x08\n  exp(0x0100, 0x01)\n  dup2\n  sload\n  dup2\n  0xffff\n  mul\n  not\n  and\n  swap1\n  dup4\n  0xf0\n  shr\n  mul\n  or\n  swap1\n  sstore\n  pop\n    /* \"dataTypesValor.sol\":1331:1360  bytes32 data3 = \"Hello World\" */\n  sstore(0x09, 0x48656c6c6f20576f726c64000000000000000000000000000000000000000000)\n    /* \"dataTypesValor.sol\":1451:1455  data */\n  0x08\n  0x00\n  swap1\n  sload\n  swap1\n  0x0100\n  exp\n  swap1\n  pop\n  pop\n    /* \"dataTypesValor.sol\":1451:1462  data.length */\n  0x01\n    /* \"dataTypesValor.sol\":1425:1462  uint public lenghtData1 = data.length */\n  0xff\n  and\n  0x0a\n  sstore\n    /* \"dataTypesValor.sol\":1499:1504  data2 */\n  0x08\n  0x01\n  swap1\n  sload\n  swap1\n  0x0100\n  exp\n  swap1\n  pop\n  pop\n    /* \"dataTypesValor.sol\":1499:1511  data2.length */\n  0x02\n    /* \"dataTypesValor.sol\":1473:1511  uint public lenghtData2 = data2.length */\n  0xff\n  and\n  0x0b\n  sstore\n    /* \"dataTypesValor.sol\":1732:1760  Persona (true, 39, \"Esther\") */\n  mload(0x40)\n  dup1\n  0x60\n  add\n  0x40\n  mstore\n  dup1\n    /* \"dataTypesValor.sol\":1741:1745  true */\n  0x01\n    /* \"dataTypesValor.sol\":1732:1760  Persona (true, 39, \"Esther\") */\n  iszero\n  iszero\n  dup2\n  mstore\n  0x20\n  add\n    /* \"dataTypesValor.sol\":1747:1749  39 */\n  0x27\n    /* \"dataTypesValor.sol\":1732:1760  Persona (true, 39, \"Esther\") */\n  0xff\n  and\n  dup2\n  mstore\n  0x20\n  add\n  0x4573746865720000000000000000000000000000000000000000000000000000\n  dup2\n  mstore\n  pop\n    /* \"dataTypesValor.sol\":1712:1760  Persona public p1 = Persona (true, 39, \"Esther\") */\n  0x0c\n  0x00\n  dup3\n  add\n  mload\n  dup2\n  0x00\n  add\n  exp(0x0100, 0x00)\n  dup2\n  sload\n  dup2\n  0xff\n  mul\n  not\n  and\n  swap1\n  dup4\n  iszero\n  iszero\n  mul\n  or\n  swap1\n  sstore\n  pop\n  0x20\n  dup3\n  add\n  mload\n  dup2\n  0x00\n  add\n  exp(0x0100, 0x01)\n  dup2\n  sload\n  dup2\n  0xff\n  mul\n  not\n  and\n  swap1\n  dup4\n  0xff\n  and\n  mul\n  or\n  swap1\n  sstore\n  pop\n  0x40\n  dup3\n  add\n  mload\n  dup2\n  0x01\n  add\n  sstore\n  pop\n  pop\n    /* \"dataTypesValor.sol\":1787:1868  Persona ({\r... */\n  mload(0x40)\n  dup1\n  0x60\n  add\n  0x40\n  mstore\n  dup1\n    /* \"dataTypesValor.sol\":1832:1837  false */\n  0x00\n    /* \"dataTypesValor.sol\":1787:1868  Persona ({\r... */\n  iszero\n  iszero\n  dup2\n  mstore\n  0x20\n  add\n    /* \"dataTypesValor.sol\":1811:1813  39 */\n  0x27\n    /* \"dataTypesValor.sol\":1787:1868  Persona ({\r... */\n  0xff\n  and\n  dup2\n  mstore\n  0x20\n  add\n  0x4a756c6961000000000000000000000000000000000000000000000000000000\n  dup2\n  mstore\n  pop\n    /* \"dataTypesValor.sol\":1767:1868  Persona public p2 = Persona ({\r... */\n  0x0e\n  0x00\n  dup3\n  add\n  mload\n  dup2\n  0x00\n  add\n  exp(0x0100, 0x00)\n  dup2\n  sload\n  dup2\n  0xff\n  mul\n  not\n  and\n  swap1\n  dup4\n  iszero\n  iszero\n  mul\n  or\n  swap1\n  sstore\n  pop\n  0x20\n  dup3\n  add\n  mload\n  dup2\n  0x00\n  add\n  exp(0x0100, 0x01)\n  dup2\n  sload\n  dup2\n  0xff\n  mul\n  not\n  and\n  swap1\n  dup4\n  0xff\n  and\n  mul\n  or\n  swap1\n  sstore\n  pop\n  0x40\n  dup3\n  add\n  mload\n  dup2\n  0x01\n  add\n  sstore\n  pop\n  pop\n    /* \"dataTypesValor.sol\":1900:1902  p1 */\n  0x0c\n    /* \"dataTypesValor.sol\":1900:1907  p1.edad */\n  0x00\n  add\n  0x01\n  swap1\n  sload\n  swap1\n  0x0100\n  exp\n  swap1\n  div\n  0xff\n  and\n    /* \"dataTypesValor.sol\":1877:1907  uint8 public getEdad = p1.edad */\n  0x10\n  exp(0x0100, 0x00)\n  dup2\n  sload\n  dup2\n  0xff\n  mul\n  not\n  and\n  swap1\n  dup4\n  0xff\n  and\n  mul\n  or\n  swap1\n  sstore\n  pop\n    /* \"dataTypesValor.sol\":66:1963  contract dataTypeValor{\r... */\n  callvalue\n  dup1\n  iszero\n  tag_1\n  jumpi\n  0x00\n  dup1\n  revert\ntag_1:\n  pop\n  dataSize(sub_0)\n  dup1\n  dataOffset(sub_0)\n  0x00\n  codecopy\n  0x00\n  return\nstop\n\nsub_0: assembly {\n        /* \"dataTypesValor.sol\":66:1963  contract dataTypeValor{\r... */\n      mstore(0x40, 0x80)\n      callvalue\n      dup1\n      iszero\n      tag_1\n      jumpi\n      0x00\n      dup1\n      revert\n    tag_1:\n      pop\n      jumpi(tag_2, lt(calldatasize, 0x04))\n      shr(0xe0, calldataload(0x00))\n      dup1\n      0x648b6450\n      gt\n      tag_12\n      jumpi\n      dup1\n      0x648b6450\n      eq\n      tag_7\n      jumpi\n      dup1\n      0x6c30c1c7\n      eq\n      tag_8\n      jumpi\n      dup1\n      0x81d01ed3\n      eq\n      tag_9\n      jumpi\n      dup1\n      0xb704ed74\n      eq\n      tag_10\n      jumpi\n      dup1\n      0xc2a2747b\n      eq\n      tag_11\n      jumpi\n      jump(tag_2)\n    tag_12:\n      dup1\n      0x1bc66815\n      eq\n      tag_3\n      jumpi\n      dup1\n      0x379937a0\n      eq\n      tag_4\n      jumpi\n      dup1\n      0x4de1a1b8\n      eq\n      tag_5\n      jumpi\n      dup1\n      0x5cfd4af5\n      eq\n      tag_6\n      jumpi\n    tag_2:\n      0x00\n      dup1\n      revert\n        /* \"dataTypesValor.sol\":1425:1462  uint public lenghtData1 = data.length */\n    tag_3:\n      tag_13\n      tag_14\n      jump\t// in\n    tag_13:\n      mload(0x40)\n      tag_15\n      swap2\n      swap1\n      tag_16\n      jump\t// in\n    tag_15:\n      mload(0x40)\n      dup1\n      swap2\n      sub\n      swap1\n      return\n        /* \"dataTypesValor.sol\":1473:1511  uint public lenghtData2 = data2.length */\n    tag_4:\n      tag_17\n      tag_18\n      jump\t// in\n    tag_17:\n      mload(0x40)\n      tag_19\n      swap2\n      swap1\n      tag_16\n      jump\t// in\n    tag_19:\n      mload(0x40)\n      dup1\n      swap2\n      sub\n      swap1\n      return\n        /* \"dataTypesValor.sol\":1061:1125  uint public balanceAddressExternally = addressExternally.balance */\n    tag_5:\n      tag_20\n      tag_21\n      jump\t// in\n    tag_20:\n      mload(0x40)\n      tag_22\n      swap2\n      swap1\n      tag_16\n      jump\t// in\n    tag_22:\n      mload(0x40)\n      dup1\n      swap2\n      sub\n      swap1\n      return\n        /* \"dataTypesValor.sol\":1877:1907  uint8 public getEdad = p1.edad */\n    tag_6:\n      tag_23\n      tag_24\n      jump\t// in\n    tag_23:\n      mload(0x40)\n      tag_25\n      swap2\n      swap1\n      tag_26\n      jump\t// in\n    tag_25:\n      mload(0x40)\n      dup1\n      swap2\n      sub\n      swap1\n      return\n        /* \"dataTypesValor.sol\":994:1052  uint public balanceAddressAccount = addressAccount.balance */\n    tag_7:\n      tag_27\n      tag_28\n      jump\t// in\n    tag_27:\n      mload(0x40)\n      tag_29\n      swap2\n      swap1\n      tag_16\n      jump\t// in\n    tag_29:\n      mload(0x40)\n      dup1\n      swap2\n      sub\n      swap1\n      return\n        /* \"dataTypesValor.sol\":862:907  address public addressExternally = msg.sender */\n    tag_8:\n      tag_30\n      tag_31\n      jump\t// in\n    tag_30:\n      mload(0x40)\n      tag_32\n      swap2\n      swap1\n      tag_33\n      jump\t// in\n    tag_32:\n      mload(0x40)\n      dup1\n      swap2\n      sub\n      swap1\n      return\n        /* \"dataTypesValor.sol\":1767:1868  Persona public p2 = Persona ({\r... */\n    tag_9:\n      tag_34\n      tag_35\n      jump\t// in\n    tag_34:\n      mload(0x40)\n      tag_36\n      swap4\n      swap3\n      swap2\n      swap1\n      tag_37\n      jump\t// in\n    tag_36:\n      mload(0x40)\n      dup1\n      swap2\n      sub\n      swap1\n      return\n        /* \"dataTypesValor.sol\":712:757  address public addressAccount = address(this) */\n    tag_10:\n      tag_38\n      tag_39\n      jump\t// in\n    tag_38:\n      mload(0x40)\n      tag_40\n      swap2\n      swap1\n      tag_33\n      jump\t// in\n    tag_40:\n      mload(0x40)\n      dup1\n      swap2\n      sub\n      swap1\n      return\n        /* \"dataTypesValor.sol\":1712:1760  Persona public p1 = Persona (true, 39, \"Esther\") */\n    tag_11:\n      tag_41\n      tag_42\n      jump\t// in\n    tag_41:\n      mload(0x40)\n      tag_43\n      swap4\n      swap3\n      swap2\n      swap1\n      tag_37\n      jump\t// in\n    tag_43:\n      mload(0x40)\n      dup1\n      swap2\n      sub\n      swap1\n      return\n        /* \"dataTypesValor.sol\":1425:1462  uint public lenghtData1 = data.length */\n    tag_14:\n      sload(0x0a)\n      dup2\n      jump\t// out\n        /* \"dataTypesValor.sol\":1473:1511  uint public lenghtData2 = data2.length */\n    tag_18:\n      sload(0x0b)\n      dup2\n      jump\t// out\n        /* \"dataTypesValor.sol\":1061:1125  uint public balanceAddressExternally = addressExternally.balance */\n    tag_21:\n      sload(0x07)\n      dup2\n      jump\t// out\n        /* \"dataTypesValor.sol\":1877:1907  uint8 public getEdad = p1.edad */\n    tag_24:\n      0x10\n      0x00\n      swap1\n      sload\n      swap1\n      0x0100\n      exp\n      swap1\n      div\n      0xff\n      and\n      dup2\n      jump\t// out\n        /* \"dataTypesValor.sol\":994:1052  uint public balanceAddressAccount = addressAccount.balance */\n    tag_28:\n      sload(0x06)\n      dup2\n      jump\t// out\n        /* \"dataTypesValor.sol\":862:907  address public addressExternally = msg.sender */\n    tag_31:\n      0x05\n      0x00\n      swap1\n      sload\n      swap1\n      0x0100\n      exp\n      swap1\n      div\n      0xffffffffffffffffffffffffffffffffffffffff\n      and\n      dup2\n      jump\t// out\n        /* \"dataTypesValor.sol\":1767:1868  Persona public p2 = Persona ({\r... */\n    tag_35:\n      0x0e\n      dup1\n      0x00\n      add\n      0x00\n      swap1\n      sload\n      swap1\n      0x0100\n      exp\n      swap1\n      div\n      0xff\n      and\n      swap1\n      dup1\n      0x00\n      add\n      0x01\n      swap1\n      sload\n      swap1\n      0x0100\n      exp\n      swap1\n      div\n      0xff\n      and\n      swap1\n      dup1\n      0x01\n      add\n      sload\n      swap1\n      pop\n      dup4\n      jump\t// out\n        /* \"dataTypesValor.sol\":712:757  address public addressAccount = address(this) */\n    tag_39:\n      0x04\n      0x05\n      swap1\n      sload\n      swap1\n      0x0100\n      exp\n      swap1\n      div\n      0xffffffffffffffffffffffffffffffffffffffff\n      and\n      dup2\n      jump\t// out\n        /* \"dataTypesValor.sol\":1712:1760  Persona public p1 = Persona (true, 39, \"Esther\") */\n    tag_42:\n      0x0c\n      dup1\n      0x00\n      add\n      0x00\n      swap1\n      sload\n      swap1\n      0x0100\n      exp\n      swap1\n      div\n      0xff\n      and\n      swap1\n      dup1\n      0x00\n      add\n      0x01\n      swap1\n      sload\n      swap1\n      0x0100\n      exp\n      swap1\n      div\n      0xff\n      and\n      swap1\n      dup1\n      0x01\n      add\n      sload\n      swap1\n      pop\n      dup4\n      jump\t// out\n        /* \"#utility.yul\":7:125   */\n    tag_45:\n        /* \"#utility.yul\":94:118   */\n      tag_47\n        /* \"#utility.yul\":112:117   */\n      dup2\n        /* \"#utility.yul\":94:118   */\n      tag_48\n      jump\t// in\n    tag_47:\n        /* \"#utility.yul\":89:92   */\n      dup3\n        /* \"#utility.yul\":82:119   */\n      mstore\n        /* \"#utility.yul\":7:125   */\n      pop\n      pop\n      jump\t// out\n        /* \"#utility.yul\":131:240   */\n    tag_49:\n        /* \"#utility.yul\":212:233   */\n      tag_51\n        /* \"#utility.yul\":227:232   */\n      dup2\n        /* \"#utility.yul\":212:233   */\n      tag_52\n      jump\t// in\n    tag_51:\n        /* \"#utility.yul\":207:210   */\n      dup3\n        /* \"#utility.yul\":200:234   */\n      mstore\n        /* \"#utility.yul\":131:240   */\n      pop\n      pop\n      jump\t// out\n        /* \"#utility.yul\":246:364   */\n    tag_53:\n        /* \"#utility.yul\":333:357   */\n      tag_55\n        /* \"#utility.yul\":351:356   */\n      dup2\n        /* \"#utility.yul\":333:357   */\n      tag_56\n      jump\t// in\n    tag_55:\n        /* \"#utility.yul\":328:331   */\n      dup3\n        /* \"#utility.yul\":321:358   */\n      mstore\n        /* \"#utility.yul\":246:364   */\n      pop\n      pop\n      jump\t// out\n        /* \"#utility.yul\":370:488   */\n    tag_57:\n        /* \"#utility.yul\":457:481   */\n      tag_59\n        /* \"#utility.yul\":475:480   */\n      dup2\n        /* \"#utility.yul\":457:481   */\n      tag_60\n      jump\t// in\n    tag_59:\n        /* \"#utility.yul\":452:455   */\n      dup3\n        /* \"#utility.yul\":445:482   */\n      mstore\n        /* \"#utility.yul\":370:488   */\n      pop\n      pop\n      jump\t// out\n        /* \"#utility.yul\":494:606   */\n    tag_61:\n        /* \"#utility.yul\":577:599   */\n      tag_63\n        /* \"#utility.yul\":593:598   */\n      dup2\n        /* \"#utility.yul\":577:599   */\n      tag_64\n      jump\t// in\n    tag_63:\n        /* \"#utility.yul\":572:575   */\n      dup3\n        /* \"#utility.yul\":565:600   */\n      mstore\n        /* \"#utility.yul\":494:606   */\n      pop\n      pop\n      jump\t// out\n        /* \"#utility.yul\":612:834   */\n    tag_33:\n        /* \"#utility.yul\":705:709   */\n      0x00\n        /* \"#utility.yul\":743:745   */\n      0x20\n        /* \"#utility.yul\":732:741   */\n      dup3\n        /* \"#utility.yul\":728:746   */\n      add\n        /* \"#utility.yul\":720:746   */\n      swap1\n      pop\n        /* \"#utility.yul\":756:827   */\n      tag_66\n        /* \"#utility.yul\":824:825   */\n      0x00\n        /* \"#utility.yul\":813:822   */\n      dup4\n        /* \"#utility.yul\":809:826   */\n      add\n        /* \"#utility.yul\":800:806   */\n      dup5\n        /* \"#utility.yul\":756:827   */\n      tag_45\n      jump\t// in\n    tag_66:\n        /* \"#utility.yul\":612:834   */\n      swap3\n      swap2\n      pop\n      pop\n      jump\t// out\n        /* \"#utility.yul\":840:1262   */\n    tag_37:\n        /* \"#utility.yul\":979:983   */\n      0x00\n        /* \"#utility.yul\":1017:1019   */\n      0x60\n        /* \"#utility.yul\":1006:1015   */\n      dup3\n        /* \"#utility.yul\":1002:1020   */\n      add\n        /* \"#utility.yul\":994:1020   */\n      swap1\n      pop\n        /* \"#utility.yul\":1030:1095   */\n      tag_68\n        /* \"#utility.yul\":1092:1093   */\n      0x00\n        /* \"#utility.yul\":1081:1090   */\n      dup4\n        /* \"#utility.yul\":1077:1094   */\n      add\n        /* \"#utility.yul\":1068:1074   */\n      dup7\n        /* \"#utility.yul\":1030:1095   */\n      tag_49\n      jump\t// in\n    tag_68:\n        /* \"#utility.yul\":1105:1173   */\n      tag_69\n        /* \"#utility.yul\":1169:1171   */\n      0x20\n        /* \"#utility.yul\":1158:1167   */\n      dup4\n        /* \"#utility.yul\":1154:1172   */\n      add\n        /* \"#utility.yul\":1145:1151   */\n      dup6\n        /* \"#utility.yul\":1105:1173   */\n      tag_61\n      jump\t// in\n    tag_69:\n        /* \"#utility.yul\":1183:1255   */\n      tag_70\n        /* \"#utility.yul\":1251:1253   */\n      0x40\n        /* \"#utility.yul\":1240:1249   */\n      dup4\n        /* \"#utility.yul\":1236:1254   */\n      add\n        /* \"#utility.yul\":1227:1233   */\n      dup5\n        /* \"#utility.yul\":1183:1255   */\n      tag_53\n      jump\t// in\n    tag_70:\n        /* \"#utility.yul\":840:1262   */\n      swap5\n      swap4\n      pop\n      pop\n      pop\n      pop\n      jump\t// out\n        /* \"#utility.yul\":1268:1490   */\n    tag_16:\n        /* \"#utility.yul\":1361:1365   */\n      0x00\n        /* \"#utility.yul\":1399:1401   */\n      0x20\n        /* \"#utility.yul\":1388:1397   */\n      dup3\n        /* \"#utility.yul\":1384:1402   */\n      add\n        /* \"#utility.yul\":1376:1402   */\n      swap1\n      pop\n        /* \"#utility.yul\":1412:1483   */\n      tag_72\n        /* \"#utility.yul\":1480:1481   */\n      0x00\n        /* \"#utility.yul\":1469:1478   */\n      dup4\n        /* \"#utility.yul\":1465:1482   */\n      add\n        /* \"#utility.yul\":1456:1462   */\n      dup5\n        /* \"#utility.yul\":1412:1483   */\n      tag_57\n      jump\t// in\n    tag_72:\n        /* \"#utility.yul\":1268:1490   */\n      swap3\n      swap2\n      pop\n      pop\n      jump\t// out\n        /* \"#utility.yul\":1496:1710   */\n    tag_26:\n        /* \"#utility.yul\":1585:1589   */\n      0x00\n        /* \"#utility.yul\":1623:1625   */\n      0x20\n        /* \"#utility.yul\":1612:1621   */\n      dup3\n        /* \"#utility.yul\":1608:1626   */\n      add\n        /* \"#utility.yul\":1600:1626   */\n      swap1\n      pop\n        /* \"#utility.yul\":1636:1703   */\n      tag_74\n        /* \"#utility.yul\":1700:1701   */\n      0x00\n        /* \"#utility.yul\":1689:1698   */\n      dup4\n        /* \"#utility.yul\":1685:1702   */\n      add\n        /* \"#utility.yul\":1676:1682   */\n      dup5\n        /* \"#utility.yul\":1636:1703   */\n      tag_61\n      jump\t// in\n    tag_74:\n        /* \"#utility.yul\":1496:1710   */\n      swap3\n      swap2\n      pop\n      pop\n      jump\t// out\n        /* \"#utility.yul\":1716:1812   */\n    tag_48:\n        /* \"#utility.yul\":1753:1760   */\n      0x00\n        /* \"#utility.yul\":1782:1806   */\n      tag_76\n        /* \"#utility.yul\":1800:1805   */\n      dup3\n        /* \"#utility.yul\":1782:1806   */\n      tag_77\n      jump\t// in\n    tag_76:\n        /* \"#utility.yul\":1771:1806   */\n      swap1\n      pop\n        /* \"#utility.yul\":1716:1812   */\n      swap2\n      swap1\n      pop\n      jump\t// out\n        /* \"#utility.yul\":1818:1908   */\n    tag_52:\n        /* \"#utility.yul\":1852:1859   */\n      0x00\n        /* \"#utility.yul\":1895:1900   */\n      dup2\n        /* \"#utility.yul\":1888:1901   */\n      iszero\n        /* \"#utility.yul\":1881:1902   */\n      iszero\n        /* \"#utility.yul\":1870:1902   */\n      swap1\n      pop\n        /* \"#utility.yul\":1818:1908   */\n      swap2\n      swap1\n      pop\n      jump\t// out\n        /* \"#utility.yul\":1914:1991   */\n    tag_56:\n        /* \"#utility.yul\":1951:1958   */\n      0x00\n        /* \"#utility.yul\":1980:1985   */\n      dup2\n        /* \"#utility.yul\":1969:1985   */\n      swap1\n      pop\n        /* \"#utility.yul\":1914:1991   */\n      swap2\n      swap1\n      pop\n      jump\t// out\n        /* \"#utility.yul\":1997:2123   */\n    tag_77:\n        /* \"#utility.yul\":2034:2041   */\n      0x00\n        /* \"#utility.yul\":2074:2116   */\n      0xffffffffffffffffffffffffffffffffffffffff\n        /* \"#utility.yul\":2067:2072   */\n      dup3\n        /* \"#utility.yul\":2063:2117   */\n      and\n        /* \"#utility.yul\":2052:2117   */\n      swap1\n      pop\n        /* \"#utility.yul\":1997:2123   */\n      swap2\n      swap1\n      pop\n      jump\t// out\n        /* \"#utility.yul\":2129:2206   */\n    tag_60:\n        /* \"#utility.yul\":2166:2173   */\n      0x00\n        /* \"#utility.yul\":2195:2200   */\n      dup2\n        /* \"#utility.yul\":2184:2200   */\n      swap1\n      pop\n        /* \"#utility.yul\":2129:2206   */\n      swap2\n      swap1\n      pop\n      jump\t// out\n        /* \"#utility.yul\":2212:2298   */\n    tag_64:\n        /* \"#utility.yul\":2247:2254   */\n      0x00\n        /* \"#utility.yul\":2287:2291   */\n      0xff\n        /* \"#utility.yul\":2280:2285   */\n      dup3\n        /* \"#utility.yul\":2276:2292   */\n      and\n        /* \"#utility.yul\":2265:2292   */\n      swap1\n      pop\n        /* \"#utility.yul\":2212:2298   */\n      swap2\n      swap1\n      pop\n      jump\t// out\n\n    auxdata: 0xa2646970667358221220f39dcb490de60ac1297192e48e2f981fc9f0a0734664728a791a7292ab39903564736f6c63430008070033\n}\n",
				"bytecode": {
					"linkReferences": {},
					"object": "608060405260016000806101000a81548160ff02191690831515021790555060008060016101000a81548160ff0219169083151502179055507ffffffffffffffffffffffffffffffffffffffffffffffffffffffffffffffff86001557ffffffffffffffffffffffffffffffffffffffffffffffffffffffffffffffff8600260006101000a81548160ff021916908360000b60ff1602179055507ffffffffffffffffffffffffffffffffffffffffffffffffffffffffffffffff8600260016101000a81548161ffff021916908360010b61ffff16021790555060086003556008600460006101000a81548160ff021916908360ff1602179055506008600460016101000a81548163ffffffff021916908363ffffffff16021790555030600460056101000a81548173ffffffffffffffffffffffffffffffffffffffff021916908373ffffffffffffffffffffffffffffffffffffffff16021790555033600560006101000a81548173ffffffffffffffffffffffffffffffffffffffff021916908373ffffffffffffffffffffffffffffffffffffffff160217905550600460059054906101000a900473ffffffffffffffffffffffffffffffffffffffff1673ffffffffffffffffffffffffffffffffffffffff1631600655600560009054906101000a900473ffffffffffffffffffffffffffffffffffffffff1673ffffffffffffffffffffffffffffffffffffffff16316007557f3900000000000000000000000000000000000000000000000000000000000000600860006101000a81548160ff021916908360f81c02179055507f3930000000000000000000000000000000000000000000000000000000000000600860016101000a81548161ffff021916908360f01c02179055507f48656c6c6f20576f726c64000000000000000000000000000000000000000000600955600860009054906101000a905050600160ff16600a55600860019054906101000a905050600260ff16600b556040518060600160405280600115158152602001602760ff1681526020017f4573746865720000000000000000000000000000000000000000000000000000815250600c60008201518160000160006101000a81548160ff02191690831515021790555060208201518160000160016101000a81548160ff021916908360ff1602179055506040820151816001015550506040518060600160405280600015158152602001602760ff1681526020017f4a756c6961000000000000000000000000000000000000000000000000000000815250600e60008201518160000160006101000a81548160ff02191690831515021790555060208201518160000160016101000a81548160ff021916908360ff160217905550604082015181600101555050600c60000160019054906101000a900460ff16601060006101000a81548160ff021916908360ff16021790555034801561043b57600080fd5b506103ed8061044b6000396000f3fe608060405234801561001057600080fd5b50600436106100935760003560e01c8063648b645011610066578063648b6450146101105780636c30c1c71461012e57806381d01ed31461014c578063b704ed741461016c578063c2a2747b1461018a57610093565b80631bc6681514610098578063379937a0146100b65780634de1a1b8146100d45780635cfd4af5146100f2575b600080fd5b6100a06101aa565b6040516100ad9190610322565b60405180910390f35b6100be6101b0565b6040516100cb9190610322565b60405180910390f35b6100dc6101b6565b6040516100e99190610322565b60405180910390f35b6100fa6101bc565b604051610107919061033d565b60405180910390f35b6101186101cf565b6040516101259190610322565b60405180910390f35b6101366101d5565b60405161014391906102d0565b60405180910390f35b6101546101fb565b604051610163939291906102eb565b60405180910390f35b61017461022d565b60405161018191906102d0565b60405180910390f35b610192610253565b6040516101a1939291906102eb565b60405180910390f35b600a5481565b600b5481565b60075481565b601060009054906101000a900460ff1681565b60065481565b600560009054906101000a900473ffffffffffffffffffffffffffffffffffffffff1681565b600e8060000160009054906101000a900460ff16908060000160019054906101000a900460ff16908060010154905083565b600460059054906101000a900473ffffffffffffffffffffffffffffffffffffffff1681565b600c8060000160009054906101000a900460ff16908060000160019054906101000a900460ff16908060010154905083565b61028e81610358565b82525050565b61029d8161036a565b82525050565b6102ac81610376565b82525050565b6102bb816103a0565b82525050565b6102ca816103aa565b82525050565b60006020820190506102e56000830184610285565b92915050565b60006060820190506103006000830186610294565b61030d60208301856102c1565b61031a60408301846102a3565b949350505050565b600060208201905061033760008301846102b2565b92915050565b600060208201905061035260008301846102c1565b92915050565b600061036382610380565b9050919050565b60008115159050919050565b6000819050919050565b600073ffffffffffffffffffffffffffffffffffffffff82169050919050565b6000819050919050565b600060ff8216905091905056fea2646970667358221220f39dcb490de60ac1297192e48e2f981fc9f0a0734664728a791a7292ab39903564736f6c63430008070033",
					"opcodes": "PUSH1 0x80 PUSH1 0x40 MSTORE PUSH1 0x1 PUSH1 0x0 DUP1 PUSH2 0x100 EXP DUP2 SLOAD DUP2 PUSH1 0xFF MUL NOT AND SWAP1 DUP4 ISZERO ISZERO MUL OR SWAP1 SSTORE POP PUSH1 0x0 DUP1 PUSH1 0x1 PUSH2 0x100 EXP DUP2 SLOAD DUP2 PUSH1 0xFF MUL NOT AND SWAP1 DUP4 ISZERO ISZERO MUL OR SWAP1 SSTORE POP PUSH32 0xFFFFFFFFFFFFFFFFFFFFFFFFFFFFFFFFFFFFFFFFFFFFFFFFFFFFFFFFFFFFFFF8 PUSH1 0x1 SSTORE PUSH32 0xFFFFFFFFFFFFFFFFFFFFFFFFFFFFFFFFFFFFFFFFFFFFFFFFFFFFFFFFFFFFFFF8 PUSH1 0x2 PUSH1 0x0 PUSH2 0x100 EXP DUP2 SLOAD DUP2 PUSH1 0xFF MUL NOT AND SWAP1 DUP4 PUSH1 0x0 SIGNEXTEND PUSH1 0xFF AND MUL OR SWAP1 SSTORE POP PUSH32 0xFFFFFFFFFFFFFFFFFFFFFFFFFFFFFFFFFFFFFFFFFFFFFFFFFFFFFFFFFFFFFFF8 PUSH1 0x2 PUSH1 0x1 PUSH2 0x100 EXP DUP2 SLOAD DUP2 PUSH2 0xFFFF MUL NOT AND SWAP1 DUP4 PUSH1 0x1 SIGNEXTEND PUSH2 0xFFFF AND MUL OR SWAP1 SSTORE POP PUSH1 0x8 PUSH1 0x3 SSTORE PUSH1 0x8 PUSH1 0x4 PUSH1 0x0 PUSH2 0x100 EXP DUP2 SLOAD DUP2 PUSH1 0xFF MUL NOT AND SWAP1 DUP4 PUSH1 0xFF AND MUL OR SWAP1 SSTORE POP PUSH1 0x8 PUSH1 0x4 PUSH1 0x1 PUSH2 0x100 EXP DUP2 SLOAD DUP2 PUSH4 0xFFFFFFFF MUL NOT AND SWAP1 DUP4 PUSH4 0xFFFFFFFF AND MUL OR SWAP1 SSTORE POP ADDRESS PUSH1 0x4 PUSH1 0x5 PUSH2 0x100 EXP DUP2 SLOAD DUP2 PUSH20 0xFFFFFFFFFFFFFFFFFFFFFFFFFFFFFFFFFFFFFFFF MUL NOT AND SWAP1 DUP4 PUSH20 0xFFFFFFFFFFFFFFFFFFFFFFFFFFFFFFFFFFFFFFFF AND MUL OR SWAP1 SSTORE POP CALLER PUSH1 0x5 PUSH1 0x0 PUSH2 0x100 EXP DUP2 SLOAD DUP2 PUSH20 0xFFFFFFFFFFFFFFFFFFFFFFFFFFFFFFFFFFFFFFFF MUL NOT AND SWAP1 DUP4 PUSH20 0xFFFFFFFFFFFFFFFFFFFFFFFFFFFFFFFFFFFFFFFF AND MUL OR SWAP1 SSTORE POP PUSH1 0x4 PUSH1 0x5 SWAP1 SLOAD SWAP1 PUSH2 0x100 EXP SWAP1 DIV PUSH20 0xFFFFFFFFFFFFFFFFFFFFFFFFFFFFFFFFFFFFFFFF AND PUSH20 0xFFFFFFFFFFFFFFFFFFFFFFFFFFFFFFFFFFFFFFFF AND BALANCE PUSH1 0x6 SSTORE PUSH1 0x5 PUSH1 0x0 SWAP1 SLOAD SWAP1 PUSH2 0x100 EXP SWAP1 DIV PUSH20 0xFFFFFFFFFFFFFFFFFFFFFFFFFFFFFFFFFFFFFFFF AND PUSH20 0xFFFFFFFFFFFFFFFFFFFFFFFFFFFFFFFFFFFFFFFF AND BALANCE PUSH1 0x7 SSTORE PUSH32 0x3900000000000000000000000000000000000000000000000000000000000000 PUSH1 0x8 PUSH1 0x0 PUSH2 0x100 EXP DUP2 SLOAD DUP2 PUSH1 0xFF MUL NOT AND SWAP1 DUP4 PUSH1 0xF8 SHR MUL OR SWAP1 SSTORE POP PUSH32 0x3930000000000000000000000000000000000000000000000000000000000000 PUSH1 0x8 PUSH1 0x1 PUSH2 0x100 EXP DUP2 SLOAD DUP2 PUSH2 0xFFFF MUL NOT AND SWAP1 DUP4 PUSH1 0xF0 SHR MUL OR SWAP1 SSTORE POP PUSH32 0x48656C6C6F20576F726C64000000000000000000000000000000000000000000 PUSH1 0x9 SSTORE PUSH1 0x8 PUSH1 0x0 SWAP1 SLOAD SWAP1 PUSH2 0x100 EXP SWAP1 POP POP PUSH1 0x1 PUSH1 0xFF AND PUSH1 0xA SSTORE PUSH1 0x8 PUSH1 0x1 SWAP1 SLOAD SWAP1 PUSH2 0x100 EXP SWAP1 POP POP PUSH1 0x2 PUSH1 0xFF AND PUSH1 0xB SSTORE PUSH1 0x40 MLOAD DUP1 PUSH1 0x60 ADD PUSH1 0x40 MSTORE DUP1 PUSH1 0x1 ISZERO ISZERO DUP2 MSTORE PUSH1 0x20 ADD PUSH1 0x27 PUSH1 0xFF AND DUP2 MSTORE PUSH1 0x20 ADD PUSH32 0x4573746865720000000000000000000000000000000000000000000000000000 DUP2 MSTORE POP PUSH1 0xC PUSH1 0x0 DUP3 ADD MLOAD DUP2 PUSH1 0x0 ADD PUSH1 0x0 PUSH2 0x100 EXP DUP2 SLOAD DUP2 PUSH1 0xFF MUL NOT AND SWAP1 DUP4 ISZERO ISZERO MUL OR SWAP1 SSTORE POP PUSH1 0x20 DUP3 ADD MLOAD DUP2 PUSH1 0x0 ADD PUSH1 0x1 PUSH2 0x100 EXP DUP2 SLOAD DUP2 PUSH1 0xFF MUL NOT AND SWAP1 DUP4 PUSH1 0xFF AND MUL OR SWAP1 SSTORE POP PUSH1 0x40 DUP3 ADD MLOAD DUP2 PUSH1 0x1 ADD SSTORE POP POP PUSH1 0x40 MLOAD DUP1 PUSH1 0x60 ADD PUSH1 0x40 MSTORE DUP1 PUSH1 0x0 ISZERO ISZERO DUP2 MSTORE PUSH1 0x20 ADD PUSH1 0x27 PUSH1 0xFF AND DUP2 MSTORE PUSH1 0x20 ADD PUSH32 0x4A756C6961000000000000000000000000000000000000000000000000000000 DUP2 MSTORE POP PUSH1 0xE PUSH1 0x0 DUP3 ADD MLOAD DUP2 PUSH1 0x0 ADD PUSH1 0x0 PUSH2 0x100 EXP DUP2 SLOAD DUP2 PUSH1 0xFF MUL NOT AND SWAP1 DUP4 ISZERO ISZERO MUL OR SWAP1 SSTORE POP PUSH1 0x20 DUP3 ADD MLOAD DUP2 PUSH1 0x0 ADD PUSH1 0x1 PUSH2 0x100 EXP DUP2 SLOAD DUP2 PUSH1 0xFF MUL NOT AND SWAP1 DUP4 PUSH1 0xFF AND MUL OR SWAP1 SSTORE POP PUSH1 0x40 DUP3 ADD MLOAD DUP2 PUSH1 0x1 ADD SSTORE POP POP PUSH1 0xC PUSH1 0x0 ADD PUSH1 0x1 SWAP1 SLOAD SWAP1 PUSH2 0x100 EXP SWAP1 DIV PUSH1 0xFF AND PUSH1 0x10 PUSH1 0x0 PUSH2 0x100 EXP DUP2 SLOAD DUP2 PUSH1 0xFF MUL NOT AND SWAP1 DUP4 PUSH1 0xFF AND MUL OR SWAP1 SSTORE POP CALLVALUE DUP1 ISZERO PUSH2 0x43B JUMPI PUSH1 0x0 DUP1 REVERT JUMPDEST POP PUSH2 0x3ED DUP1 PUSH2 0x44B PUSH1 0x0 CODECOPY PUSH1 0x0 RETURN INVALID PUSH1 0x80 PUSH1 0x40 MSTORE CALLVALUE DUP1 ISZERO PUSH2 0x10 JUMPI PUSH1 0x0 DUP1 REVERT JUMPDEST POP PUSH1 0x4 CALLDATASIZE LT PUSH2 0x93 JUMPI PUSH1 0x0 CALLDATALOAD PUSH1 0xE0 SHR DUP1 PUSH4 0x648B6450 GT PUSH2 0x66 JUMPI DUP1 PUSH4 0x648B6450 EQ PUSH2 0x110 JUMPI DUP1 PUSH4 0x6C30C1C7 EQ PUSH2 0x12E JUMPI DUP1 PUSH4 0x81D01ED3 EQ PUSH2 0x14C JUMPI DUP1 PUSH4 0xB704ED74 EQ PUSH2 0x16C JUMPI DUP1 PUSH4 0xC2A2747B EQ PUSH2 0x18A JUMPI PUSH2 0x93 JUMP JUMPDEST DUP1 PUSH4 0x1BC66815 EQ PUSH2 0x98 JUMPI DUP1 PUSH4 0x379937A0 EQ PUSH2 0xB6 JUMPI DUP1 PUSH4 0x4DE1A1B8 EQ PUSH2 0xD4 JUMPI DUP1 PUSH4 0x5CFD4AF5 EQ PUSH2 0xF2 JUMPI JUMPDEST PUSH1 0x0 DUP1 REVERT JUMPDEST PUSH2 0xA0 PUSH2 0x1AA JUMP JUMPDEST PUSH1 0x40 MLOAD PUSH2 0xAD SWAP2 SWAP1 PUSH2 0x322 JUMP JUMPDEST PUSH1 0x40 MLOAD DUP1 SWAP2 SUB SWAP1 RETURN JUMPDEST PUSH2 0xBE PUSH2 0x1B0 JUMP JUMPDEST PUSH1 0x40 MLOAD PUSH2 0xCB SWAP2 SWAP1 PUSH2 0x322 JUMP JUMPDEST PUSH1 0x40 MLOAD DUP1 SWAP2 SUB SWAP1 RETURN JUMPDEST PUSH2 0xDC PUSH2 0x1B6 JUMP JUMPDEST PUSH1 0x40 MLOAD PUSH2 0xE9 SWAP2 SWAP1 PUSH2 0x322 JUMP JUMPDEST PUSH1 0x40 MLOAD DUP1 SWAP2 SUB SWAP1 RETURN JUMPDEST PUSH2 0xFA PUSH2 0x1BC JUMP JUMPDEST PUSH1 0x40 MLOAD PUSH2 0x107 SWAP2 SWAP1 PUSH2 0x33D JUMP JUMPDEST PUSH1 0x40 MLOAD DUP1 SWAP2 SUB SWAP1 RETURN JUMPDEST PUSH2 0x118 PUSH2 0x1CF JUMP JUMPDEST PUSH1 0x40 MLOAD PUSH2 0x125 SWAP2 SWAP1 PUSH2 0x322 JUMP JUMPDEST PUSH1 0x40 MLOAD DUP1 SWAP2 SUB SWAP1 RETURN JUMPDEST PUSH2 0x136 PUSH2 0x1D5 JUMP JUMPDEST PUSH1 0x40 MLOAD PUSH2 0x143 SWAP2 SWAP1 PUSH2 0x2D0 JUMP JUMPDEST PUSH1 0x40 MLOAD DUP1 SWAP2 SUB SWAP1 RETURN JUMPDEST PUSH2 0x154 PUSH2 0x1FB JUMP JUMPDEST PUSH1 0x40 MLOAD PUSH2 0x163 SWAP4 SWAP3 SWAP2 SWAP1 PUSH2 0x2EB JUMP JUMPDEST PUSH1 0x40 MLOAD DUP1 SWAP2 SUB SWAP1 RETURN JUMPDEST PUSH2 0x174 PUSH2 0x22D JUMP JUMPDEST PUSH1 0x40 MLOAD PUSH2 0x181 SWAP2 SWAP1 PUSH2 0x2D0 JUMP JUMPDEST PUSH1 0x40 MLOAD DUP1 SWAP2 SUB SWAP1 RETURN JUMPDEST PUSH2 0x192 PUSH2 0x253 JUMP JUMPDEST PUSH1 0x40 MLOAD PUSH2 0x1A1 SWAP4 SWAP3 SWAP2 SWAP1 PUSH2 0x2EB JUMP JUMPDEST PUSH1 0x40 MLOAD DUP1 SWAP2 SUB SWAP1 RETURN JUMPDEST PUSH1 0xA SLOAD DUP2 JUMP JUMPDEST PUSH1 0xB SLOAD DUP2 JUMP JUMPDEST PUSH1 0x7 SLOAD DUP2 JUMP JUMPDEST PUSH1 0x10 PUSH1 0x0 SWAP1 SLOAD SWAP1 PUSH2 0x100 EXP SWAP1 DIV PUSH1 0xFF AND DUP2 JUMP JUMPDEST PUSH1 0x6 SLOAD DUP2 JUMP JUMPDEST PUSH1 0x5 PUSH1 0x0 SWAP1 SLOAD SWAP1 PUSH2 0x100 EXP SWAP1 DIV PUSH20 0xFFFFFFFFFFFFFFFFFFFFFFFFFFFFFFFFFFFFFFFF AND DUP2 JUMP JUMPDEST PUSH1 0xE DUP1 PUSH1 0x0 ADD PUSH1 0x0 SWAP1 SLOAD SWAP1 PUSH2 0x100 EXP SWAP1 DIV PUSH1 0xFF AND SWAP1 DUP1 PUSH1 0x0 ADD PUSH1 0x1 SWAP1 SLOAD SWAP1 PUSH2 0x100 EXP SWAP1 DIV PUSH1 0xFF AND SWAP1 DUP1 PUSH1 0x1 ADD SLOAD SWAP1 POP DUP4 JUMP JUMPDEST PUSH1 0x4 PUSH1 0x5 SWAP1 SLOAD SWAP1 PUSH2 0x100 EXP SWAP1 DIV PUSH20 0xFFFFFFFFFFFFFFFFFFFFFFFFFFFFFFFFFFFFFFFF AND DUP2 JUMP JUMPDEST PUSH1 0xC DUP1 PUSH1 0x0 ADD PUSH1 0x0 SWAP1 SLOAD SWAP1 PUSH2 0x100 EXP SWAP1 DIV PUSH1 0xFF AND SWAP1 DUP1 PUSH1 0x0 ADD PUSH1 0x1 SWAP1 SLOAD SWAP1 PUSH2 0x100 EXP SWAP1 DIV PUSH1 0xFF AND SWAP1 DUP1 PUSH1 0x1 ADD SLOAD SWAP1 POP DUP4 JUMP JUMPDEST PUSH2 0x28E DUP2 PUSH2 0x358 JUMP JUMPDEST DUP3 MSTORE POP POP JUMP JUMPDEST PUSH2 0x29D DUP2 PUSH2 0x36A JUMP JUMPDEST DUP3 MSTORE POP POP JUMP JUMPDEST PUSH2 0x2AC DUP2 PUSH2 0x376 JUMP JUMPDEST DUP3 MSTORE POP POP JUMP JUMPDEST PUSH2 0x2BB DUP2 PUSH2 0x3A0 JUMP JUMPDEST DUP3 MSTORE POP POP JUMP JUMPDEST PUSH2 0x2CA DUP2 PUSH2 0x3AA JUMP JUMPDEST DUP3 MSTORE POP POP JUMP JUMPDEST PUSH1 0x0 PUSH1 0x20 DUP3 ADD SWAP1 POP PUSH2 0x2E5 PUSH1 0x0 DUP4 ADD DUP5 PUSH2 0x285 JUMP JUMPDEST SWAP3 SWAP2 POP POP JUMP JUMPDEST PUSH1 0x0 PUSH1 0x60 DUP3 ADD SWAP1 POP PUSH2 0x300 PUSH1 0x0 DUP4 ADD DUP7 PUSH2 0x294 JUMP JUMPDEST PUSH2 0x30D PUSH1 0x20 DUP4 ADD DUP6 PUSH2 0x2C1 JUMP JUMPDEST PUSH2 0x31A PUSH1 0x40 DUP4 ADD DUP5 PUSH2 0x2A3 JUMP JUMPDEST SWAP5 SWAP4 POP POP POP POP JUMP JUMPDEST PUSH1 0x0 PUSH1 0x20 DUP3 ADD SWAP1 POP PUSH2 0x337 PUSH1 0x0 DUP4 ADD DUP5 PUSH2 0x2B2 JUMP JUMPDEST SWAP3 SWAP2 POP POP JUMP JUMPDEST PUSH1 0x0 PUSH1 0x20 DUP3 ADD SWAP1 POP PUSH2 0x352 PUSH1 0x0 DUP4 ADD DUP5 PUSH2 0x2C1 JUMP JUMPDEST SWAP3 SWAP2 POP POP JUMP JUMPDEST PUSH1 0x0 PUSH2 0x363 DUP3 PUSH2 0x380 JUMP JUMPDEST SWAP1 POP SWAP2 SWAP1 POP JUMP JUMPDEST PUSH1 0x0 DUP2 ISZERO ISZERO SWAP1 POP SWAP2 SWAP1 POP JUMP JUMPDEST PUSH1 0x0 DUP2 SWAP1 POP SWAP2 SWAP1 POP JUMP JUMPDEST PUSH1 0x0 PUSH20 0xFFFFFFFFFFFFFFFFFFFFFFFFFFFFFFFFFFFFFFFF DUP3 AND SWAP1 POP SWAP2 SWAP1 POP JUMP JUMPDEST PUSH1 0x0 DUP2 SWAP1 POP SWAP2 SWAP1 POP JUMP JUMPDEST PUSH1 0x0 PUSH1 0xFF DUP3 AND SWAP1 POP SWAP2 SWAP1 POP JUMP INVALID LOG2 PUSH5 0x6970667358 0x22 SLT KECCAK256 RETURN SWAP14 0xCB 0x49 0xD 0xE6 EXP 0xC1 0x29 PUSH18 0x92E48E2F981FC9F0A0734664728A791A7292 0xAB CODECOPY SWAP1 CALLDATALOAD PUSH5 0x736F6C6343 STOP ADDMOD SMOD STOP CALLER "
				},
				"gasEstimates": {
					"creation": {
						"codeDepositCost": "201000",
						"executionCost": "579878",
						"totalCost": "780878"
					},
					"external": {
						"addressAccount()": "2630",
						"addressExternally()": "2536",
						"balanceAddressAccount()": "2429",
						"balanceAddressExternally()": "2474",
						"getEdad()": "2538",
						"lenghtData1()": "2430",
						"lenghtData2()": "2452",
						"p1()": "7089",
						"p2()": "7045"
					}
				},
				"methodIdentifiers": {
					"addressAccount()": "b704ed74",
					"addressExternally()": "6c30c1c7",
					"balanceAddressAccount()": "648b6450",
					"balanceAddressExternally()": "4de1a1b8",
					"getEdad()": "5cfd4af5",
					"lenghtData1()": "1bc66815",
					"lenghtData2()": "379937a0",
					"p1()": "c2a2747b",
					"p2()": "81d01ed3"
				}
			},
			"storageLayout": {
				"storage": [
					{
						"astId": 4,
						"contract": "dataTypesValor.sol:dataTypeValor",
						"label": "flagVerdadero",
						"offset": 0,
						"slot": "0",
						"type": "t_bool"
					},
					{
						"astId": 7,
						"contract": "dataTypesValor.sol:dataTypeValor",
						"label": "flagFalse",
						"offset": 1,
						"slot": "0",
						"type": "t_bool"
					},
					{
						"astId": 11,
						"contract": "dataTypesValor.sol:dataTypeValor",
						"label": "number1",
						"offset": 0,
						"slot": "1",
						"type": "t_int256"
					},
					{
						"astId": 15,
						"contract": "dataTypesValor.sol:dataTypeValor",
						"label": "number2",
						"offset": 0,
						"slot": "2",
						"type": "t_int8"
					},
					{
						"astId": 19,
						"contract": "dataTypesValor.sol:dataTypeValor",
						"label": "number3",
						"offset": 1,
						"slot": "2",
						"type": "t_int16"
					},
					{
						"astId": 22,
						"contract": "dataTypesValor.sol:dataTypeValor",
						"label": "number4",
						"offset": 0,
						"slot": "3",
						"type": "t_uint256"
					},
					{
						"astId": 25,
						"contract": "dataTypesValor.sol:dataTypeValor",
						"label": "number5",
						"offset": 0,
						"slot": "4",
						"type": "t_uint8"
					},
					{
						"astId": 28,
						"contract": "dataTypesValor.sol:dataTypeValor",
						"label": "number6",
						"offset": 1,
						"slot": "4",
						"type": "t_uint32"
					},
					{
						"astId": 34,
						"contract": "dataTypesValor.sol:dataTypeValor",
						"label": "addressAccount",
						"offset": 5,
						"slot": "4",
						"type": "t_address"
					},
					{
						"astId": 38,
						"contract": "dataTypesValor.sol:dataTypeValor",
						"label": "addressExternally",
						"offset": 0,
						"slot": "5",
						"type": "t_address"
					},
					{
						"astId": 42,
						"contract": "dataTypesValor.sol:dataTypeValor",
						"label": "balanceAddressAccount",
						"offset": 0,
						"slot": "6",
						"type": "t_uint256"
					},
					{
						"astId": 46,
						"contract": "dataTypesValor.sol:dataTypeValor",
						"label": "balanceAddressExternally",
						"offset": 0,
						"slot": "7",
						"type": "t_uint256"
					},
					{
						"astId": 49,
						"contract": "dataTypesValor.sol:dataTypeValor",
						"label": "data",
						"offset": 0,
						"slot": "8",
						"type": "t_bytes1"
					},
					{
						"astId": 52,
						"contract": "dataTypesValor.sol:dataTypeValor",
						"label": "data2",
						"offset": 1,
						"slot": "8",
						"type": "t_bytes2"
					},
					{
						"astId": 55,
						"contract": "dataTypesValor.sol:dataTypeValor",
						"label": "data3",
						"offset": 0,
						"slot": "9",
						"type": "t_bytes32"
					},
					{
						"astId": 59,
						"contract": "dataTypesValor.sol:dataTypeValor",
						"label": "lenghtData1",
						"offset": 0,
						"slot": "10",
						"type": "t_uint256"
					},
					{
						"astId": 63,
						"contract": "dataTypesValor.sol:dataTypeValor",
						"label": "lenghtData2",
						"offset": 0,
						"slot": "11",
						"type": "t_uint256"
					},
					{
						"astId": 78,
						"contract": "dataTypesValor.sol:dataTypeValor",
						"label": "p1",
						"offset": 0,
						"slot": "12",
						"type": "t_struct(Persona)70_storage"
					},
					{
						"astId": 86,
						"contract": "dataTypesValor.sol:dataTypeValor",
						"label": "p2",
						"offset": 0,
						"slot": "14",
						"type": "t_struct(Persona)70_storage"
					},
					{
						"astId": 90,
						"contract": "dataTypesValor.sol:dataTypeValor",
						"label": "getEdad",
						"offset": 0,
						"slot": "16",
						"type": "t_uint8"
					}
				],
				"types": {
					"t_address": {
						"encoding": "inplace",
						"label": "address",
						"numberOfBytes": "20"
					},
					"t_bool": {
						"encoding": "inplace",
						"label": "bool",
						"numberOfBytes": "1"
					},
					"t_bytes1": {
						"encoding": "inplace",
						"label": "bytes1",
						"numberOfBytes": "1"
					},
					"t_bytes2": {
						"encoding": "inplace",
						"label": "bytes2",
						"numberOfBytes": "2"
					},
					"t_bytes32": {
						"encoding": "inplace",
						"label": "bytes32",
						"numberOfBytes": "32"
					},
					"t_int16": {
						"encoding": "inplace",
						"label": "int16",
						"numberOfBytes": "2"
					},
					"t_int256": {
						"encoding": "inplace",
						"label": "int256",
						"numberOfBytes": "32"
					},
					"t_int8": {
						"encoding": "inplace",
						"label": "int8",
						"numberOfBytes": "1"
					},
					"t_struct(Persona)70_storage": {
						"encoding": "inplace",
						"label": "struct dataTypeValor.Persona",
						"members": [
							{
								"astId": 65,
								"contract": "dataTypesValor.sol:dataTypeValor",
								"label": "vacunado",
								"offset": 0,
								"slot": "0",
								"type": "t_bool"
							},
							{
								"astId": 67,
								"contract": "dataTypesValor.sol:dataTypeValor",
								"label": "edad",
								"offset": 1,
								"slot": "0",
								"type": "t_uint8"
							},
							{
								"astId": 69,
								"contract": "dataTypesValor.sol:dataTypeValor",
								"label": "nombre",
								"offset": 0,
								"slot": "1",
								"type": "t_bytes32"
							}
						],
						"numberOfBytes": "64"
					},
					"t_uint256": {
						"encoding": "inplace",
						"label": "uint256",
						"numberOfBytes": "32"
					},
					"t_uint32": {
						"encoding": "inplace",
						"label": "uint32",
						"numberOfBytes": "4"
					},
					"t_uint8": {
						"encoding": "inplace",
						"label": "uint8",
						"numberOfBytes": "1"
					}
				}
			},
			"userdoc": {
				"kind": "user",
				"methods": {},
				"version": 1
			}
		}
	}
}