{
	"dataTypesValor.sol": {
		"dataTypeValor": {
			"abi": [
				{
					"inputs": [],
					"name": "addPersonas",
					"outputs": [],
					"stateMutability": "nonpayable",
					"type": "function"
				},
				{
					"inputs": [],
					"name": "addressAccount",
					"outputs": [
						{
							"internalType": "address",
							"name": "",
							"type": "address"
						}
					],
					"stateMutability": "view",
					"type": "function"
				},
				{
					"inputs": [],
					"name": "addressExternally",
					"outputs": [
						{
							"internalType": "address",
							"name": "",
							"type": "address"
						}
					],
					"stateMutability": "view",
					"type": "function"
				},
				{
					"inputs": [],
					"name": "balanceAddressAccount",
					"outputs": [
						{
							"internalType": "uint256",
							"name": "",
							"type": "uint256"
						}
					],
					"stateMutability": "view",
					"type": "function"
				},
				{
					"inputs": [],
					"name": "balanceAddressExternally",
					"outputs": [
						{
							"internalType": "uint256",
							"name": "",
							"type": "uint256"
						}
					],
					"stateMutability": "view",
					"type": "function"
				},
				{
					"inputs": [
						{
							"internalType": "address",
							"name": "",
							"type": "address"
						}
					],
					"name": "diccPersonas",
					"outputs": [
						{
							"internalType": "bool",
							"name": "vacunado",
							"type": "bool"
						},
						{
							"internalType": "uint8",
							"name": "edad",
							"type": "uint8"
						},
						{
							"internalType": "bytes32",
							"name": "nombre",
							"type": "bytes32"
						}
					],
					"stateMutability": "view",
					"type": "function"
				},
				{
					"inputs": [],
					"name": "getEdad",
					"outputs": [
						{
							"internalType": "uint8",
							"name": "",
							"type": "uint8"
						}
					],
					"stateMutability": "view",
					"type": "function"
				},
				{
					"inputs": [],
					"name": "lenghtData1",
					"outputs": [
						{
							"internalType": "uint256",
							"name": "",
							"type": "uint256"
						}
					],
					"stateMutability": "view",
					"type": "function"
				},
				{
					"inputs": [],
					"name": "lenghtData2",
					"outputs": [
						{
							"internalType": "uint256",
							"name": "",
							"type": "uint256"
						}
					],
					"stateMutability": "view",
					"type": "function"
				},
				{
					"inputs": [],
					"name": "p1",
					"outputs": [
						{
							"internalType": "bool",
							"name": "vacunado",
							"type": "bool"
						},
						{
							"internalType": "uint8",
							"name": "edad",
							"type": "uint8"
						},
						{
							"internalType": "bytes32",
							"name": "nombre",
							"type": "bytes32"
						}
					],
					"stateMutability": "view",
					"type": "function"
				},
				{
					"inputs": [],
					"name": "p2",
					"outputs": [
						{
							"internalType": "bool",
							"name": "vacunado",
							"type": "bool"
						},
						{
							"internalType": "uint8",
							"name": "edad",
							"type": "uint8"
						},
						{
							"internalType": "bytes32",
							"name": "nombre",
							"type": "bytes32"
						}
					],
					"stateMutability": "view",
					"type": "function"
				}
			],
			"devdoc": {
				"kind": "dev",
				"methods": {},
				"version": 1
			},
			"evm": {
				"assembly": "    /* \"dataTypesValor.sol\":66:2088  contract dataTypeValor{\r... */\n  mstore(0x40, 0x80)\n    /* \"dataTypesValor.sol\":134:138  true */\n  0x01\n    /* \"dataTypesValor.sol\":113:138  bool flagVerdadero = true */\n  0x00\n  dup1\n  0x0100\n  exp\n  dup2\n  sload\n  dup2\n  0xff\n  mul\n  not\n  and\n  swap1\n  dup4\n  iszero\n  iszero\n  mul\n  or\n  swap1\n  sstore\n  pop\n    /* \"dataTypesValor.sol\":162:167  false */\n  0x00\n    /* \"dataTypesValor.sol\":145:167  bool flagFalse = false */\n  dup1\n  exp(0x0100, 0x01)\n  dup2\n  sload\n  dup2\n  0xff\n  mul\n  not\n  and\n  swap1\n  dup4\n  iszero\n  iszero\n  mul\n  or\n  swap1\n  sstore\n  pop\n    /* \"dataTypesValor.sol\":290:292  -8 */\n  0xfffffffffffffffffffffffffffffffffffffffffffffffffffffffffffffff8\n    /* \"dataTypesValor.sol\":276:292  int number1 = -8 */\n  0x01\n  sstore\n    /* \"dataTypesValor.sol\":334:336  -8 */\n  0xfffffffffffffffffffffffffffffffffffffffffffffffffffffffffffffff8\n    /* \"dataTypesValor.sol\":319:336  int8 number2 = -8 */\n  0x02\n  exp(0x0100, 0x00)\n  dup2\n  sload\n  dup2\n  0xff\n  mul\n  not\n  and\n  swap1\n  dup4\n  0x00\n  signextend\n  0xff\n  and\n  mul\n  or\n  swap1\n  sstore\n  pop\n    /* \"dataTypesValor.sol\":386:388  -8 */\n  0xfffffffffffffffffffffffffffffffffffffffffffffffffffffffffffffff8\n    /* \"dataTypesValor.sol\":370:388  int16 number3 = -8 */\n  0x02\n  exp(0x0100, 0x01)\n  dup2\n  sload\n  dup2\n  0xffff\n  mul\n  not\n  and\n  swap1\n  dup4\n  0x01\n  signextend\n  0xffff\n  and\n  mul\n  or\n  swap1\n  sstore\n  pop\n    /* \"dataTypesValor.sol\":463:464  8 */\n  0x08\n    /* \"dataTypesValor.sol\":448:464  uint number4 = 8 */\n  0x03\n  sstore\n    /* \"dataTypesValor.sol\":508:509  8 */\n  0x08\n    /* \"dataTypesValor.sol\":492:509  uint8 number5 = 8 */\n  0x04\n  exp(0x0100, 0x00)\n  dup2\n  sload\n  dup2\n  0xff\n  mul\n  not\n  and\n  swap1\n  dup4\n  0xff\n  and\n  mul\n  or\n  swap1\n  sstore\n  pop\n    /* \"dataTypesValor.sol\":555:556  8 */\n  0x08\n    /* \"dataTypesValor.sol\":538:556  uint32 number6 = 8 */\n  0x04\n  exp(0x0100, 0x01)\n  dup2\n  sload\n  dup2\n  0xffffffff\n  mul\n  not\n  and\n  swap1\n  dup4\n  0xffffffff\n  and\n  mul\n  or\n  swap1\n  sstore\n  pop\n    /* \"dataTypesValor.sol\":752:756  this */\n  address\n    /* \"dataTypesValor.sol\":712:757  address public addressAccount = address(this) */\n  0x04\n  exp(0x0100, 0x05)\n  dup2\n  sload\n  dup2\n  0xffffffffffffffffffffffffffffffffffffffff\n  mul\n  not\n  and\n  swap1\n  dup4\n  0xffffffffffffffffffffffffffffffffffffffff\n  and\n  mul\n  or\n  swap1\n  sstore\n  pop\n    /* \"dataTypesValor.sol\":897:907  msg.sender */\n  caller\n    /* \"dataTypesValor.sol\":862:907  address public addressExternally = msg.sender */\n  0x05\n  exp(0x0100, 0x00)\n  dup2\n  sload\n  dup2\n  0xffffffffffffffffffffffffffffffffffffffff\n  mul\n  not\n  and\n  swap1\n  dup4\n  0xffffffffffffffffffffffffffffffffffffffff\n  and\n  mul\n  or\n  swap1\n  sstore\n  pop\n    /* \"dataTypesValor.sol\":1030:1044  addressAccount */\n  0x04\n  0x05\n  swap1\n  sload\n  swap1\n  0x0100\n  exp\n  swap1\n  div\n  0xffffffffffffffffffffffffffffffffffffffff\n  and\n    /* \"dataTypesValor.sol\":1030:1052  addressAccount.balance */\n  0xffffffffffffffffffffffffffffffffffffffff\n  and\n  balance\n    /* \"dataTypesValor.sol\":994:1052  uint public balanceAddressAccount = addressAccount.balance */\n  0x06\n  sstore\n    /* \"dataTypesValor.sol\":1100:1117  addressExternally */\n  0x05\n  0x00\n  swap1\n  sload\n  swap1\n  0x0100\n  exp\n  swap1\n  div\n  0xffffffffffffffffffffffffffffffffffffffff\n  and\n    /* \"dataTypesValor.sol\":1100:1125  addressExternally.balance */\n  0xffffffffffffffffffffffffffffffffffffffff\n  and\n  balance\n    /* \"dataTypesValor.sol\":1061:1125  uint public balanceAddressExternally = addressExternally.balance */\n  0x07\n  sstore\n    /* \"dataTypesValor.sol\":1272:1290  bytes1 data =  \"9\" */\n  0x3900000000000000000000000000000000000000000000000000000000000000\n  0x08\n  exp(0x0100, 0x00)\n  dup2\n  sload\n  dup2\n  0xff\n  mul\n  not\n  and\n  swap1\n  dup4\n  0xf8\n  shr\n  mul\n  or\n  swap1\n  sstore\n  pop\n    /* \"dataTypesValor.sol\":1301:1320  bytes2 data2 = \"90\" */\n  0x3930000000000000000000000000000000000000000000000000000000000000\n  0x08\n  exp(0x0100, 0x01)\n  dup2\n  sload\n  dup2\n  0xffff\n  mul\n  not\n  and\n  swap1\n  dup4\n  0xf0\n  shr\n  mul\n  or\n  swap1\n  sstore\n  pop\n    /* \"dataTypesValor.sol\":1331:1360  bytes32 data3 = \"Hello World\" */\n  sstore(0x09, 0x48656c6c6f20576f726c64000000000000000000000000000000000000000000)\n    /* \"dataTypesValor.sol\":1451:1455  data */\n  0x08\n  0x00\n  swap1\n  sload\n  swap1\n  0x0100\n  exp\n  swap1\n  pop\n  pop\n    /* \"dataTypesValor.sol\":1451:1462  data.length */\n  0x01\n    /* \"dataTypesValor.sol\":1425:1462  uint public lenghtData1 = data.length */\n  0xff\n  and\n  0x0a\n  sstore\n    /* \"dataTypesValor.sol\":1499:1504  data2 */\n  0x08\n  0x01\n  swap1\n  sload\n  swap1\n  0x0100\n  exp\n  swap1\n  pop\n  pop\n    /* \"dataTypesValor.sol\":1499:1511  data2.length */\n  0x02\n    /* \"dataTypesValor.sol\":1473:1511  uint public lenghtData2 = data2.length */\n  0xff\n  and\n  0x0b\n  sstore\n    /* \"dataTypesValor.sol\":1732:1760  Persona (true, 39, \"Esther\") */\n  mload(0x40)\n  dup1\n  0x60\n  add\n  0x40\n  mstore\n  dup1\n    /* \"dataTypesValor.sol\":1741:1745  true */\n  0x01\n    /* \"dataTypesValor.sol\":1732:1760  Persona (true, 39, \"Esther\") */\n  iszero\n  iszero\n  dup2\n  mstore\n  0x20\n  add\n    /* \"dataTypesValor.sol\":1747:1749  39 */\n  0x27\n    /* \"dataTypesValor.sol\":1732:1760  Persona (true, 39, \"Esther\") */\n  0xff\n  and\n  dup2\n  mstore\n  0x20\n  add\n  0x4573746865720000000000000000000000000000000000000000000000000000\n  dup2\n  mstore\n  pop\n    /* \"dataTypesValor.sol\":1712:1760  Persona public p1 = Persona (true, 39, \"Esther\") */\n  0x0c\n  0x00\n  dup3\n  add\n  mload\n  dup2\n  0x00\n  add\n  exp(0x0100, 0x00)\n  dup2\n  sload\n  dup2\n  0xff\n  mul\n  not\n  and\n  swap1\n  dup4\n  iszero\n  iszero\n  mul\n  or\n  swap1\n  sstore\n  pop\n  0x20\n  dup3\n  add\n  mload\n  dup2\n  0x00\n  add\n  exp(0x0100, 0x01)\n  dup2\n  sload\n  dup2\n  0xff\n  mul\n  not\n  and\n  swap1\n  dup4\n  0xff\n  and\n  mul\n  or\n  swap1\n  sstore\n  pop\n  0x40\n  dup3\n  add\n  mload\n  dup2\n  0x01\n  add\n  sstore\n  pop\n  pop\n    /* \"dataTypesValor.sol\":1787:1868  Persona ({\r... */\n  mload(0x40)\n  dup1\n  0x60\n  add\n  0x40\n  mstore\n  dup1\n    /* \"dataTypesValor.sol\":1832:1837  false */\n  0x00\n    /* \"dataTypesValor.sol\":1787:1868  Persona ({\r... */\n  iszero\n  iszero\n  dup2\n  mstore\n  0x20\n  add\n    /* \"dataTypesValor.sol\":1811:1813  39 */\n  0x27\n    /* \"dataTypesValor.sol\":1787:1868  Persona ({\r... */\n  0xff\n  and\n  dup2\n  mstore\n  0x20\n  add\n  0x4a756c6961000000000000000000000000000000000000000000000000000000\n  dup2\n  mstore\n  pop\n    /* \"dataTypesValor.sol\":1767:1868  Persona public p2 = Persona ({\r... */\n  0x0e\n  0x00\n  dup3\n  add\n  mload\n  dup2\n  0x00\n  add\n  exp(0x0100, 0x00)\n  dup2\n  sload\n  dup2\n  0xff\n  mul\n  not\n  and\n  swap1\n  dup4\n  iszero\n  iszero\n  mul\n  or\n  swap1\n  sstore\n  pop\n  0x20\n  dup3\n  add\n  mload\n  dup2\n  0x00\n  add\n  exp(0x0100, 0x01)\n  dup2\n  sload\n  dup2\n  0xff\n  mul\n  not\n  and\n  swap1\n  dup4\n  0xff\n  and\n  mul\n  or\n  swap1\n  sstore\n  pop\n  0x40\n  dup3\n  add\n  mload\n  dup2\n  0x01\n  add\n  sstore\n  pop\n  pop\n    /* \"dataTypesValor.sol\":1900:1902  p1 */\n  0x0c\n    /* \"dataTypesValor.sol\":1900:1907  p1.edad */\n  0x00\n  add\n  0x01\n  swap1\n  sload\n  swap1\n  0x0100\n  exp\n  swap1\n  div\n  0xff\n  and\n    /* \"dataTypesValor.sol\":1877:1907  uint8 public getEdad = p1.edad */\n  0x10\n  exp(0x0100, 0x00)\n  dup2\n  sload\n  dup2\n  0xff\n  mul\n  not\n  and\n  swap1\n  dup4\n  0xff\n  and\n  mul\n  or\n  swap1\n  sstore\n  pop\n    /* \"dataTypesValor.sol\":66:2088  contract dataTypeValor{\r... */\n  callvalue\n  dup1\n  iszero\n  tag_1\n  jumpi\n  0x00\n  dup1\n  revert\ntag_1:\n  pop\n  dataSize(sub_0)\n  dup1\n  dataOffset(sub_0)\n  0x00\n  codecopy\n  0x00\n  return\nstop\n\nsub_0: assembly {\n        /* \"dataTypesValor.sol\":66:2088  contract dataTypeValor{\r... */\n      mstore(0x40, 0x80)\n      callvalue\n      dup1\n      iszero\n      tag_1\n      jumpi\n      0x00\n      dup1\n      revert\n    tag_1:\n      pop\n      jumpi(tag_2, lt(calldatasize, 0x04))\n      shr(0xe0, calldataload(0x00))\n      dup1\n      0x648b6450\n      gt\n      tag_14\n      jumpi\n      dup1\n      0x648b6450\n      eq\n      tag_8\n      jumpi\n      dup1\n      0x6c30c1c7\n      eq\n      tag_9\n      jumpi\n      dup1\n      0x81d01ed3\n      eq\n      tag_10\n      jumpi\n      dup1\n      0x92ed4873\n      eq\n      tag_11\n      jumpi\n      dup1\n      0xb704ed74\n      eq\n      tag_12\n      jumpi\n      dup1\n      0xc2a2747b\n      eq\n      tag_13\n      jumpi\n      jump(tag_2)\n    tag_14:\n      dup1\n      0x1bc66815\n      eq\n      tag_3\n      jumpi\n      dup1\n      0x379937a0\n      eq\n      tag_4\n      jumpi\n      dup1\n      0x4de1a1b8\n      eq\n      tag_5\n      jumpi\n      dup1\n      0x5cfd4af5\n      eq\n      tag_6\n      jumpi\n      dup1\n      0x645c71f0\n      eq\n      tag_7\n      jumpi\n    tag_2:\n      0x00\n      dup1\n      revert\n        /* \"dataTypesValor.sol\":1425:1462  uint public lenghtData1 = data.length */\n    tag_3:\n      tag_15\n      tag_16\n      jump\t// in\n    tag_15:\n      mload(0x40)\n      tag_17\n      swap2\n      swap1\n      tag_18\n      jump\t// in\n    tag_17:\n      mload(0x40)\n      dup1\n      swap2\n      sub\n      swap1\n      return\n        /* \"dataTypesValor.sol\":1473:1511  uint public lenghtData2 = data2.length */\n    tag_4:\n      tag_19\n      tag_20\n      jump\t// in\n    tag_19:\n      mload(0x40)\n      tag_21\n      swap2\n      swap1\n      tag_18\n      jump\t// in\n    tag_21:\n      mload(0x40)\n      dup1\n      swap2\n      sub\n      swap1\n      return\n        /* \"dataTypesValor.sol\":1061:1125  uint public balanceAddressExternally = addressExternally.balance */\n    tag_5:\n      tag_22\n      tag_23\n      jump\t// in\n    tag_22:\n      mload(0x40)\n      tag_24\n      swap2\n      swap1\n      tag_18\n      jump\t// in\n    tag_24:\n      mload(0x40)\n      dup1\n      swap2\n      sub\n      swap1\n      return\n        /* \"dataTypesValor.sol\":1877:1907  uint8 public getEdad = p1.edad */\n    tag_6:\n      tag_25\n      tag_26\n      jump\t// in\n    tag_25:\n      mload(0x40)\n      tag_27\n      swap2\n      swap1\n      tag_28\n      jump\t// in\n    tag_27:\n      mload(0x40)\n      dup1\n      swap2\n      sub\n      swap1\n      return\n        /* \"dataTypesValor.sol\":1988:2035  mapping(address => Persona) public diccPersonas */\n    tag_7:\n      tag_29\n      0x04\n      dup1\n      calldatasize\n      sub\n      dup2\n      add\n      swap1\n      tag_30\n      swap2\n      swap1\n      tag_31\n      jump\t// in\n    tag_30:\n      tag_32\n      jump\t// in\n    tag_29:\n      mload(0x40)\n      tag_33\n      swap4\n      swap3\n      swap2\n      swap1\n      tag_34\n      jump\t// in\n    tag_33:\n      mload(0x40)\n      dup1\n      swap2\n      sub\n      swap1\n      return\n        /* \"dataTypesValor.sol\":994:1052  uint public balanceAddressAccount = addressAccount.balance */\n    tag_8:\n      tag_35\n      tag_36\n      jump\t// in\n    tag_35:\n      mload(0x40)\n      tag_37\n      swap2\n      swap1\n      tag_18\n      jump\t// in\n    tag_37:\n      mload(0x40)\n      dup1\n      swap2\n      sub\n      swap1\n      return\n        /* \"dataTypesValor.sol\":862:907  address public addressExternally = msg.sender */\n    tag_9:\n      tag_38\n      tag_39\n      jump\t// in\n    tag_38:\n      mload(0x40)\n      tag_40\n      swap2\n      swap1\n      tag_41\n      jump\t// in\n    tag_40:\n      mload(0x40)\n      dup1\n      swap2\n      sub\n      swap1\n      return\n        /* \"dataTypesValor.sol\":1767:1868  Persona public p2 = Persona ({\r... */\n    tag_10:\n      tag_42\n      tag_43\n      jump\t// in\n    tag_42:\n      mload(0x40)\n      tag_44\n      swap4\n      swap3\n      swap2\n      swap1\n      tag_34\n      jump\t// in\n    tag_44:\n      mload(0x40)\n      dup1\n      swap2\n      sub\n      swap1\n      return\n        /* \"dataTypesValor.sol\":2042:2085  function addPersonas () public {\r... */\n    tag_11:\n      tag_45\n      tag_46\n      jump\t// in\n    tag_45:\n      stop\n        /* \"dataTypesValor.sol\":712:757  address public addressAccount = address(this) */\n    tag_12:\n      tag_47\n      tag_48\n      jump\t// in\n    tag_47:\n      mload(0x40)\n      tag_49\n      swap2\n      swap1\n      tag_41\n      jump\t// in\n    tag_49:\n      mload(0x40)\n      dup1\n      swap2\n      sub\n      swap1\n      return\n        /* \"dataTypesValor.sol\":1712:1760  Persona public p1 = Persona (true, 39, \"Esther\") */\n    tag_13:\n      tag_50\n      tag_51\n      jump\t// in\n    tag_50:\n      mload(0x40)\n      tag_52\n      swap4\n      swap3\n      swap2\n      swap1\n      tag_34\n      jump\t// in\n    tag_52:\n      mload(0x40)\n      dup1\n      swap2\n      sub\n      swap1\n      return\n        /* \"dataTypesValor.sol\":1425:1462  uint public lenghtData1 = data.length */\n    tag_16:\n      sload(0x0a)\n      dup2\n      jump\t// out\n        /* \"dataTypesValor.sol\":1473:1511  uint public lenghtData2 = data2.length */\n    tag_20:\n      sload(0x0b)\n      dup2\n      jump\t// out\n        /* \"dataTypesValor.sol\":1061:1125  uint public balanceAddressExternally = addressExternally.balance */\n    tag_23:\n      sload(0x07)\n      dup2\n      jump\t// out\n        /* \"dataTypesValor.sol\":1877:1907  uint8 public getEdad = p1.edad */\n    tag_26:\n      0x10\n      0x00\n      swap1\n      sload\n      swap1\n      0x0100\n      exp\n      swap1\n      div\n      0xff\n      and\n      dup2\n      jump\t// out\n        /* \"dataTypesValor.sol\":1988:2035  mapping(address => Persona) public diccPersonas */\n    tag_32:\n      mstore(0x20, 0x11)\n      dup1\n      0x00\n      mstore\n      keccak256(0x00, 0x40)\n      0x00\n      swap2\n      pop\n      swap1\n      pop\n      dup1\n      0x00\n      add\n      0x00\n      swap1\n      sload\n      swap1\n      0x0100\n      exp\n      swap1\n      div\n      0xff\n      and\n      swap1\n      dup1\n      0x00\n      add\n      0x01\n      swap1\n      sload\n      swap1\n      0x0100\n      exp\n      swap1\n      div\n      0xff\n      and\n      swap1\n      dup1\n      0x01\n      add\n      sload\n      swap1\n      pop\n      dup4\n      jump\t// out\n        /* \"dataTypesValor.sol\":994:1052  uint public balanceAddressAccount = addressAccount.balance */\n    tag_36:\n      sload(0x06)\n      dup2\n      jump\t// out\n        /* \"dataTypesValor.sol\":862:907  address public addressExternally = msg.sender */\n    tag_39:\n      0x05\n      0x00\n      swap1\n      sload\n      swap1\n      0x0100\n      exp\n      swap1\n      div\n      0xffffffffffffffffffffffffffffffffffffffff\n      and\n      dup2\n      jump\t// out\n        /* \"dataTypesValor.sol\":1767:1868  Persona public p2 = Persona ({\r... */\n    tag_43:\n      0x0e\n      dup1\n      0x00\n      add\n      0x00\n      swap1\n      sload\n      swap1\n      0x0100\n      exp\n      swap1\n      div\n      0xff\n      and\n      swap1\n      dup1\n      0x00\n      add\n      0x01\n      swap1\n      sload\n      swap1\n      0x0100\n      exp\n      swap1\n      div\n      0xff\n      and\n      swap1\n      dup1\n      0x01\n      add\n      sload\n      swap1\n      pop\n      dup4\n      jump\t// out\n        /* \"dataTypesValor.sol\":2042:2085  function addPersonas () public {\r... */\n    tag_46:\n      jump\t// out\n        /* \"dataTypesValor.sol\":712:757  address public addressAccount = address(this) */\n    tag_48:\n      0x04\n      0x05\n      swap1\n      sload\n      swap1\n      0x0100\n      exp\n      swap1\n      div\n      0xffffffffffffffffffffffffffffffffffffffff\n      and\n      dup2\n      jump\t// out\n        /* \"dataTypesValor.sol\":1712:1760  Persona public p1 = Persona (true, 39, \"Esther\") */\n    tag_51:\n      0x0c\n      dup1\n      0x00\n      add\n      0x00\n      swap1\n      sload\n      swap1\n      0x0100\n      exp\n      swap1\n      div\n      0xff\n      and\n      swap1\n      dup1\n      0x00\n      add\n      0x01\n      swap1\n      sload\n      swap1\n      0x0100\n      exp\n      swap1\n      div\n      0xff\n      and\n      swap1\n      dup1\n      0x01\n      add\n      sload\n      swap1\n      pop\n      dup4\n      jump\t// out\n        /* \"#utility.yul\":7:146   */\n    tag_55:\n        /* \"#utility.yul\":53:58   */\n      0x00\n        /* \"#utility.yul\":91:97   */\n      dup2\n        /* \"#utility.yul\":78:98   */\n      calldataload\n        /* \"#utility.yul\":69:98   */\n      swap1\n      pop\n        /* \"#utility.yul\":107:140   */\n      tag_57\n        /* \"#utility.yul\":134:139   */\n      dup2\n        /* \"#utility.yul\":107:140   */\n      tag_58\n      jump\t// in\n    tag_57:\n        /* \"#utility.yul\":7:146   */\n      swap3\n      swap2\n      pop\n      pop\n      jump\t// out\n        /* \"#utility.yul\":152:481   */\n    tag_31:\n        /* \"#utility.yul\":211:217   */\n      0x00\n        /* \"#utility.yul\":260:262   */\n      0x20\n        /* \"#utility.yul\":248:257   */\n      dup3\n        /* \"#utility.yul\":239:246   */\n      dup5\n        /* \"#utility.yul\":235:258   */\n      sub\n        /* \"#utility.yul\":231:263   */\n      slt\n        /* \"#utility.yul\":228:347   */\n      iszero\n      tag_60\n      jumpi\n        /* \"#utility.yul\":266:345   */\n      tag_61\n      tag_62\n      jump\t// in\n    tag_61:\n        /* \"#utility.yul\":228:347   */\n    tag_60:\n        /* \"#utility.yul\":386:387   */\n      0x00\n        /* \"#utility.yul\":411:464   */\n      tag_63\n        /* \"#utility.yul\":456:463   */\n      dup5\n        /* \"#utility.yul\":447:453   */\n      dup3\n        /* \"#utility.yul\":436:445   */\n      dup6\n        /* \"#utility.yul\":432:454   */\n      add\n        /* \"#utility.yul\":411:464   */\n      tag_55\n      jump\t// in\n    tag_63:\n        /* \"#utility.yul\":401:464   */\n      swap2\n      pop\n        /* \"#utility.yul\":357:474   */\n      pop\n        /* \"#utility.yul\":152:481   */\n      swap3\n      swap2\n      pop\n      pop\n      jump\t// out\n        /* \"#utility.yul\":487:605   */\n    tag_64:\n        /* \"#utility.yul\":574:598   */\n      tag_66\n        /* \"#utility.yul\":592:597   */\n      dup2\n        /* \"#utility.yul\":574:598   */\n      tag_67\n      jump\t// in\n    tag_66:\n        /* \"#utility.yul\":569:572   */\n      dup3\n        /* \"#utility.yul\":562:599   */\n      mstore\n        /* \"#utility.yul\":487:605   */\n      pop\n      pop\n      jump\t// out\n        /* \"#utility.yul\":611:720   */\n    tag_68:\n        /* \"#utility.yul\":692:713   */\n      tag_70\n        /* \"#utility.yul\":707:712   */\n      dup2\n        /* \"#utility.yul\":692:713   */\n      tag_71\n      jump\t// in\n    tag_70:\n        /* \"#utility.yul\":687:690   */\n      dup3\n        /* \"#utility.yul\":680:714   */\n      mstore\n        /* \"#utility.yul\":611:720   */\n      pop\n      pop\n      jump\t// out\n        /* \"#utility.yul\":726:844   */\n    tag_72:\n        /* \"#utility.yul\":813:837   */\n      tag_74\n        /* \"#utility.yul\":831:836   */\n      dup2\n        /* \"#utility.yul\":813:837   */\n      tag_75\n      jump\t// in\n    tag_74:\n        /* \"#utility.yul\":808:811   */\n      dup3\n        /* \"#utility.yul\":801:838   */\n      mstore\n        /* \"#utility.yul\":726:844   */\n      pop\n      pop\n      jump\t// out\n        /* \"#utility.yul\":850:968   */\n    tag_76:\n        /* \"#utility.yul\":937:961   */\n      tag_78\n        /* \"#utility.yul\":955:960   */\n      dup2\n        /* \"#utility.yul\":937:961   */\n      tag_79\n      jump\t// in\n    tag_78:\n        /* \"#utility.yul\":932:935   */\n      dup3\n        /* \"#utility.yul\":925:962   */\n      mstore\n        /* \"#utility.yul\":850:968   */\n      pop\n      pop\n      jump\t// out\n        /* \"#utility.yul\":974:1086   */\n    tag_80:\n        /* \"#utility.yul\":1057:1079   */\n      tag_82\n        /* \"#utility.yul\":1073:1078   */\n      dup2\n        /* \"#utility.yul\":1057:1079   */\n      tag_83\n      jump\t// in\n    tag_82:\n        /* \"#utility.yul\":1052:1055   */\n      dup3\n        /* \"#utility.yul\":1045:1080   */\n      mstore\n        /* \"#utility.yul\":974:1086   */\n      pop\n      pop\n      jump\t// out\n        /* \"#utility.yul\":1092:1314   */\n    tag_41:\n        /* \"#utility.yul\":1185:1189   */\n      0x00\n        /* \"#utility.yul\":1223:1225   */\n      0x20\n        /* \"#utility.yul\":1212:1221   */\n      dup3\n        /* \"#utility.yul\":1208:1226   */\n      add\n        /* \"#utility.yul\":1200:1226   */\n      swap1\n      pop\n        /* \"#utility.yul\":1236:1307   */\n      tag_85\n        /* \"#utility.yul\":1304:1305   */\n      0x00\n        /* \"#utility.yul\":1293:1302   */\n      dup4\n        /* \"#utility.yul\":1289:1306   */\n      add\n        /* \"#utility.yul\":1280:1286   */\n      dup5\n        /* \"#utility.yul\":1236:1307   */\n      tag_64\n      jump\t// in\n    tag_85:\n        /* \"#utility.yul\":1092:1314   */\n      swap3\n      swap2\n      pop\n      pop\n      jump\t// out\n        /* \"#utility.yul\":1320:1742   */\n    tag_34:\n        /* \"#utility.yul\":1459:1463   */\n      0x00\n        /* \"#utility.yul\":1497:1499   */\n      0x60\n        /* \"#utility.yul\":1486:1495   */\n      dup3\n        /* \"#utility.yul\":1482:1500   */\n      add\n        /* \"#utility.yul\":1474:1500   */\n      swap1\n      pop\n        /* \"#utility.yul\":1510:1575   */\n      tag_87\n        /* \"#utility.yul\":1572:1573   */\n      0x00\n        /* \"#utility.yul\":1561:1570   */\n      dup4\n        /* \"#utility.yul\":1557:1574   */\n      add\n        /* \"#utility.yul\":1548:1554   */\n      dup7\n        /* \"#utility.yul\":1510:1575   */\n      tag_68\n      jump\t// in\n    tag_87:\n        /* \"#utility.yul\":1585:1653   */\n      tag_88\n        /* \"#utility.yul\":1649:1651   */\n      0x20\n        /* \"#utility.yul\":1638:1647   */\n      dup4\n        /* \"#utility.yul\":1634:1652   */\n      add\n        /* \"#utility.yul\":1625:1631   */\n      dup6\n        /* \"#utility.yul\":1585:1653   */\n      tag_80\n      jump\t// in\n    tag_88:\n        /* \"#utility.yul\":1663:1735   */\n      tag_89\n        /* \"#utility.yul\":1731:1733   */\n      0x40\n        /* \"#utility.yul\":1720:1729   */\n      dup4\n        /* \"#utility.yul\":1716:1734   */\n      add\n        /* \"#utility.yul\":1707:1713   */\n      dup5\n        /* \"#utility.yul\":1663:1735   */\n      tag_72\n      jump\t// in\n    tag_89:\n        /* \"#utility.yul\":1320:1742   */\n      swap5\n      swap4\n      pop\n      pop\n      pop\n      pop\n      jump\t// out\n        /* \"#utility.yul\":1748:1970   */\n    tag_18:\n        /* \"#utility.yul\":1841:1845   */\n      0x00\n        /* \"#utility.yul\":1879:1881   */\n      0x20\n        /* \"#utility.yul\":1868:1877   */\n      dup3\n        /* \"#utility.yul\":1864:1882   */\n      add\n        /* \"#utility.yul\":1856:1882   */\n      swap1\n      pop\n        /* \"#utility.yul\":1892:1963   */\n      tag_91\n        /* \"#utility.yul\":1960:1961   */\n      0x00\n        /* \"#utility.yul\":1949:1958   */\n      dup4\n        /* \"#utility.yul\":1945:1962   */\n      add\n        /* \"#utility.yul\":1936:1942   */\n      dup5\n        /* \"#utility.yul\":1892:1963   */\n      tag_76\n      jump\t// in\n    tag_91:\n        /* \"#utility.yul\":1748:1970   */\n      swap3\n      swap2\n      pop\n      pop\n      jump\t// out\n        /* \"#utility.yul\":1976:2190   */\n    tag_28:\n        /* \"#utility.yul\":2065:2069   */\n      0x00\n        /* \"#utility.yul\":2103:2105   */\n      0x20\n        /* \"#utility.yul\":2092:2101   */\n      dup3\n        /* \"#utility.yul\":2088:2106   */\n      add\n        /* \"#utility.yul\":2080:2106   */\n      swap1\n      pop\n        /* \"#utility.yul\":2116:2183   */\n      tag_93\n        /* \"#utility.yul\":2180:2181   */\n      0x00\n        /* \"#utility.yul\":2169:2178   */\n      dup4\n        /* \"#utility.yul\":2165:2182   */\n      add\n        /* \"#utility.yul\":2156:2162   */\n      dup5\n        /* \"#utility.yul\":2116:2183   */\n      tag_80\n      jump\t// in\n    tag_93:\n        /* \"#utility.yul\":1976:2190   */\n      swap3\n      swap2\n      pop\n      pop\n      jump\t// out\n        /* \"#utility.yul\":2277:2373   */\n    tag_67:\n        /* \"#utility.yul\":2314:2321   */\n      0x00\n        /* \"#utility.yul\":2343:2367   */\n      tag_97\n        /* \"#utility.yul\":2361:2366   */\n      dup3\n        /* \"#utility.yul\":2343:2367   */\n      tag_98\n      jump\t// in\n    tag_97:\n        /* \"#utility.yul\":2332:2367   */\n      swap1\n      pop\n        /* \"#utility.yul\":2277:2373   */\n      swap2\n      swap1\n      pop\n      jump\t// out\n        /* \"#utility.yul\":2379:2469   */\n    tag_71:\n        /* \"#utility.yul\":2413:2420   */\n      0x00\n        /* \"#utility.yul\":2456:2461   */\n      dup2\n        /* \"#utility.yul\":2449:2462   */\n      iszero\n        /* \"#utility.yul\":2442:2463   */\n      iszero\n        /* \"#utility.yul\":2431:2463   */\n      swap1\n      pop\n        /* \"#utility.yul\":2379:2469   */\n      swap2\n      swap1\n      pop\n      jump\t// out\n        /* \"#utility.yul\":2475:2552   */\n    tag_75:\n        /* \"#utility.yul\":2512:2519   */\n      0x00\n        /* \"#utility.yul\":2541:2546   */\n      dup2\n        /* \"#utility.yul\":2530:2546   */\n      swap1\n      pop\n        /* \"#utility.yul\":2475:2552   */\n      swap2\n      swap1\n      pop\n      jump\t// out\n        /* \"#utility.yul\":2558:2684   */\n    tag_98:\n        /* \"#utility.yul\":2595:2602   */\n      0x00\n        /* \"#utility.yul\":2635:2677   */\n      0xffffffffffffffffffffffffffffffffffffffff\n        /* \"#utility.yul\":2628:2633   */\n      dup3\n        /* \"#utility.yul\":2624:2678   */\n      and\n        /* \"#utility.yul\":2613:2678   */\n      swap1\n      pop\n        /* \"#utility.yul\":2558:2684   */\n      swap2\n      swap1\n      pop\n      jump\t// out\n        /* \"#utility.yul\":2690:2767   */\n    tag_79:\n        /* \"#utility.yul\":2727:2734   */\n      0x00\n        /* \"#utility.yul\":2756:2761   */\n      dup2\n        /* \"#utility.yul\":2745:2761   */\n      swap1\n      pop\n        /* \"#utility.yul\":2690:2767   */\n      swap2\n      swap1\n      pop\n      jump\t// out\n        /* \"#utility.yul\":2773:2859   */\n    tag_83:\n        /* \"#utility.yul\":2808:2815   */\n      0x00\n        /* \"#utility.yul\":2848:2852   */\n      0xff\n        /* \"#utility.yul\":2841:2846   */\n      dup3\n        /* \"#utility.yul\":2837:2853   */\n      and\n        /* \"#utility.yul\":2826:2853   */\n      swap1\n      pop\n        /* \"#utility.yul\":2773:2859   */\n      swap2\n      swap1\n      pop\n      jump\t// out\n        /* \"#utility.yul\":2988:3105   */\n    tag_62:\n        /* \"#utility.yul\":3097:3098   */\n      0x00\n        /* \"#utility.yul\":3094:3095   */\n      dup1\n        /* \"#utility.yul\":3087:3099   */\n      revert\n        /* \"#utility.yul\":3111:3233   */\n    tag_58:\n        /* \"#utility.yul\":3184:3208   */\n      tag_108\n        /* \"#utility.yul\":3202:3207   */\n      dup2\n        /* \"#utility.yul\":3184:3208   */\n      tag_67\n      jump\t// in\n    tag_108:\n        /* \"#utility.yul\":3177:3182   */\n      dup2\n        /* \"#utility.yul\":3174:3209   */\n      eq\n        /* \"#utility.yul\":3164:3227   */\n      tag_109\n      jumpi\n        /* \"#utility.yul\":3223:3224   */\n      0x00\n        /* \"#utility.yul\":3220:3221   */\n      dup1\n        /* \"#utility.yul\":3213:3225   */\n      revert\n        /* \"#utility.yul\":3164:3227   */\n    tag_109:\n        /* \"#utility.yul\":3111:3233   */\n      pop\n      jump\t// out\n\n    auxdata: 0xa2646970667358221220937d4cb5d9fbbc977d23030488612892b883cebe81293b4c69d2bc3081e26b4a64736f6c63430008070033\n}\n",
				"bytecode": {
					"linkReferences": {},
					"object": "608060405260016000806101000a81548160ff02191690831515021790555060008060016101000a81548160ff0219169083151502179055507ffffffffffffffffffffffffffffffffffffffffffffffffffffffffffffffff86001557ffffffffffffffffffffffffffffffffffffffffffffffffffffffffffffffff8600260006101000a81548160ff021916908360000b60ff1602179055507ffffffffffffffffffffffffffffffffffffffffffffffffffffffffffffffff8600260016101000a81548161ffff021916908360010b61ffff16021790555060086003556008600460006101000a81548160ff021916908360ff1602179055506008600460016101000a81548163ffffffff021916908363ffffffff16021790555030600460056101000a81548173ffffffffffffffffffffffffffffffffffffffff021916908373ffffffffffffffffffffffffffffffffffffffff16021790555033600560006101000a81548173ffffffffffffffffffffffffffffffffffffffff021916908373ffffffffffffffffffffffffffffffffffffffff160217905550600460059054906101000a900473ffffffffffffffffffffffffffffffffffffffff1673ffffffffffffffffffffffffffffffffffffffff1631600655600560009054906101000a900473ffffffffffffffffffffffffffffffffffffffff1673ffffffffffffffffffffffffffffffffffffffff16316007557f3900000000000000000000000000000000000000000000000000000000000000600860006101000a81548160ff021916908360f81c02179055507f3930000000000000000000000000000000000000000000000000000000000000600860016101000a81548161ffff021916908360f01c02179055507f48656c6c6f20576f726c64000000000000000000000000000000000000000000600955600860009054906101000a905050600160ff16600a55600860019054906101000a905050600260ff16600b556040518060600160405280600115158152602001602760ff1681526020017f4573746865720000000000000000000000000000000000000000000000000000815250600c60008201518160000160006101000a81548160ff02191690831515021790555060208201518160000160016101000a81548160ff021916908360ff1602179055506040820151816001015550506040518060600160405280600015158152602001602760ff1681526020017f4a756c6961000000000000000000000000000000000000000000000000000000815250600e60008201518160000160006101000a81548160ff02191690831515021790555060208201518160000160016101000a81548160ff021916908360ff160217905550604082015181600101555050600c60000160019054906101000a900460ff16601060006101000a81548160ff021916908360ff16021790555034801561043b57600080fd5b506104e38061044b6000396000f3fe608060405234801561001057600080fd5b50600436106100a95760003560e01c8063648b645011610071578063648b6450146101585780636c30c1c71461017657806381d01ed31461019457806392ed4873146101b4578063b704ed74146101be578063c2a2747b146101dc576100a9565b80631bc66815146100ae578063379937a0146100cc5780634de1a1b8146100ea5780635cfd4af514610108578063645c71f014610126575b600080fd5b6100b66101fc565b6040516100c391906103fc565b60405180910390f35b6100d4610202565b6040516100e191906103fc565b60405180910390f35b6100f2610208565b6040516100ff91906103fc565b60405180910390f35b61011061020e565b60405161011d9190610417565b60405180910390f35b610140600480360381019061013b9190610332565b610221565b60405161014f939291906103c5565b60405180910390f35b610160610265565b60405161016d91906103fc565b60405180910390f35b61017e61026b565b60405161018b91906103aa565b60405180910390f35b61019c610291565b6040516101ab939291906103c5565b60405180910390f35b6101bc6102c3565b005b6101c66102c5565b6040516101d391906103aa565b60405180910390f35b6101e46102eb565b6040516101f3939291906103c5565b60405180910390f35b600a5481565b600b5481565b60075481565b601060009054906101000a900460ff1681565b60116020528060005260406000206000915090508060000160009054906101000a900460ff16908060000160019054906101000a900460ff16908060010154905083565b60065481565b600560009054906101000a900473ffffffffffffffffffffffffffffffffffffffff1681565b600e8060000160009054906101000a900460ff16908060000160019054906101000a900460ff16908060010154905083565b565b600460059054906101000a900473ffffffffffffffffffffffffffffffffffffffff1681565b600c8060000160009054906101000a900460ff16908060000160019054906101000a900460ff16908060010154905083565b60008135905061032c81610496565b92915050565b60006020828403121561034857610347610491565b5b60006103568482850161031d565b91505092915050565b61036881610432565b82525050565b61037781610444565b82525050565b61038681610450565b82525050565b6103958161047a565b82525050565b6103a481610484565b82525050565b60006020820190506103bf600083018461035f565b92915050565b60006060820190506103da600083018661036e565b6103e7602083018561039b565b6103f4604083018461037d565b949350505050565b6000602082019050610411600083018461038c565b92915050565b600060208201905061042c600083018461039b565b92915050565b600061043d8261045a565b9050919050565b60008115159050919050565b6000819050919050565b600073ffffffffffffffffffffffffffffffffffffffff82169050919050565b6000819050919050565b600060ff82169050919050565b600080fd5b61049f81610432565b81146104aa57600080fd5b5056fea2646970667358221220937d4cb5d9fbbc977d23030488612892b883cebe81293b4c69d2bc3081e26b4a64736f6c63430008070033",
					"opcodes": "PUSH1 0x80 PUSH1 0x40 MSTORE PUSH1 0x1 PUSH1 0x0 DUP1 PUSH2 0x100 EXP DUP2 SLOAD DUP2 PUSH1 0xFF MUL NOT AND SWAP1 DUP4 ISZERO ISZERO MUL OR SWAP1 SSTORE POP PUSH1 0x0 DUP1 PUSH1 0x1 PUSH2 0x100 EXP DUP2 SLOAD DUP2 PUSH1 0xFF MUL NOT AND SWAP1 DUP4 ISZERO ISZERO MUL OR SWAP1 SSTORE POP PUSH32 0xFFFFFFFFFFFFFFFFFFFFFFFFFFFFFFFFFFFFFFFFFFFFFFFFFFFFFFFFFFFFFFF8 PUSH1 0x1 SSTORE PUSH32 0xFFFFFFFFFFFFFFFFFFFFFFFFFFFFFFFFFFFFFFFFFFFFFFFFFFFFFFFFFFFFFFF8 PUSH1 0x2 PUSH1 0x0 PUSH2 0x100 EXP DUP2 SLOAD DUP2 PUSH1 0xFF MUL NOT AND SWAP1 DUP4 PUSH1 0x0 SIGNEXTEND PUSH1 0xFF AND MUL OR SWAP1 SSTORE POP PUSH32 0xFFFFFFFFFFFFFFFFFFFFFFFFFFFFFFFFFFFFFFFFFFFFFFFFFFFFFFFFFFFFFFF8 PUSH1 0x2 PUSH1 0x1 PUSH2 0x100 EXP DUP2 SLOAD DUP2 PUSH2 0xFFFF MUL NOT AND SWAP1 DUP4 PUSH1 0x1 SIGNEXTEND PUSH2 0xFFFF AND MUL OR SWAP1 SSTORE POP PUSH1 0x8 PUSH1 0x3 SSTORE PUSH1 0x8 PUSH1 0x4 PUSH1 0x0 PUSH2 0x100 EXP DUP2 SLOAD DUP2 PUSH1 0xFF MUL NOT AND SWAP1 DUP4 PUSH1 0xFF AND MUL OR SWAP1 SSTORE POP PUSH1 0x8 PUSH1 0x4 PUSH1 0x1 PUSH2 0x100 EXP DUP2 SLOAD DUP2 PUSH4 0xFFFFFFFF MUL NOT AND SWAP1 DUP4 PUSH4 0xFFFFFFFF AND MUL OR SWAP1 SSTORE POP ADDRESS PUSH1 0x4 PUSH1 0x5 PUSH2 0x100 EXP DUP2 SLOAD DUP2 PUSH20 0xFFFFFFFFFFFFFFFFFFFFFFFFFFFFFFFFFFFFFFFF MUL NOT AND SWAP1 DUP4 PUSH20 0xFFFFFFFFFFFFFFFFFFFFFFFFFFFFFFFFFFFFFFFF AND MUL OR SWAP1 SSTORE POP CALLER PUSH1 0x5 PUSH1 0x0 PUSH2 0x100 EXP DUP2 SLOAD DUP2 PUSH20 0xFFFFFFFFFFFFFFFFFFFFFFFFFFFFFFFFFFFFFFFF MUL NOT AND SWAP1 DUP4 PUSH20 0xFFFFFFFFFFFFFFFFFFFFFFFFFFFFFFFFFFFFFFFF AND MUL OR SWAP1 SSTORE POP PUSH1 0x4 PUSH1 0x5 SWAP1 SLOAD SWAP1 PUSH2 0x100 EXP SWAP1 DIV PUSH20 0xFFFFFFFFFFFFFFFFFFFFFFFFFFFFFFFFFFFFFFFF AND PUSH20 0xFFFFFFFFFFFFFFFFFFFFFFFFFFFFFFFFFFFFFFFF AND BALANCE PUSH1 0x6 SSTORE PUSH1 0x5 PUSH1 0x0 SWAP1 SLOAD SWAP1 PUSH2 0x100 EXP SWAP1 DIV PUSH20 0xFFFFFFFFFFFFFFFFFFFFFFFFFFFFFFFFFFFFFFFF AND PUSH20 0xFFFFFFFFFFFFFFFFFFFFFFFFFFFFFFFFFFFFFFFF AND BALANCE PUSH1 0x7 SSTORE PUSH32 0x3900000000000000000000000000000000000000000000000000000000000000 PUSH1 0x8 PUSH1 0x0 PUSH2 0x100 EXP DUP2 SLOAD DUP2 PUSH1 0xFF MUL NOT AND SWAP1 DUP4 PUSH1 0xF8 SHR MUL OR SWAP1 SSTORE POP PUSH32 0x3930000000000000000000000000000000000000000000000000000000000000 PUSH1 0x8 PUSH1 0x1 PUSH2 0x100 EXP DUP2 SLOAD DUP2 PUSH2 0xFFFF MUL NOT AND SWAP1 DUP4 PUSH1 0xF0 SHR MUL OR SWAP1 SSTORE POP PUSH32 0x48656C6C6F20576F726C64000000000000000000000000000000000000000000 PUSH1 0x9 SSTORE PUSH1 0x8 PUSH1 0x0 SWAP1 SLOAD SWAP1 PUSH2 0x100 EXP SWAP1 POP POP PUSH1 0x1 PUSH1 0xFF AND PUSH1 0xA SSTORE PUSH1 0x8 PUSH1 0x1 SWAP1 SLOAD SWAP1 PUSH2 0x100 EXP SWAP1 POP POP PUSH1 0x2 PUSH1 0xFF AND PUSH1 0xB SSTORE PUSH1 0x40 MLOAD DUP1 PUSH1 0x60 ADD PUSH1 0x40 MSTORE DUP1 PUSH1 0x1 ISZERO ISZERO DUP2 MSTORE PUSH1 0x20 ADD PUSH1 0x27 PUSH1 0xFF AND DUP2 MSTORE PUSH1 0x20 ADD PUSH32 0x4573746865720000000000000000000000000000000000000000000000000000 DUP2 MSTORE POP PUSH1 0xC PUSH1 0x0 DUP3 ADD MLOAD DUP2 PUSH1 0x0 ADD PUSH1 0x0 PUSH2 0x100 EXP DUP2 SLOAD DUP2 PUSH1 0xFF MUL NOT AND SWAP1 DUP4 ISZERO ISZERO MUL OR SWAP1 SSTORE POP PUSH1 0x20 DUP3 ADD MLOAD DUP2 PUSH1 0x0 ADD PUSH1 0x1 PUSH2 0x100 EXP DUP2 SLOAD DUP2 PUSH1 0xFF MUL NOT AND SWAP1 DUP4 PUSH1 0xFF AND MUL OR SWAP1 SSTORE POP PUSH1 0x40 DUP3 ADD MLOAD DUP2 PUSH1 0x1 ADD SSTORE POP POP PUSH1 0x40 MLOAD DUP1 PUSH1 0x60 ADD PUSH1 0x40 MSTORE DUP1 PUSH1 0x0 ISZERO ISZERO DUP2 MSTORE PUSH1 0x20 ADD PUSH1 0x27 PUSH1 0xFF AND DUP2 MSTORE PUSH1 0x20 ADD PUSH32 0x4A756C6961000000000000000000000000000000000000000000000000000000 DUP2 MSTORE POP PUSH1 0xE PUSH1 0x0 DUP3 ADD MLOAD DUP2 PUSH1 0x0 ADD PUSH1 0x0 PUSH2 0x100 EXP DUP2 SLOAD DUP2 PUSH1 0xFF MUL NOT AND SWAP1 DUP4 ISZERO ISZERO MUL OR SWAP1 SSTORE POP PUSH1 0x20 DUP3 ADD MLOAD DUP2 PUSH1 0x0 ADD PUSH1 0x1 PUSH2 0x100 EXP DUP2 SLOAD DUP2 PUSH1 0xFF MUL NOT AND SWAP1 DUP4 PUSH1 0xFF AND MUL OR SWAP1 SSTORE POP PUSH1 0x40 DUP3 ADD MLOAD DUP2 PUSH1 0x1 ADD SSTORE POP POP PUSH1 0xC PUSH1 0x0 ADD PUSH1 0x1 SWAP1 SLOAD SWAP1 PUSH2 0x100 EXP SWAP1 DIV PUSH1 0xFF AND PUSH1 0x10 PUSH1 0x0 PUSH2 0x100 EXP DUP2 SLOAD DUP2 PUSH1 0xFF MUL NOT AND SWAP1 DUP4 PUSH1 0xFF AND MUL OR SWAP1 SSTORE POP CALLVALUE DUP1 ISZERO PUSH2 0x43B JUMPI PUSH1 0x0 DUP1 REVERT JUMPDEST POP PUSH2 0x4E3 DUP1 PUSH2 0x44B PUSH1 0x0 CODECOPY PUSH1 0x0 RETURN INVALID PUSH1 0x80 PUSH1 0x40 MSTORE CALLVALUE DUP1 ISZERO PUSH2 0x10 JUMPI PUSH1 0x0 DUP1 REVERT JUMPDEST POP PUSH1 0x4 CALLDATASIZE LT PUSH2 0xA9 JUMPI PUSH1 0x0 CALLDATALOAD PUSH1 0xE0 SHR DUP1 PUSH4 0x648B6450 GT PUSH2 0x71 JUMPI DUP1 PUSH4 0x648B6450 EQ PUSH2 0x158 JUMPI DUP1 PUSH4 0x6C30C1C7 EQ PUSH2 0x176 JUMPI DUP1 PUSH4 0x81D01ED3 EQ PUSH2 0x194 JUMPI DUP1 PUSH4 0x92ED4873 EQ PUSH2 0x1B4 JUMPI DUP1 PUSH4 0xB704ED74 EQ PUSH2 0x1BE JUMPI DUP1 PUSH4 0xC2A2747B EQ PUSH2 0x1DC JUMPI PUSH2 0xA9 JUMP JUMPDEST DUP1 PUSH4 0x1BC66815 EQ PUSH2 0xAE JUMPI DUP1 PUSH4 0x379937A0 EQ PUSH2 0xCC JUMPI DUP1 PUSH4 0x4DE1A1B8 EQ PUSH2 0xEA JUMPI DUP1 PUSH4 0x5CFD4AF5 EQ PUSH2 0x108 JUMPI DUP1 PUSH4 0x645C71F0 EQ PUSH2 0x126 JUMPI JUMPDEST PUSH1 0x0 DUP1 REVERT JUMPDEST PUSH2 0xB6 PUSH2 0x1FC JUMP JUMPDEST PUSH1 0x40 MLOAD PUSH2 0xC3 SWAP2 SWAP1 PUSH2 0x3FC JUMP JUMPDEST PUSH1 0x40 MLOAD DUP1 SWAP2 SUB SWAP1 RETURN JUMPDEST PUSH2 0xD4 PUSH2 0x202 JUMP JUMPDEST PUSH1 0x40 MLOAD PUSH2 0xE1 SWAP2 SWAP1 PUSH2 0x3FC JUMP JUMPDEST PUSH1 0x40 MLOAD DUP1 SWAP2 SUB SWAP1 RETURN JUMPDEST PUSH2 0xF2 PUSH2 0x208 JUMP JUMPDEST PUSH1 0x40 MLOAD PUSH2 0xFF SWAP2 SWAP1 PUSH2 0x3FC JUMP JUMPDEST PUSH1 0x40 MLOAD DUP1 SWAP2 SUB SWAP1 RETURN JUMPDEST PUSH2 0x110 PUSH2 0x20E JUMP JUMPDEST PUSH1 0x40 MLOAD PUSH2 0x11D SWAP2 SWAP1 PUSH2 0x417 JUMP JUMPDEST PUSH1 0x40 MLOAD DUP1 SWAP2 SUB SWAP1 RETURN JUMPDEST PUSH2 0x140 PUSH1 0x4 DUP1 CALLDATASIZE SUB DUP2 ADD SWAP1 PUSH2 0x13B SWAP2 SWAP1 PUSH2 0x332 JUMP JUMPDEST PUSH2 0x221 JUMP JUMPDEST PUSH1 0x40 MLOAD PUSH2 0x14F SWAP4 SWAP3 SWAP2 SWAP1 PUSH2 0x3C5 JUMP JUMPDEST PUSH1 0x40 MLOAD DUP1 SWAP2 SUB SWAP1 RETURN JUMPDEST PUSH2 0x160 PUSH2 0x265 JUMP JUMPDEST PUSH1 0x40 MLOAD PUSH2 0x16D SWAP2 SWAP1 PUSH2 0x3FC JUMP JUMPDEST PUSH1 0x40 MLOAD DUP1 SWAP2 SUB SWAP1 RETURN JUMPDEST PUSH2 0x17E PUSH2 0x26B JUMP JUMPDEST PUSH1 0x40 MLOAD PUSH2 0x18B SWAP2 SWAP1 PUSH2 0x3AA JUMP JUMPDEST PUSH1 0x40 MLOAD DUP1 SWAP2 SUB SWAP1 RETURN JUMPDEST PUSH2 0x19C PUSH2 0x291 JUMP JUMPDEST PUSH1 0x40 MLOAD PUSH2 0x1AB SWAP4 SWAP3 SWAP2 SWAP1 PUSH2 0x3C5 JUMP JUMPDEST PUSH1 0x40 MLOAD DUP1 SWAP2 SUB SWAP1 RETURN JUMPDEST PUSH2 0x1BC PUSH2 0x2C3 JUMP JUMPDEST STOP JUMPDEST PUSH2 0x1C6 PUSH2 0x2C5 JUMP JUMPDEST PUSH1 0x40 MLOAD PUSH2 0x1D3 SWAP2 SWAP1 PUSH2 0x3AA JUMP JUMPDEST PUSH1 0x40 MLOAD DUP1 SWAP2 SUB SWAP1 RETURN JUMPDEST PUSH2 0x1E4 PUSH2 0x2EB JUMP JUMPDEST PUSH1 0x40 MLOAD PUSH2 0x1F3 SWAP4 SWAP3 SWAP2 SWAP1 PUSH2 0x3C5 JUMP JUMPDEST PUSH1 0x40 MLOAD DUP1 SWAP2 SUB SWAP1 RETURN JUMPDEST PUSH1 0xA SLOAD DUP2 JUMP JUMPDEST PUSH1 0xB SLOAD DUP2 JUMP JUMPDEST PUSH1 0x7 SLOAD DUP2 JUMP JUMPDEST PUSH1 0x10 PUSH1 0x0 SWAP1 SLOAD SWAP1 PUSH2 0x100 EXP SWAP1 DIV PUSH1 0xFF AND DUP2 JUMP JUMPDEST PUSH1 0x11 PUSH1 0x20 MSTORE DUP1 PUSH1 0x0 MSTORE PUSH1 0x40 PUSH1 0x0 KECCAK256 PUSH1 0x0 SWAP2 POP SWAP1 POP DUP1 PUSH1 0x0 ADD PUSH1 0x0 SWAP1 SLOAD SWAP1 PUSH2 0x100 EXP SWAP1 DIV PUSH1 0xFF AND SWAP1 DUP1 PUSH1 0x0 ADD PUSH1 0x1 SWAP1 SLOAD SWAP1 PUSH2 0x100 EXP SWAP1 DIV PUSH1 0xFF AND SWAP1 DUP1 PUSH1 0x1 ADD SLOAD SWAP1 POP DUP4 JUMP JUMPDEST PUSH1 0x6 SLOAD DUP2 JUMP JUMPDEST PUSH1 0x5 PUSH1 0x0 SWAP1 SLOAD SWAP1 PUSH2 0x100 EXP SWAP1 DIV PUSH20 0xFFFFFFFFFFFFFFFFFFFFFFFFFFFFFFFFFFFFFFFF AND DUP2 JUMP JUMPDEST PUSH1 0xE DUP1 PUSH1 0x0 ADD PUSH1 0x0 SWAP1 SLOAD SWAP1 PUSH2 0x100 EXP SWAP1 DIV PUSH1 0xFF AND SWAP1 DUP1 PUSH1 0x0 ADD PUSH1 0x1 SWAP1 SLOAD SWAP1 PUSH2 0x100 EXP SWAP1 DIV PUSH1 0xFF AND SWAP1 DUP1 PUSH1 0x1 ADD SLOAD SWAP1 POP DUP4 JUMP JUMPDEST JUMP JUMPDEST PUSH1 0x4 PUSH1 0x5 SWAP1 SLOAD SWAP1 PUSH2 0x100 EXP SWAP1 DIV PUSH20 0xFFFFFFFFFFFFFFFFFFFFFFFFFFFFFFFFFFFFFFFF AND DUP2 JUMP JUMPDEST PUSH1 0xC DUP1 PUSH1 0x0 ADD PUSH1 0x0 SWAP1 SLOAD SWAP1 PUSH2 0x100 EXP SWAP1 DIV PUSH1 0xFF AND SWAP1 DUP1 PUSH1 0x0 ADD PUSH1 0x1 SWAP1 SLOAD SWAP1 PUSH2 0x100 EXP SWAP1 DIV PUSH1 0xFF AND SWAP1 DUP1 PUSH1 0x1 ADD SLOAD SWAP1 POP DUP4 JUMP JUMPDEST PUSH1 0x0 DUP2 CALLDATALOAD SWAP1 POP PUSH2 0x32C DUP2 PUSH2 0x496 JUMP JUMPDEST SWAP3 SWAP2 POP POP JUMP JUMPDEST PUSH1 0x0 PUSH1 0x20 DUP3 DUP5 SUB SLT ISZERO PUSH2 0x348 JUMPI PUSH2 0x347 PUSH2 0x491 JUMP JUMPDEST JUMPDEST PUSH1 0x0 PUSH2 0x356 DUP5 DUP3 DUP6 ADD PUSH2 0x31D JUMP JUMPDEST SWAP2 POP POP SWAP3 SWAP2 POP POP JUMP JUMPDEST PUSH2 0x368 DUP2 PUSH2 0x432 JUMP JUMPDEST DUP3 MSTORE POP POP JUMP JUMPDEST PUSH2 0x377 DUP2 PUSH2 0x444 JUMP JUMPDEST DUP3 MSTORE POP POP JUMP JUMPDEST PUSH2 0x386 DUP2 PUSH2 0x450 JUMP JUMPDEST DUP3 MSTORE POP POP JUMP JUMPDEST PUSH2 0x395 DUP2 PUSH2 0x47A JUMP JUMPDEST DUP3 MSTORE POP POP JUMP JUMPDEST PUSH2 0x3A4 DUP2 PUSH2 0x484 JUMP JUMPDEST DUP3 MSTORE POP POP JUMP JUMPDEST PUSH1 0x0 PUSH1 0x20 DUP3 ADD SWAP1 POP PUSH2 0x3BF PUSH1 0x0 DUP4 ADD DUP5 PUSH2 0x35F JUMP JUMPDEST SWAP3 SWAP2 POP POP JUMP JUMPDEST PUSH1 0x0 PUSH1 0x60 DUP3 ADD SWAP1 POP PUSH2 0x3DA PUSH1 0x0 DUP4 ADD DUP7 PUSH2 0x36E JUMP JUMPDEST PUSH2 0x3E7 PUSH1 0x20 DUP4 ADD DUP6 PUSH2 0x39B JUMP JUMPDEST PUSH2 0x3F4 PUSH1 0x40 DUP4 ADD DUP5 PUSH2 0x37D JUMP JUMPDEST SWAP5 SWAP4 POP POP POP POP JUMP JUMPDEST PUSH1 0x0 PUSH1 0x20 DUP3 ADD SWAP1 POP PUSH2 0x411 PUSH1 0x0 DUP4 ADD DUP5 PUSH2 0x38C JUMP JUMPDEST SWAP3 SWAP2 POP POP JUMP JUMPDEST PUSH1 0x0 PUSH1 0x20 DUP3 ADD SWAP1 POP PUSH2 0x42C PUSH1 0x0 DUP4 ADD DUP5 PUSH2 0x39B JUMP JUMPDEST SWAP3 SWAP2 POP POP JUMP JUMPDEST PUSH1 0x0 PUSH2 0x43D DUP3 PUSH2 0x45A JUMP JUMPDEST SWAP1 POP SWAP2 SWAP1 POP JUMP JUMPDEST PUSH1 0x0 DUP2 ISZERO ISZERO SWAP1 POP SWAP2 SWAP1 POP JUMP JUMPDEST PUSH1 0x0 DUP2 SWAP1 POP SWAP2 SWAP1 POP JUMP JUMPDEST PUSH1 0x0 PUSH20 0xFFFFFFFFFFFFFFFFFFFFFFFFFFFFFFFFFFFFFFFF DUP3 AND SWAP1 POP SWAP2 SWAP1 POP JUMP JUMPDEST PUSH1 0x0 DUP2 SWAP1 POP SWAP2 SWAP1 POP JUMP JUMPDEST PUSH1 0x0 PUSH1 0xFF DUP3 AND SWAP1 POP SWAP2 SWAP1 POP JUMP JUMPDEST PUSH1 0x0 DUP1 REVERT JUMPDEST PUSH2 0x49F DUP2 PUSH2 0x432 JUMP JUMPDEST DUP2 EQ PUSH2 0x4AA JUMPI PUSH1 0x0 DUP1 REVERT JUMPDEST POP JUMP INVALID LOG2 PUSH5 0x6970667358 0x22 SLT KECCAK256 SWAP4 PUSH30 0x4CB5D9FBBC977D23030488612892B883CEBE81293B4C69D2BC3081E26B4A PUSH5 0x736F6C6343 STOP ADDMOD SMOD STOP CALLER "
				},
				"gasEstimates": {
					"creation": {
						"codeDepositCost": "250200",
						"executionCost": "579927",
						"totalCost": "830127"
					},
					"external": {
						"addPersonas()": "210",
						"addressAccount()": "2652",
						"addressExternally()": "2536",
						"balanceAddressAccount()": "2429",
						"balanceAddressExternally()": "2474",
						"diccPersonas(address)": "7475",
						"getEdad()": "2538",
						"lenghtData1()": "2430",
						"lenghtData2()": "2452",
						"p1()": "7111",
						"p2()": "7045"
					}
				},
				"methodIdentifiers": {
					"addPersonas()": "92ed4873",
					"addressAccount()": "b704ed74",
					"addressExternally()": "6c30c1c7",
					"balanceAddressAccount()": "648b6450",
					"balanceAddressExternally()": "4de1a1b8",
					"diccPersonas(address)": "645c71f0",
					"getEdad()": "5cfd4af5",
					"lenghtData1()": "1bc66815",
					"lenghtData2()": "379937a0",
					"p1()": "c2a2747b",
					"p2()": "81d01ed3"
				}
			},
			"storageLayout": {
				"storage": [
					{
						"astId": 4,
						"contract": "dataTypesValor.sol:dataTypeValor",
						"label": "flagVerdadero",
						"offset": 0,
						"slot": "0",
						"type": "t_bool"
					},
					{
						"astId": 7,
						"contract": "dataTypesValor.sol:dataTypeValor",
						"label": "flagFalse",
						"offset": 1,
						"slot": "0",
						"type": "t_bool"
					},
					{
						"astId": 11,
						"contract": "dataTypesValor.sol:dataTypeValor",
						"label": "number1",
						"offset": 0,
						"slot": "1",
						"type": "t_int256"
					},
					{
						"astId": 15,
						"contract": "dataTypesValor.sol:dataTypeValor",
						"label": "number2",
						"offset": 0,
						"slot": "2",
						"type": "t_int8"
					},
					{
						"astId": 19,
						"contract": "dataTypesValor.sol:dataTypeValor",
						"label": "number3",
						"offset": 1,
						"slot": "2",
						"type": "t_int16"
					},
					{
						"astId": 22,
						"contract": "dataTypesValor.sol:dataTypeValor",
						"label": "number4",
						"offset": 0,
						"slot": "3",
						"type": "t_uint256"
					},
					{
						"astId": 25,
						"contract": "dataTypesValor.sol:dataTypeValor",
						"label": "number5",
						"offset": 0,
						"slot": "4",
						"type": "t_uint8"
					},
					{
						"astId": 28,
						"contract": "dataTypesValor.sol:dataTypeValor",
						"label": "number6",
						"offset": 1,
						"slot": "4",
						"type": "t_uint32"
					},
					{
						"astId": 34,
						"contract": "dataTypesValor.sol:dataTypeValor",
						"label": "addressAccount",
						"offset": 5,
						"slot": "4",
						"type": "t_address"
					},
					{
						"astId": 38,
						"contract": "dataTypesValor.sol:dataTypeValor",
						"label": "addressExternally",
						"offset": 0,
						"slot": "5",
						"type": "t_address"
					},
					{
						"astId": 42,
						"contract": "dataTypesValor.sol:dataTypeValor",
						"label": "balanceAddressAccount",
						"offset": 0,
						"slot": "6",
						"type": "t_uint256"
					},
					{
						"astId": 46,
						"contract": "dataTypesValor.sol:dataTypeValor",
						"label": "balanceAddressExternally",
						"offset": 0,
						"slot": "7",
						"type": "t_uint256"
					},
					{
						"astId": 49,
						"contract": "dataTypesValor.sol:dataTypeValor",
						"label": "data",
						"offset": 0,
						"slot": "8",
						"type": "t_bytes1"
					},
					{
						"astId": 52,
						"contract": "dataTypesValor.sol:dataTypeValor",
						"label": "data2",
						"offset": 1,
						"slot": "8",
						"type": "t_bytes2"
					},
					{
						"astId": 55,
						"contract": "dataTypesValor.sol:dataTypeValor",
						"label": "data3",
						"offset": 0,
						"slot": "9",
						"type": "t_bytes32"
					},
					{
						"astId": 59,
						"contract": "dataTypesValor.sol:dataTypeValor",
						"label": "lenghtData1",
						"offset": 0,
						"slot": "10",
						"type": "t_uint256"
					},
					{
						"astId": 63,
						"contract": "dataTypesValor.sol:dataTypeValor",
						"label": "lenghtData2",
						"offset": 0,
						"slot": "11",
						"type": "t_uint256"
					},
					{
						"astId": 78,
						"contract": "dataTypesValor.sol:dataTypeValor",
						"label": "p1",
						"offset": 0,
						"slot": "12",
						"type": "t_struct(Persona)70_storage"
					},
					{
						"astId": 86,
						"contract": "dataTypesValor.sol:dataTypeValor",
						"label": "p2",
						"offset": 0,
						"slot": "14",
						"type": "t_struct(Persona)70_storage"
					},
					{
						"astId": 90,
						"contract": "dataTypesValor.sol:dataTypeValor",
						"label": "getEdad",
						"offset": 0,
						"slot": "16",
						"type": "t_uint8"
					},
					{
						"astId": 95,
						"contract": "dataTypesValor.sol:dataTypeValor",
						"label": "diccPersonas",
						"offset": 0,
						"slot": "17",
						"type": "t_mapping(t_address,t_struct(Persona)70_storage)"
					}
				],
				"types": {
					"t_address": {
						"encoding": "inplace",
						"label": "address",
						"numberOfBytes": "20"
					},
					"t_bool": {
						"encoding": "inplace",
						"label": "bool",
						"numberOfBytes": "1"
					},
					"t_bytes1": {
						"encoding": "inplace",
						"label": "bytes1",
						"numberOfBytes": "1"
					},
					"t_bytes2": {
						"encoding": "inplace",
						"label": "bytes2",
						"numberOfBytes": "2"
					},
					"t_bytes32": {
						"encoding": "inplace",
						"label": "bytes32",
						"numberOfBytes": "32"
					},
					"t_int16": {
						"encoding": "inplace",
						"label": "int16",
						"numberOfBytes": "2"
					},
					"t_int256": {
						"encoding": "inplace",
						"label": "int256",
						"numberOfBytes": "32"
					},
					"t_int8": {
						"encoding": "inplace",
						"label": "int8",
						"numberOfBytes": "1"
					},
					"t_mapping(t_address,t_struct(Persona)70_storage)": {
						"encoding": "mapping",
						"key": "t_address",
						"label": "mapping(address => struct dataTypeValor.Persona)",
						"numberOfBytes": "32",
						"value": "t_struct(Persona)70_storage"
					},
					"t_struct(Persona)70_storage": {
						"encoding": "inplace",
						"label": "struct dataTypeValor.Persona",
						"members": [
							{
								"astId": 65,
								"contract": "dataTypesValor.sol:dataTypeValor",
								"label": "vacunado",
								"offset": 0,
								"slot": "0",
								"type": "t_bool"
							},
							{
								"astId": 67,
								"contract": "dataTypesValor.sol:dataTypeValor",
								"label": "edad",
								"offset": 1,
								"slot": "0",
								"type": "t_uint8"
							},
							{
								"astId": 69,
								"contract": "dataTypesValor.sol:dataTypeValor",
								"label": "nombre",
								"offset": 0,
								"slot": "1",
								"type": "t_bytes32"
							}
						],
						"numberOfBytes": "64"
					},
					"t_uint256": {
						"encoding": "inplace",
						"label": "uint256",
						"numberOfBytes": "32"
					},
					"t_uint32": {
						"encoding": "inplace",
						"label": "uint32",
						"numberOfBytes": "4"
					},
					"t_uint8": {
						"encoding": "inplace",
						"label": "uint8",
						"numberOfBytes": "1"
					}
				}
			},
			"userdoc": {
				"kind": "user",
				"methods": {},
				"version": 1
			}
		}
	}
}