{
	"dataTypesValor.sol": {
		"dataTypeValor": {
			"abi": [
				{
					"inputs": [],
					"name": "addressAccount",
					"outputs": [
						{
							"internalType": "address",
							"name": "",
							"type": "address"
						}
					],
					"stateMutability": "view",
					"type": "function"
				},
				{
					"inputs": [],
					"name": "addressExternally",
					"outputs": [
						{
							"internalType": "address",
							"name": "",
							"type": "address"
						}
					],
					"stateMutability": "view",
					"type": "function"
				},
				{
					"inputs": [],
					"name": "balanceAddressAccount",
					"outputs": [
						{
							"internalType": "uint256",
							"name": "",
							"type": "uint256"
						}
					],
					"stateMutability": "view",
					"type": "function"
				},
				{
					"inputs": [],
					"name": "balanceAddressExternally",
					"outputs": [
						{
							"internalType": "uint256",
							"name": "",
							"type": "uint256"
						}
					],
					"stateMutability": "view",
					"type": "function"
				},
				{
					"inputs": [],
					"name": "lenghtData1",
					"outputs": [
						{
							"internalType": "uint256",
							"name": "",
							"type": "uint256"
						}
					],
					"stateMutability": "view",
					"type": "function"
				},
				{
					"inputs": [],
					"name": "lenghtData2",
					"outputs": [
						{
							"internalType": "uint256",
							"name": "",
							"type": "uint256"
						}
					],
					"stateMutability": "view",
					"type": "function"
				}
			],
			"devdoc": {
				"kind": "dev",
				"methods": {},
				"version": 1
			},
			"evm": {
				"assembly": "    /* \"dataTypesValor.sol\":66:1618  contract dataTypeValor{\r... */\n  mstore(0x40, 0x80)\n    /* \"dataTypesValor.sol\":134:138  true */\n  0x01\n    /* \"dataTypesValor.sol\":113:138  bool flagVerdadero = true */\n  0x00\n  dup1\n  0x0100\n  exp\n  dup2\n  sload\n  dup2\n  0xff\n  mul\n  not\n  and\n  swap1\n  dup4\n  iszero\n  iszero\n  mul\n  or\n  swap1\n  sstore\n  pop\n    /* \"dataTypesValor.sol\":162:167  false */\n  0x00\n    /* \"dataTypesValor.sol\":145:167  bool flagFalse = false */\n  dup1\n  exp(0x0100, 0x01)\n  dup2\n  sload\n  dup2\n  0xff\n  mul\n  not\n  and\n  swap1\n  dup4\n  iszero\n  iszero\n  mul\n  or\n  swap1\n  sstore\n  pop\n    /* \"dataTypesValor.sol\":290:292  -8 */\n  0xfffffffffffffffffffffffffffffffffffffffffffffffffffffffffffffff8\n    /* \"dataTypesValor.sol\":276:292  int number1 = -8 */\n  0x01\n  sstore\n    /* \"dataTypesValor.sol\":334:336  -8 */\n  0xfffffffffffffffffffffffffffffffffffffffffffffffffffffffffffffff8\n    /* \"dataTypesValor.sol\":319:336  int8 number2 = -8 */\n  0x02\n  exp(0x0100, 0x00)\n  dup2\n  sload\n  dup2\n  0xff\n  mul\n  not\n  and\n  swap1\n  dup4\n  0x00\n  signextend\n  0xff\n  and\n  mul\n  or\n  swap1\n  sstore\n  pop\n    /* \"dataTypesValor.sol\":386:388  -8 */\n  0xfffffffffffffffffffffffffffffffffffffffffffffffffffffffffffffff8\n    /* \"dataTypesValor.sol\":370:388  int16 number3 = -8 */\n  0x02\n  exp(0x0100, 0x01)\n  dup2\n  sload\n  dup2\n  0xffff\n  mul\n  not\n  and\n  swap1\n  dup4\n  0x01\n  signextend\n  0xffff\n  and\n  mul\n  or\n  swap1\n  sstore\n  pop\n    /* \"dataTypesValor.sol\":463:464  8 */\n  0x08\n    /* \"dataTypesValor.sol\":448:464  uint number4 = 8 */\n  0x03\n  sstore\n    /* \"dataTypesValor.sol\":508:509  8 */\n  0x08\n    /* \"dataTypesValor.sol\":492:509  uint8 number5 = 8 */\n  0x04\n  exp(0x0100, 0x00)\n  dup2\n  sload\n  dup2\n  0xff\n  mul\n  not\n  and\n  swap1\n  dup4\n  0xff\n  and\n  mul\n  or\n  swap1\n  sstore\n  pop\n    /* \"dataTypesValor.sol\":555:556  8 */\n  0x08\n    /* \"dataTypesValor.sol\":538:556  uint32 number6 = 8 */\n  0x04\n  exp(0x0100, 0x01)\n  dup2\n  sload\n  dup2\n  0xffffffff\n  mul\n  not\n  and\n  swap1\n  dup4\n  0xffffffff\n  and\n  mul\n  or\n  swap1\n  sstore\n  pop\n    /* \"dataTypesValor.sol\":752:756  this */\n  address\n    /* \"dataTypesValor.sol\":712:757  address public addressAccount = address(this) */\n  0x04\n  exp(0x0100, 0x05)\n  dup2\n  sload\n  dup2\n  0xffffffffffffffffffffffffffffffffffffffff\n  mul\n  not\n  and\n  swap1\n  dup4\n  0xffffffffffffffffffffffffffffffffffffffff\n  and\n  mul\n  or\n  swap1\n  sstore\n  pop\n    /* \"dataTypesValor.sol\":897:907  msg.sender */\n  caller\n    /* \"dataTypesValor.sol\":862:907  address public addressExternally = msg.sender */\n  0x05\n  exp(0x0100, 0x00)\n  dup2\n  sload\n  dup2\n  0xffffffffffffffffffffffffffffffffffffffff\n  mul\n  not\n  and\n  swap1\n  dup4\n  0xffffffffffffffffffffffffffffffffffffffff\n  and\n  mul\n  or\n  swap1\n  sstore\n  pop\n    /* \"dataTypesValor.sol\":1030:1044  addressAccount */\n  0x04\n  0x05\n  swap1\n  sload\n  swap1\n  0x0100\n  exp\n  swap1\n  div\n  0xffffffffffffffffffffffffffffffffffffffff\n  and\n    /* \"dataTypesValor.sol\":1030:1052  addressAccount.balance */\n  0xffffffffffffffffffffffffffffffffffffffff\n  and\n  balance\n    /* \"dataTypesValor.sol\":994:1052  uint public balanceAddressAccount = addressAccount.balance */\n  0x06\n  sstore\n    /* \"dataTypesValor.sol\":1100:1117  addressExternally */\n  0x05\n  0x00\n  swap1\n  sload\n  swap1\n  0x0100\n  exp\n  swap1\n  div\n  0xffffffffffffffffffffffffffffffffffffffff\n  and\n    /* \"dataTypesValor.sol\":1100:1125  addressExternally.balance */\n  0xffffffffffffffffffffffffffffffffffffffff\n  and\n  balance\n    /* \"dataTypesValor.sol\":1061:1125  uint public balanceAddressExternally = addressExternally.balance */\n  0x07\n  sstore\n    /* \"dataTypesValor.sol\":1272:1290  bytes1 data =  \"9\" */\n  0x3900000000000000000000000000000000000000000000000000000000000000\n  0x08\n  exp(0x0100, 0x00)\n  dup2\n  sload\n  dup2\n  0xff\n  mul\n  not\n  and\n  swap1\n  dup4\n  0xf8\n  shr\n  mul\n  or\n  swap1\n  sstore\n  pop\n    /* \"dataTypesValor.sol\":1301:1320  bytes2 data2 = \"90\" */\n  0x3930000000000000000000000000000000000000000000000000000000000000\n  0x08\n  exp(0x0100, 0x01)\n  dup2\n  sload\n  dup2\n  0xffff\n  mul\n  not\n  and\n  swap1\n  dup4\n  0xf0\n  shr\n  mul\n  or\n  swap1\n  sstore\n  pop\n    /* \"dataTypesValor.sol\":1331:1360  bytes32 data3 = \"Hello World\" */\n  sstore(0x09, 0x48656c6c6f20576f726c64000000000000000000000000000000000000000000)\n    /* \"dataTypesValor.sol\":1451:1455  data */\n  0x08\n  0x00\n  swap1\n  sload\n  swap1\n  0x0100\n  exp\n  swap1\n  pop\n  pop\n    /* \"dataTypesValor.sol\":1451:1462  data.length */\n  0x01\n    /* \"dataTypesValor.sol\":1425:1462  uint public lenghtData1 = data.length */\n  0xff\n  and\n  0x0a\n  sstore\n    /* \"dataTypesValor.sol\":1499:1504  data2 */\n  0x08\n  0x01\n  swap1\n  sload\n  swap1\n  0x0100\n  exp\n  swap1\n  pop\n  pop\n    /* \"dataTypesValor.sol\":1499:1511  data2.length */\n  0x02\n    /* \"dataTypesValor.sol\":1473:1511  uint public lenghtData2 = data2.length */\n  0xff\n  and\n  0x0b\n  sstore\n    /* \"dataTypesValor.sol\":66:1618  contract dataTypeValor{\r... */\n  callvalue\n  dup1\n  iszero\n  tag_1\n  jumpi\n  0x00\n  dup1\n  revert\ntag_1:\n  pop\n  dataSize(sub_0)\n  dup1\n  dataOffset(sub_0)\n  0x00\n  codecopy\n  0x00\n  return\nstop\n\nsub_0: assembly {\n        /* \"dataTypesValor.sol\":66:1618  contract dataTypeValor{\r... */\n      mstore(0x40, 0x80)\n      callvalue\n      dup1\n      iszero\n      tag_1\n      jumpi\n      0x00\n      dup1\n      revert\n    tag_1:\n      pop\n      jumpi(tag_2, lt(calldatasize, 0x04))\n      shr(0xe0, calldataload(0x00))\n      dup1\n      0x1bc66815\n      eq\n      tag_3\n      jumpi\n      dup1\n      0x379937a0\n      eq\n      tag_4\n      jumpi\n      dup1\n      0x4de1a1b8\n      eq\n      tag_5\n      jumpi\n      dup1\n      0x648b6450\n      eq\n      tag_6\n      jumpi\n      dup1\n      0x6c30c1c7\n      eq\n      tag_7\n      jumpi\n      dup1\n      0xb704ed74\n      eq\n      tag_8\n      jumpi\n    tag_2:\n      0x00\n      dup1\n      revert\n        /* \"dataTypesValor.sol\":1425:1462  uint public lenghtData1 = data.length */\n    tag_3:\n      tag_9\n      tag_10\n      jump\t// in\n    tag_9:\n      mload(0x40)\n      tag_11\n      swap2\n      swap1\n      tag_12\n      jump\t// in\n    tag_11:\n      mload(0x40)\n      dup1\n      swap2\n      sub\n      swap1\n      return\n        /* \"dataTypesValor.sol\":1473:1511  uint public lenghtData2 = data2.length */\n    tag_4:\n      tag_13\n      tag_14\n      jump\t// in\n    tag_13:\n      mload(0x40)\n      tag_15\n      swap2\n      swap1\n      tag_12\n      jump\t// in\n    tag_15:\n      mload(0x40)\n      dup1\n      swap2\n      sub\n      swap1\n      return\n        /* \"dataTypesValor.sol\":1061:1125  uint public balanceAddressExternally = addressExternally.balance */\n    tag_5:\n      tag_16\n      tag_17\n      jump\t// in\n    tag_16:\n      mload(0x40)\n      tag_18\n      swap2\n      swap1\n      tag_12\n      jump\t// in\n    tag_18:\n      mload(0x40)\n      dup1\n      swap2\n      sub\n      swap1\n      return\n        /* \"dataTypesValor.sol\":994:1052  uint public balanceAddressAccount = addressAccount.balance */\n    tag_6:\n      tag_19\n      tag_20\n      jump\t// in\n    tag_19:\n      mload(0x40)\n      tag_21\n      swap2\n      swap1\n      tag_12\n      jump\t// in\n    tag_21:\n      mload(0x40)\n      dup1\n      swap2\n      sub\n      swap1\n      return\n        /* \"dataTypesValor.sol\":862:907  address public addressExternally = msg.sender */\n    tag_7:\n      tag_22\n      tag_23\n      jump\t// in\n    tag_22:\n      mload(0x40)\n      tag_24\n      swap2\n      swap1\n      tag_25\n      jump\t// in\n    tag_24:\n      mload(0x40)\n      dup1\n      swap2\n      sub\n      swap1\n      return\n        /* \"dataTypesValor.sol\":712:757  address public addressAccount = address(this) */\n    tag_8:\n      tag_26\n      tag_27\n      jump\t// in\n    tag_26:\n      mload(0x40)\n      tag_28\n      swap2\n      swap1\n      tag_25\n      jump\t// in\n    tag_28:\n      mload(0x40)\n      dup1\n      swap2\n      sub\n      swap1\n      return\n        /* \"dataTypesValor.sol\":1425:1462  uint public lenghtData1 = data.length */\n    tag_10:\n      sload(0x0a)\n      dup2\n      jump\t// out\n        /* \"dataTypesValor.sol\":1473:1511  uint public lenghtData2 = data2.length */\n    tag_14:\n      sload(0x0b)\n      dup2\n      jump\t// out\n        /* \"dataTypesValor.sol\":1061:1125  uint public balanceAddressExternally = addressExternally.balance */\n    tag_17:\n      sload(0x07)\n      dup2\n      jump\t// out\n        /* \"dataTypesValor.sol\":994:1052  uint public balanceAddressAccount = addressAccount.balance */\n    tag_20:\n      sload(0x06)\n      dup2\n      jump\t// out\n        /* \"dataTypesValor.sol\":862:907  address public addressExternally = msg.sender */\n    tag_23:\n      0x05\n      0x00\n      swap1\n      sload\n      swap1\n      0x0100\n      exp\n      swap1\n      div\n      0xffffffffffffffffffffffffffffffffffffffff\n      and\n      dup2\n      jump\t// out\n        /* \"dataTypesValor.sol\":712:757  address public addressAccount = address(this) */\n    tag_27:\n      0x04\n      0x05\n      swap1\n      sload\n      swap1\n      0x0100\n      exp\n      swap1\n      div\n      0xffffffffffffffffffffffffffffffffffffffff\n      and\n      dup2\n      jump\t// out\n        /* \"#utility.yul\":7:125   */\n    tag_30:\n        /* \"#utility.yul\":94:118   */\n      tag_32\n        /* \"#utility.yul\":112:117   */\n      dup2\n        /* \"#utility.yul\":94:118   */\n      tag_33\n      jump\t// in\n    tag_32:\n        /* \"#utility.yul\":89:92   */\n      dup3\n        /* \"#utility.yul\":82:119   */\n      mstore\n        /* \"#utility.yul\":7:125   */\n      pop\n      pop\n      jump\t// out\n        /* \"#utility.yul\":131:249   */\n    tag_34:\n        /* \"#utility.yul\":218:242   */\n      tag_36\n        /* \"#utility.yul\":236:241   */\n      dup2\n        /* \"#utility.yul\":218:242   */\n      tag_37\n      jump\t// in\n    tag_36:\n        /* \"#utility.yul\":213:216   */\n      dup3\n        /* \"#utility.yul\":206:243   */\n      mstore\n        /* \"#utility.yul\":131:249   */\n      pop\n      pop\n      jump\t// out\n        /* \"#utility.yul\":255:477   */\n    tag_25:\n        /* \"#utility.yul\":348:352   */\n      0x00\n        /* \"#utility.yul\":386:388   */\n      0x20\n        /* \"#utility.yul\":375:384   */\n      dup3\n        /* \"#utility.yul\":371:389   */\n      add\n        /* \"#utility.yul\":363:389   */\n      swap1\n      pop\n        /* \"#utility.yul\":399:470   */\n      tag_39\n        /* \"#utility.yul\":467:468   */\n      0x00\n        /* \"#utility.yul\":456:465   */\n      dup4\n        /* \"#utility.yul\":452:469   */\n      add\n        /* \"#utility.yul\":443:449   */\n      dup5\n        /* \"#utility.yul\":399:470   */\n      tag_30\n      jump\t// in\n    tag_39:\n        /* \"#utility.yul\":255:477   */\n      swap3\n      swap2\n      pop\n      pop\n      jump\t// out\n        /* \"#utility.yul\":483:705   */\n    tag_12:\n        /* \"#utility.yul\":576:580   */\n      0x00\n        /* \"#utility.yul\":614:616   */\n      0x20\n        /* \"#utility.yul\":603:612   */\n      dup3\n        /* \"#utility.yul\":599:617   */\n      add\n        /* \"#utility.yul\":591:617   */\n      swap1\n      pop\n        /* \"#utility.yul\":627:698   */\n      tag_41\n        /* \"#utility.yul\":695:696   */\n      0x00\n        /* \"#utility.yul\":684:693   */\n      dup4\n        /* \"#utility.yul\":680:697   */\n      add\n        /* \"#utility.yul\":671:677   */\n      dup5\n        /* \"#utility.yul\":627:698   */\n      tag_34\n      jump\t// in\n    tag_41:\n        /* \"#utility.yul\":483:705   */\n      swap3\n      swap2\n      pop\n      pop\n      jump\t// out\n        /* \"#utility.yul\":711:807   */\n    tag_33:\n        /* \"#utility.yul\":748:755   */\n      0x00\n        /* \"#utility.yul\":777:801   */\n      tag_43\n        /* \"#utility.yul\":795:800   */\n      dup3\n        /* \"#utility.yul\":777:801   */\n      tag_44\n      jump\t// in\n    tag_43:\n        /* \"#utility.yul\":766:801   */\n      swap1\n      pop\n        /* \"#utility.yul\":711:807   */\n      swap2\n      swap1\n      pop\n      jump\t// out\n        /* \"#utility.yul\":813:939   */\n    tag_44:\n        /* \"#utility.yul\":850:857   */\n      0x00\n        /* \"#utility.yul\":890:932   */\n      0xffffffffffffffffffffffffffffffffffffffff\n        /* \"#utility.yul\":883:888   */\n      dup3\n        /* \"#utility.yul\":879:933   */\n      and\n        /* \"#utility.yul\":868:933   */\n      swap1\n      pop\n        /* \"#utility.yul\":813:939   */\n      swap2\n      swap1\n      pop\n      jump\t// out\n        /* \"#utility.yul\":945:1022   */\n    tag_37:\n        /* \"#utility.yul\":982:989   */\n      0x00\n        /* \"#utility.yul\":1011:1016   */\n      dup2\n        /* \"#utility.yul\":1000:1016   */\n      swap1\n      pop\n        /* \"#utility.yul\":945:1022   */\n      swap2\n      swap1\n      pop\n      jump\t// out\n\n    auxdata: 0xa264697066735822122027cd8375d15f09381b37ad903eb50d3ab4639d244813703581442acabb3fe4cf64736f6c63430008070033\n}\n",
				"bytecode": {
					"linkReferences": {},
					"object": "608060405260016000806101000a81548160ff02191690831515021790555060008060016101000a81548160ff0219169083151502179055507ffffffffffffffffffffffffffffffffffffffffffffffffffffffffffffffff86001557ffffffffffffffffffffffffffffffffffffffffffffffffffffffffffffffff8600260006101000a81548160ff021916908360000b60ff1602179055507ffffffffffffffffffffffffffffffffffffffffffffffffffffffffffffffff8600260016101000a81548161ffff021916908360010b61ffff16021790555060086003556008600460006101000a81548160ff021916908360ff1602179055506008600460016101000a81548163ffffffff021916908363ffffffff16021790555030600460056101000a81548173ffffffffffffffffffffffffffffffffffffffff021916908373ffffffffffffffffffffffffffffffffffffffff16021790555033600560006101000a81548173ffffffffffffffffffffffffffffffffffffffff021916908373ffffffffffffffffffffffffffffffffffffffff160217905550600460059054906101000a900473ffffffffffffffffffffffffffffffffffffffff1673ffffffffffffffffffffffffffffffffffffffff1631600655600560009054906101000a900473ffffffffffffffffffffffffffffffffffffffff1673ffffffffffffffffffffffffffffffffffffffff16316007557f3900000000000000000000000000000000000000000000000000000000000000600860006101000a81548160ff021916908360f81c02179055507f3930000000000000000000000000000000000000000000000000000000000000600860016101000a81548161ffff021916908360f01c02179055507f48656c6c6f20576f726c64000000000000000000000000000000000000000000600955600860009054906101000a905050600160ff16600a55600860019054906101000a905050600260ff16600b553480156102ec57600080fd5b50610245806102fc6000396000f3fe608060405234801561001057600080fd5b50600436106100625760003560e01c80631bc6681514610067578063379937a0146100855780634de1a1b8146100a3578063648b6450146100c15780636c30c1c7146100df578063b704ed74146100fd575b600080fd5b61006f61011b565b60405161007c91906101b8565b60405180910390f35b61008d610121565b60405161009a91906101b8565b60405180910390f35b6100ab610127565b6040516100b891906101b8565b60405180910390f35b6100c961012d565b6040516100d691906101b8565b60405180910390f35b6100e7610133565b6040516100f4919061019d565b60405180910390f35b610105610159565b604051610112919061019d565b60405180910390f35b600a5481565b600b5481565b60075481565b60065481565b600560009054906101000a900473ffffffffffffffffffffffffffffffffffffffff1681565b600460059054906101000a900473ffffffffffffffffffffffffffffffffffffffff1681565b610188816101d3565b82525050565b61019781610205565b82525050565b60006020820190506101b2600083018461017f565b92915050565b60006020820190506101cd600083018461018e565b92915050565b60006101de826101e5565b9050919050565b600073ffffffffffffffffffffffffffffffffffffffff82169050919050565b600081905091905056fea264697066735822122027cd8375d15f09381b37ad903eb50d3ab4639d244813703581442acabb3fe4cf64736f6c63430008070033",
					"opcodes": "PUSH1 0x80 PUSH1 0x40 MSTORE PUSH1 0x1 PUSH1 0x0 DUP1 PUSH2 0x100 EXP DUP2 SLOAD DUP2 PUSH1 0xFF MUL NOT AND SWAP1 DUP4 ISZERO ISZERO MUL OR SWAP1 SSTORE POP PUSH1 0x0 DUP1 PUSH1 0x1 PUSH2 0x100 EXP DUP2 SLOAD DUP2 PUSH1 0xFF MUL NOT AND SWAP1 DUP4 ISZERO ISZERO MUL OR SWAP1 SSTORE POP PUSH32 0xFFFFFFFFFFFFFFFFFFFFFFFFFFFFFFFFFFFFFFFFFFFFFFFFFFFFFFFFFFFFFFF8 PUSH1 0x1 SSTORE PUSH32 0xFFFFFFFFFFFFFFFFFFFFFFFFFFFFFFFFFFFFFFFFFFFFFFFFFFFFFFFFFFFFFFF8 PUSH1 0x2 PUSH1 0x0 PUSH2 0x100 EXP DUP2 SLOAD DUP2 PUSH1 0xFF MUL NOT AND SWAP1 DUP4 PUSH1 0x0 SIGNEXTEND PUSH1 0xFF AND MUL OR SWAP1 SSTORE POP PUSH32 0xFFFFFFFFFFFFFFFFFFFFFFFFFFFFFFFFFFFFFFFFFFFFFFFFFFFFFFFFFFFFFFF8 PUSH1 0x2 PUSH1 0x1 PUSH2 0x100 EXP DUP2 SLOAD DUP2 PUSH2 0xFFFF MUL NOT AND SWAP1 DUP4 PUSH1 0x1 SIGNEXTEND PUSH2 0xFFFF AND MUL OR SWAP1 SSTORE POP PUSH1 0x8 PUSH1 0x3 SSTORE PUSH1 0x8 PUSH1 0x4 PUSH1 0x0 PUSH2 0x100 EXP DUP2 SLOAD DUP2 PUSH1 0xFF MUL NOT AND SWAP1 DUP4 PUSH1 0xFF AND MUL OR SWAP1 SSTORE POP PUSH1 0x8 PUSH1 0x4 PUSH1 0x1 PUSH2 0x100 EXP DUP2 SLOAD DUP2 PUSH4 0xFFFFFFFF MUL NOT AND SWAP1 DUP4 PUSH4 0xFFFFFFFF AND MUL OR SWAP1 SSTORE POP ADDRESS PUSH1 0x4 PUSH1 0x5 PUSH2 0x100 EXP DUP2 SLOAD DUP2 PUSH20 0xFFFFFFFFFFFFFFFFFFFFFFFFFFFFFFFFFFFFFFFF MUL NOT AND SWAP1 DUP4 PUSH20 0xFFFFFFFFFFFFFFFFFFFFFFFFFFFFFFFFFFFFFFFF AND MUL OR SWAP1 SSTORE POP CALLER PUSH1 0x5 PUSH1 0x0 PUSH2 0x100 EXP DUP2 SLOAD DUP2 PUSH20 0xFFFFFFFFFFFFFFFFFFFFFFFFFFFFFFFFFFFFFFFF MUL NOT AND SWAP1 DUP4 PUSH20 0xFFFFFFFFFFFFFFFFFFFFFFFFFFFFFFFFFFFFFFFF AND MUL OR SWAP1 SSTORE POP PUSH1 0x4 PUSH1 0x5 SWAP1 SLOAD SWAP1 PUSH2 0x100 EXP SWAP1 DIV PUSH20 0xFFFFFFFFFFFFFFFFFFFFFFFFFFFFFFFFFFFFFFFF AND PUSH20 0xFFFFFFFFFFFFFFFFFFFFFFFFFFFFFFFFFFFFFFFF AND BALANCE PUSH1 0x6 SSTORE PUSH1 0x5 PUSH1 0x0 SWAP1 SLOAD SWAP1 PUSH2 0x100 EXP SWAP1 DIV PUSH20 0xFFFFFFFFFFFFFFFFFFFFFFFFFFFFFFFFFFFFFFFF AND PUSH20 0xFFFFFFFFFFFFFFFFFFFFFFFFFFFFFFFFFFFFFFFF AND BALANCE PUSH1 0x7 SSTORE PUSH32 0x3900000000000000000000000000000000000000000000000000000000000000 PUSH1 0x8 PUSH1 0x0 PUSH2 0x100 EXP DUP2 SLOAD DUP2 PUSH1 0xFF MUL NOT AND SWAP1 DUP4 PUSH1 0xF8 SHR MUL OR SWAP1 SSTORE POP PUSH32 0x3930000000000000000000000000000000000000000000000000000000000000 PUSH1 0x8 PUSH1 0x1 PUSH2 0x100 EXP DUP2 SLOAD DUP2 PUSH2 0xFFFF MUL NOT AND SWAP1 DUP4 PUSH1 0xF0 SHR MUL OR SWAP1 SSTORE POP PUSH32 0x48656C6C6F20576F726C64000000000000000000000000000000000000000000 PUSH1 0x9 SSTORE PUSH1 0x8 PUSH1 0x0 SWAP1 SLOAD SWAP1 PUSH2 0x100 EXP SWAP1 POP POP PUSH1 0x1 PUSH1 0xFF AND PUSH1 0xA SSTORE PUSH1 0x8 PUSH1 0x1 SWAP1 SLOAD SWAP1 PUSH2 0x100 EXP SWAP1 POP POP PUSH1 0x2 PUSH1 0xFF AND PUSH1 0xB SSTORE CALLVALUE DUP1 ISZERO PUSH2 0x2EC JUMPI PUSH1 0x0 DUP1 REVERT JUMPDEST POP PUSH2 0x245 DUP1 PUSH2 0x2FC PUSH1 0x0 CODECOPY PUSH1 0x0 RETURN INVALID PUSH1 0x80 PUSH1 0x40 MSTORE CALLVALUE DUP1 ISZERO PUSH2 0x10 JUMPI PUSH1 0x0 DUP1 REVERT JUMPDEST POP PUSH1 0x4 CALLDATASIZE LT PUSH2 0x62 JUMPI PUSH1 0x0 CALLDATALOAD PUSH1 0xE0 SHR DUP1 PUSH4 0x1BC66815 EQ PUSH2 0x67 JUMPI DUP1 PUSH4 0x379937A0 EQ PUSH2 0x85 JUMPI DUP1 PUSH4 0x4DE1A1B8 EQ PUSH2 0xA3 JUMPI DUP1 PUSH4 0x648B6450 EQ PUSH2 0xC1 JUMPI DUP1 PUSH4 0x6C30C1C7 EQ PUSH2 0xDF JUMPI DUP1 PUSH4 0xB704ED74 EQ PUSH2 0xFD JUMPI JUMPDEST PUSH1 0x0 DUP1 REVERT JUMPDEST PUSH2 0x6F PUSH2 0x11B JUMP JUMPDEST PUSH1 0x40 MLOAD PUSH2 0x7C SWAP2 SWAP1 PUSH2 0x1B8 JUMP JUMPDEST PUSH1 0x40 MLOAD DUP1 SWAP2 SUB SWAP1 RETURN JUMPDEST PUSH2 0x8D PUSH2 0x121 JUMP JUMPDEST PUSH1 0x40 MLOAD PUSH2 0x9A SWAP2 SWAP1 PUSH2 0x1B8 JUMP JUMPDEST PUSH1 0x40 MLOAD DUP1 SWAP2 SUB SWAP1 RETURN JUMPDEST PUSH2 0xAB PUSH2 0x127 JUMP JUMPDEST PUSH1 0x40 MLOAD PUSH2 0xB8 SWAP2 SWAP1 PUSH2 0x1B8 JUMP JUMPDEST PUSH1 0x40 MLOAD DUP1 SWAP2 SUB SWAP1 RETURN JUMPDEST PUSH2 0xC9 PUSH2 0x12D JUMP JUMPDEST PUSH1 0x40 MLOAD PUSH2 0xD6 SWAP2 SWAP1 PUSH2 0x1B8 JUMP JUMPDEST PUSH1 0x40 MLOAD DUP1 SWAP2 SUB SWAP1 RETURN JUMPDEST PUSH2 0xE7 PUSH2 0x133 JUMP JUMPDEST PUSH1 0x40 MLOAD PUSH2 0xF4 SWAP2 SWAP1 PUSH2 0x19D JUMP JUMPDEST PUSH1 0x40 MLOAD DUP1 SWAP2 SUB SWAP1 RETURN JUMPDEST PUSH2 0x105 PUSH2 0x159 JUMP JUMPDEST PUSH1 0x40 MLOAD PUSH2 0x112 SWAP2 SWAP1 PUSH2 0x19D JUMP JUMPDEST PUSH1 0x40 MLOAD DUP1 SWAP2 SUB SWAP1 RETURN JUMPDEST PUSH1 0xA SLOAD DUP2 JUMP JUMPDEST PUSH1 0xB SLOAD DUP2 JUMP JUMPDEST PUSH1 0x7 SLOAD DUP2 JUMP JUMPDEST PUSH1 0x6 SLOAD DUP2 JUMP JUMPDEST PUSH1 0x5 PUSH1 0x0 SWAP1 SLOAD SWAP1 PUSH2 0x100 EXP SWAP1 DIV PUSH20 0xFFFFFFFFFFFFFFFFFFFFFFFFFFFFFFFFFFFFFFFF AND DUP2 JUMP JUMPDEST PUSH1 0x4 PUSH1 0x5 SWAP1 SLOAD SWAP1 PUSH2 0x100 EXP SWAP1 DIV PUSH20 0xFFFFFFFFFFFFFFFFFFFFFFFFFFFFFFFFFFFFFFFF AND DUP2 JUMP JUMPDEST PUSH2 0x188 DUP2 PUSH2 0x1D3 JUMP JUMPDEST DUP3 MSTORE POP POP JUMP JUMPDEST PUSH2 0x197 DUP2 PUSH2 0x205 JUMP JUMPDEST DUP3 MSTORE POP POP JUMP JUMPDEST PUSH1 0x0 PUSH1 0x20 DUP3 ADD SWAP1 POP PUSH2 0x1B2 PUSH1 0x0 DUP4 ADD DUP5 PUSH2 0x17F JUMP JUMPDEST SWAP3 SWAP2 POP POP JUMP JUMPDEST PUSH1 0x0 PUSH1 0x20 DUP3 ADD SWAP1 POP PUSH2 0x1CD PUSH1 0x0 DUP4 ADD DUP5 PUSH2 0x18E JUMP JUMPDEST SWAP3 SWAP2 POP POP JUMP JUMPDEST PUSH1 0x0 PUSH2 0x1DE DUP3 PUSH2 0x1E5 JUMP JUMPDEST SWAP1 POP SWAP2 SWAP1 POP JUMP JUMPDEST PUSH1 0x0 PUSH20 0xFFFFFFFFFFFFFFFFFFFFFFFFFFFFFFFFFFFFFFFF DUP3 AND SWAP1 POP SWAP2 SWAP1 POP JUMP JUMPDEST PUSH1 0x0 DUP2 SWAP1 POP SWAP2 SWAP1 POP JUMP INVALID LOG2 PUSH5 0x6970667358 0x22 SLT KECCAK256 0x27 0xCD DUP4 PUSH22 0xD15F09381B37AD903EB50D3AB4639D24481370358144 0x2A 0xCA 0xBB EXTCODEHASH 0xE4 0xCF PUSH5 0x736F6C6343 STOP ADDMOD SMOD STOP CALLER "
				},
				"gasEstimates": {
					"creation": {
						"codeDepositCost": "116200",
						"executionCost": "411701",
						"totalCost": "527901"
					},
					"external": {
						"addressAccount()": "2652",
						"addressExternally()": "2580",
						"balanceAddressAccount()": "2473",
						"balanceAddressExternally()": "2451",
						"lenghtData1()": "2407",
						"lenghtData2()": "2429"
					}
				},
				"methodIdentifiers": {
					"addressAccount()": "b704ed74",
					"addressExternally()": "6c30c1c7",
					"balanceAddressAccount()": "648b6450",
					"balanceAddressExternally()": "4de1a1b8",
					"lenghtData1()": "1bc66815",
					"lenghtData2()": "379937a0"
				}
			},
			"storageLayout": {
				"storage": [
					{
						"astId": 4,
						"contract": "dataTypesValor.sol:dataTypeValor",
						"label": "flagVerdadero",
						"offset": 0,
						"slot": "0",
						"type": "t_bool"
					},
					{
						"astId": 7,
						"contract": "dataTypesValor.sol:dataTypeValor",
						"label": "flagFalse",
						"offset": 1,
						"slot": "0",
						"type": "t_bool"
					},
					{
						"astId": 11,
						"contract": "dataTypesValor.sol:dataTypeValor",
						"label": "number1",
						"offset": 0,
						"slot": "1",
						"type": "t_int256"
					},
					{
						"astId": 15,
						"contract": "dataTypesValor.sol:dataTypeValor",
						"label": "number2",
						"offset": 0,
						"slot": "2",
						"type": "t_int8"
					},
					{
						"astId": 19,
						"contract": "dataTypesValor.sol:dataTypeValor",
						"label": "number3",
						"offset": 1,
						"slot": "2",
						"type": "t_int16"
					},
					{
						"astId": 22,
						"contract": "dataTypesValor.sol:dataTypeValor",
						"label": "number4",
						"offset": 0,
						"slot": "3",
						"type": "t_uint256"
					},
					{
						"astId": 25,
						"contract": "dataTypesValor.sol:dataTypeValor",
						"label": "number5",
						"offset": 0,
						"slot": "4",
						"type": "t_uint8"
					},
					{
						"astId": 28,
						"contract": "dataTypesValor.sol:dataTypeValor",
						"label": "number6",
						"offset": 1,
						"slot": "4",
						"type": "t_uint32"
					},
					{
						"astId": 34,
						"contract": "dataTypesValor.sol:dataTypeValor",
						"label": "addressAccount",
						"offset": 5,
						"slot": "4",
						"type": "t_address"
					},
					{
						"astId": 38,
						"contract": "dataTypesValor.sol:dataTypeValor",
						"label": "addressExternally",
						"offset": 0,
						"slot": "5",
						"type": "t_address"
					},
					{
						"astId": 42,
						"contract": "dataTypesValor.sol:dataTypeValor",
						"label": "balanceAddressAccount",
						"offset": 0,
						"slot": "6",
						"type": "t_uint256"
					},
					{
						"astId": 46,
						"contract": "dataTypesValor.sol:dataTypeValor",
						"label": "balanceAddressExternally",
						"offset": 0,
						"slot": "7",
						"type": "t_uint256"
					},
					{
						"astId": 49,
						"contract": "dataTypesValor.sol:dataTypeValor",
						"label": "data",
						"offset": 0,
						"slot": "8",
						"type": "t_bytes1"
					},
					{
						"astId": 52,
						"contract": "dataTypesValor.sol:dataTypeValor",
						"label": "data2",
						"offset": 1,
						"slot": "8",
						"type": "t_bytes2"
					},
					{
						"astId": 55,
						"contract": "dataTypesValor.sol:dataTypeValor",
						"label": "data3",
						"offset": 0,
						"slot": "9",
						"type": "t_bytes32"
					},
					{
						"astId": 59,
						"contract": "dataTypesValor.sol:dataTypeValor",
						"label": "lenghtData1",
						"offset": 0,
						"slot": "10",
						"type": "t_uint256"
					},
					{
						"astId": 63,
						"contract": "dataTypesValor.sol:dataTypeValor",
						"label": "lenghtData2",
						"offset": 0,
						"slot": "11",
						"type": "t_uint256"
					}
				],
				"types": {
					"t_address": {
						"encoding": "inplace",
						"label": "address",
						"numberOfBytes": "20"
					},
					"t_bool": {
						"encoding": "inplace",
						"label": "bool",
						"numberOfBytes": "1"
					},
					"t_bytes1": {
						"encoding": "inplace",
						"label": "bytes1",
						"numberOfBytes": "1"
					},
					"t_bytes2": {
						"encoding": "inplace",
						"label": "bytes2",
						"numberOfBytes": "2"
					},
					"t_bytes32": {
						"encoding": "inplace",
						"label": "bytes32",
						"numberOfBytes": "32"
					},
					"t_int16": {
						"encoding": "inplace",
						"label": "int16",
						"numberOfBytes": "2"
					},
					"t_int256": {
						"encoding": "inplace",
						"label": "int256",
						"numberOfBytes": "32"
					},
					"t_int8": {
						"encoding": "inplace",
						"label": "int8",
						"numberOfBytes": "1"
					},
					"t_uint256": {
						"encoding": "inplace",
						"label": "uint256",
						"numberOfBytes": "32"
					},
					"t_uint32": {
						"encoding": "inplace",
						"label": "uint32",
						"numberOfBytes": "4"
					},
					"t_uint8": {
						"encoding": "inplace",
						"label": "uint8",
						"numberOfBytes": "1"
					}
				}
			},
			"userdoc": {
				"kind": "user",
				"methods": {},
				"version": 1
			}
		}
	}
}