{
	"dataTypesValor.sol": {
		"dataTypeValor": {
			"abi": [
				{
					"inputs": [],
					"name": "addFruta",
					"outputs": [],
					"stateMutability": "nonpayable",
					"type": "function"
				},
				{
					"inputs": [],
					"name": "addPersonas",
					"outputs": [],
					"stateMutability": "nonpayable",
					"type": "function"
				},
				{
					"inputs": [],
					"name": "addressAccount",
					"outputs": [
						{
							"internalType": "address",
							"name": "",
							"type": "address"
						}
					],
					"stateMutability": "view",
					"type": "function"
				},
				{
					"inputs": [],
					"name": "addressExternally",
					"outputs": [
						{
							"internalType": "address",
							"name": "",
							"type": "address"
						}
					],
					"stateMutability": "view",
					"type": "function"
				},
				{
					"inputs": [],
					"name": "balanceAddressAccount",
					"outputs": [
						{
							"internalType": "uint256",
							"name": "",
							"type": "uint256"
						}
					],
					"stateMutability": "view",
					"type": "function"
				},
				{
					"inputs": [],
					"name": "balanceAddressExternally",
					"outputs": [
						{
							"internalType": "uint256",
							"name": "",
							"type": "uint256"
						}
					],
					"stateMutability": "view",
					"type": "function"
				},
				{
					"inputs": [
						{
							"internalType": "address",
							"name": "",
							"type": "address"
						}
					],
					"name": "diccPersonas",
					"outputs": [
						{
							"internalType": "bool",
							"name": "vacunado",
							"type": "bool"
						},
						{
							"internalType": "uint8",
							"name": "edad",
							"type": "uint8"
						},
						{
							"internalType": "bytes32",
							"name": "nombre",
							"type": "bytes32"
						}
					],
					"stateMutability": "view",
					"type": "function"
				},
				{
					"inputs": [],
					"name": "getEdad",
					"outputs": [
						{
							"internalType": "uint8",
							"name": "",
							"type": "uint8"
						}
					],
					"stateMutability": "view",
					"type": "function"
				},
				{
					"inputs": [],
					"name": "lenghtData1",
					"outputs": [
						{
							"internalType": "uint256",
							"name": "",
							"type": "uint256"
						}
					],
					"stateMutability": "view",
					"type": "function"
				},
				{
					"inputs": [],
					"name": "lenghtData2",
					"outputs": [
						{
							"internalType": "uint256",
							"name": "",
							"type": "uint256"
						}
					],
					"stateMutability": "view",
					"type": "function"
				},
				{
					"inputs": [
						{
							"internalType": "int256",
							"name": "",
							"type": "int256"
						}
					],
					"name": "mappingFrutas",
					"outputs": [
						{
							"internalType": "string",
							"name": "",
							"type": "string"
						}
					],
					"stateMutability": "view",
					"type": "function"
				},
				{
					"inputs": [
						{
							"internalType": "address",
							"name": "",
							"type": "address"
						}
					],
					"name": "mappingPersona",
					"outputs": [
						{
							"internalType": "bool",
							"name": "vacunado",
							"type": "bool"
						},
						{
							"internalType": "uint8",
							"name": "edad",
							"type": "uint8"
						},
						{
							"internalType": "bytes32",
							"name": "nombre",
							"type": "bytes32"
						}
					],
					"stateMutability": "view",
					"type": "function"
				},
				{
					"inputs": [],
					"name": "p1",
					"outputs": [
						{
							"internalType": "bool",
							"name": "vacunado",
							"type": "bool"
						},
						{
							"internalType": "uint8",
							"name": "edad",
							"type": "uint8"
						},
						{
							"internalType": "bytes32",
							"name": "nombre",
							"type": "bytes32"
						}
					],
					"stateMutability": "view",
					"type": "function"
				},
				{
					"inputs": [],
					"name": "p2",
					"outputs": [
						{
							"internalType": "bool",
							"name": "vacunado",
							"type": "bool"
						},
						{
							"internalType": "uint8",
							"name": "edad",
							"type": "uint8"
						},
						{
							"internalType": "bytes32",
							"name": "nombre",
							"type": "bytes32"
						}
					],
					"stateMutability": "view",
					"type": "function"
				}
			],
			"devdoc": {
				"kind": "dev",
				"methods": {},
				"version": 1
			},
			"evm": {
				"assembly": "    /* \"dataTypesValor.sol\":66:2376  contract dataTypeValor{\r... */\n  mstore(0x40, 0x80)\n    /* \"dataTypesValor.sol\":134:138  true */\n  0x01\n    /* \"dataTypesValor.sol\":113:138  bool flagVerdadero = true */\n  0x00\n  dup1\n  0x0100\n  exp\n  dup2\n  sload\n  dup2\n  0xff\n  mul\n  not\n  and\n  swap1\n  dup4\n  iszero\n  iszero\n  mul\n  or\n  swap1\n  sstore\n  pop\n    /* \"dataTypesValor.sol\":162:167  false */\n  0x00\n    /* \"dataTypesValor.sol\":145:167  bool flagFalse = false */\n  dup1\n  exp(0x0100, 0x01)\n  dup2\n  sload\n  dup2\n  0xff\n  mul\n  not\n  and\n  swap1\n  dup4\n  iszero\n  iszero\n  mul\n  or\n  swap1\n  sstore\n  pop\n    /* \"dataTypesValor.sol\":290:292  -8 */\n  0xfffffffffffffffffffffffffffffffffffffffffffffffffffffffffffffff8\n    /* \"dataTypesValor.sol\":276:292  int number1 = -8 */\n  0x01\n  sstore\n    /* \"dataTypesValor.sol\":334:336  -8 */\n  0xfffffffffffffffffffffffffffffffffffffffffffffffffffffffffffffff8\n    /* \"dataTypesValor.sol\":319:336  int8 number2 = -8 */\n  0x02\n  exp(0x0100, 0x00)\n  dup2\n  sload\n  dup2\n  0xff\n  mul\n  not\n  and\n  swap1\n  dup4\n  0x00\n  signextend\n  0xff\n  and\n  mul\n  or\n  swap1\n  sstore\n  pop\n    /* \"dataTypesValor.sol\":386:388  -8 */\n  0xfffffffffffffffffffffffffffffffffffffffffffffffffffffffffffffff8\n    /* \"dataTypesValor.sol\":370:388  int16 number3 = -8 */\n  0x02\n  exp(0x0100, 0x01)\n  dup2\n  sload\n  dup2\n  0xffff\n  mul\n  not\n  and\n  swap1\n  dup4\n  0x01\n  signextend\n  0xffff\n  and\n  mul\n  or\n  swap1\n  sstore\n  pop\n    /* \"dataTypesValor.sol\":463:464  8 */\n  0x08\n    /* \"dataTypesValor.sol\":448:464  uint number4 = 8 */\n  0x03\n  sstore\n    /* \"dataTypesValor.sol\":508:509  8 */\n  0x08\n    /* \"dataTypesValor.sol\":492:509  uint8 number5 = 8 */\n  0x04\n  exp(0x0100, 0x00)\n  dup2\n  sload\n  dup2\n  0xff\n  mul\n  not\n  and\n  swap1\n  dup4\n  0xff\n  and\n  mul\n  or\n  swap1\n  sstore\n  pop\n    /* \"dataTypesValor.sol\":555:556  8 */\n  0x08\n    /* \"dataTypesValor.sol\":538:556  uint32 number6 = 8 */\n  0x04\n  exp(0x0100, 0x01)\n  dup2\n  sload\n  dup2\n  0xffffffff\n  mul\n  not\n  and\n  swap1\n  dup4\n  0xffffffff\n  and\n  mul\n  or\n  swap1\n  sstore\n  pop\n    /* \"dataTypesValor.sol\":752:756  this */\n  address\n    /* \"dataTypesValor.sol\":712:757  address public addressAccount = address(this) */\n  0x04\n  exp(0x0100, 0x05)\n  dup2\n  sload\n  dup2\n  0xffffffffffffffffffffffffffffffffffffffff\n  mul\n  not\n  and\n  swap1\n  dup4\n  0xffffffffffffffffffffffffffffffffffffffff\n  and\n  mul\n  or\n  swap1\n  sstore\n  pop\n    /* \"dataTypesValor.sol\":897:907  msg.sender */\n  caller\n    /* \"dataTypesValor.sol\":862:907  address public addressExternally = msg.sender */\n  0x05\n  exp(0x0100, 0x00)\n  dup2\n  sload\n  dup2\n  0xffffffffffffffffffffffffffffffffffffffff\n  mul\n  not\n  and\n  swap1\n  dup4\n  0xffffffffffffffffffffffffffffffffffffffff\n  and\n  mul\n  or\n  swap1\n  sstore\n  pop\n    /* \"dataTypesValor.sol\":1030:1044  addressAccount */\n  0x04\n  0x05\n  swap1\n  sload\n  swap1\n  0x0100\n  exp\n  swap1\n  div\n  0xffffffffffffffffffffffffffffffffffffffff\n  and\n    /* \"dataTypesValor.sol\":1030:1052  addressAccount.balance */\n  0xffffffffffffffffffffffffffffffffffffffff\n  and\n  balance\n    /* \"dataTypesValor.sol\":994:1052  uint public balanceAddressAccount = addressAccount.balance */\n  0x06\n  sstore\n    /* \"dataTypesValor.sol\":1100:1117  addressExternally */\n  0x05\n  0x00\n  swap1\n  sload\n  swap1\n  0x0100\n  exp\n  swap1\n  div\n  0xffffffffffffffffffffffffffffffffffffffff\n  and\n    /* \"dataTypesValor.sol\":1100:1125  addressExternally.balance */\n  0xffffffffffffffffffffffffffffffffffffffff\n  and\n  balance\n    /* \"dataTypesValor.sol\":1061:1125  uint public balanceAddressExternally = addressExternally.balance */\n  0x07\n  sstore\n    /* \"dataTypesValor.sol\":1272:1290  bytes1 data =  \"9\" */\n  0x3900000000000000000000000000000000000000000000000000000000000000\n  0x08\n  exp(0x0100, 0x00)\n  dup2\n  sload\n  dup2\n  0xff\n  mul\n  not\n  and\n  swap1\n  dup4\n  0xf8\n  shr\n  mul\n  or\n  swap1\n  sstore\n  pop\n    /* \"dataTypesValor.sol\":1301:1320  bytes2 data2 = \"90\" */\n  0x3930000000000000000000000000000000000000000000000000000000000000\n  0x08\n  exp(0x0100, 0x01)\n  dup2\n  sload\n  dup2\n  0xffff\n  mul\n  not\n  and\n  swap1\n  dup4\n  0xf0\n  shr\n  mul\n  or\n  swap1\n  sstore\n  pop\n    /* \"dataTypesValor.sol\":1331:1360  bytes32 data3 = \"Hello World\" */\n  sstore(0x09, 0x48656c6c6f20576f726c64000000000000000000000000000000000000000000)\n    /* \"dataTypesValor.sol\":1451:1455  data */\n  0x08\n  0x00\n  swap1\n  sload\n  swap1\n  0x0100\n  exp\n  swap1\n  pop\n  pop\n    /* \"dataTypesValor.sol\":1451:1462  data.length */\n  0x01\n    /* \"dataTypesValor.sol\":1425:1462  uint public lenghtData1 = data.length */\n  0xff\n  and\n  0x0a\n  sstore\n    /* \"dataTypesValor.sol\":1499:1504  data2 */\n  0x08\n  0x01\n  swap1\n  sload\n  swap1\n  0x0100\n  exp\n  swap1\n  pop\n  pop\n    /* \"dataTypesValor.sol\":1499:1511  data2.length */\n  0x02\n    /* \"dataTypesValor.sol\":1473:1511  uint public lenghtData2 = data2.length */\n  0xff\n  and\n  0x0b\n  sstore\n    /* \"dataTypesValor.sol\":1732:1760  Persona (true, 39, \"Esther\") */\n  mload(0x40)\n  dup1\n  0x60\n  add\n  0x40\n  mstore\n  dup1\n    /* \"dataTypesValor.sol\":1741:1745  true */\n  0x01\n    /* \"dataTypesValor.sol\":1732:1760  Persona (true, 39, \"Esther\") */\n  iszero\n  iszero\n  dup2\n  mstore\n  0x20\n  add\n    /* \"dataTypesValor.sol\":1747:1749  39 */\n  0x27\n    /* \"dataTypesValor.sol\":1732:1760  Persona (true, 39, \"Esther\") */\n  0xff\n  and\n  dup2\n  mstore\n  0x20\n  add\n  0x4573746865720000000000000000000000000000000000000000000000000000\n  dup2\n  mstore\n  pop\n    /* \"dataTypesValor.sol\":1712:1760  Persona public p1 = Persona (true, 39, \"Esther\") */\n  0x0c\n  0x00\n  dup3\n  add\n  mload\n  dup2\n  0x00\n  add\n  exp(0x0100, 0x00)\n  dup2\n  sload\n  dup2\n  0xff\n  mul\n  not\n  and\n  swap1\n  dup4\n  iszero\n  iszero\n  mul\n  or\n  swap1\n  sstore\n  pop\n  0x20\n  dup3\n  add\n  mload\n  dup2\n  0x00\n  add\n  exp(0x0100, 0x01)\n  dup2\n  sload\n  dup2\n  0xff\n  mul\n  not\n  and\n  swap1\n  dup4\n  0xff\n  and\n  mul\n  or\n  swap1\n  sstore\n  pop\n  0x40\n  dup3\n  add\n  mload\n  dup2\n  0x01\n  add\n  sstore\n  pop\n  pop\n    /* \"dataTypesValor.sol\":1787:1868  Persona ({\r... */\n  mload(0x40)\n  dup1\n  0x60\n  add\n  0x40\n  mstore\n  dup1\n    /* \"dataTypesValor.sol\":1832:1837  false */\n  0x00\n    /* \"dataTypesValor.sol\":1787:1868  Persona ({\r... */\n  iszero\n  iszero\n  dup2\n  mstore\n  0x20\n  add\n    /* \"dataTypesValor.sol\":1811:1813  39 */\n  0x27\n    /* \"dataTypesValor.sol\":1787:1868  Persona ({\r... */\n  0xff\n  and\n  dup2\n  mstore\n  0x20\n  add\n  0x4a756c6961000000000000000000000000000000000000000000000000000000\n  dup2\n  mstore\n  pop\n    /* \"dataTypesValor.sol\":1767:1868  Persona public p2 = Persona ({\r... */\n  0x0e\n  0x00\n  dup3\n  add\n  mload\n  dup2\n  0x00\n  add\n  exp(0x0100, 0x00)\n  dup2\n  sload\n  dup2\n  0xff\n  mul\n  not\n  and\n  swap1\n  dup4\n  iszero\n  iszero\n  mul\n  or\n  swap1\n  sstore\n  pop\n  0x20\n  dup3\n  add\n  mload\n  dup2\n  0x00\n  add\n  exp(0x0100, 0x01)\n  dup2\n  sload\n  dup2\n  0xff\n  mul\n  not\n  and\n  swap1\n  dup4\n  0xff\n  and\n  mul\n  or\n  swap1\n  sstore\n  pop\n  0x40\n  dup3\n  add\n  mload\n  dup2\n  0x01\n  add\n  sstore\n  pop\n  pop\n    /* \"dataTypesValor.sol\":1900:1902  p1 */\n  0x0c\n    /* \"dataTypesValor.sol\":1900:1907  p1.edad */\n  0x00\n  add\n  0x01\n  swap1\n  sload\n  swap1\n  0x0100\n  exp\n  swap1\n  div\n  0xff\n  and\n    /* \"dataTypesValor.sol\":1877:1907  uint8 public getEdad = p1.edad */\n  0x10\n  exp(0x0100, 0x00)\n  dup2\n  sload\n  dup2\n  0xff\n  mul\n  not\n  and\n  swap1\n  dup4\n  0xff\n  and\n  mul\n  or\n  swap1\n  sstore\n  pop\n    /* \"dataTypesValor.sol\":66:2376  contract dataTypeValor{\r... */\n  callvalue\n  dup1\n  iszero\n  tag_1\n  jumpi\n  0x00\n  dup1\n  revert\ntag_1:\n  pop\n  dataSize(sub_0)\n  dup1\n  dataOffset(sub_0)\n  0x00\n  codecopy\n  0x00\n  return\nstop\n\nsub_0: assembly {\n        /* \"dataTypesValor.sol\":66:2376  contract dataTypeValor{\r... */\n      mstore(0x40, 0x80)\n      callvalue\n      dup1\n      iszero\n      tag_1\n      jumpi\n      0x00\n      dup1\n      revert\n    tag_1:\n      pop\n      jumpi(tag_2, lt(calldatasize, 0x04))\n      shr(0xe0, calldataload(0x00))\n      dup1\n      0x81d01ed3\n      gt\n      tag_17\n      jumpi\n      dup1\n      0xbae878ea\n      gt\n      tag_18\n      jumpi\n      dup1\n      0xbae878ea\n      eq\n      tag_13\n      jumpi\n      dup1\n      0xc2a2747b\n      eq\n      tag_14\n      jumpi\n      dup1\n      0xd97ec9c0\n      eq\n      tag_15\n      jumpi\n      dup1\n      0xec4ca3c0\n      eq\n      tag_16\n      jumpi\n      jump(tag_2)\n    tag_18:\n      dup1\n      0x81d01ed3\n      eq\n      tag_10\n      jumpi\n      dup1\n      0x92ed4873\n      eq\n      tag_11\n      jumpi\n      dup1\n      0xb704ed74\n      eq\n      tag_12\n      jumpi\n      jump(tag_2)\n    tag_17:\n      dup1\n      0x5cfd4af5\n      gt\n      tag_19\n      jumpi\n      dup1\n      0x5cfd4af5\n      eq\n      tag_6\n      jumpi\n      dup1\n      0x645c71f0\n      eq\n      tag_7\n      jumpi\n      dup1\n      0x648b6450\n      eq\n      tag_8\n      jumpi\n      dup1\n      0x6c30c1c7\n      eq\n      tag_9\n      jumpi\n      jump(tag_2)\n    tag_19:\n      dup1\n      0x1bc66815\n      eq\n      tag_3\n      jumpi\n      dup1\n      0x379937a0\n      eq\n      tag_4\n      jumpi\n      dup1\n      0x4de1a1b8\n      eq\n      tag_5\n      jumpi\n    tag_2:\n      0x00\n      dup1\n      revert\n        /* \"dataTypesValor.sol\":1425:1462  uint public lenghtData1 = data.length */\n    tag_3:\n      tag_20\n      tag_21\n      jump\t// in\n    tag_20:\n      mload(0x40)\n      tag_22\n      swap2\n      swap1\n      tag_23\n      jump\t// in\n    tag_22:\n      mload(0x40)\n      dup1\n      swap2\n      sub\n      swap1\n      return\n        /* \"dataTypesValor.sol\":1473:1511  uint public lenghtData2 = data2.length */\n    tag_4:\n      tag_24\n      tag_25\n      jump\t// in\n    tag_24:\n      mload(0x40)\n      tag_26\n      swap2\n      swap1\n      tag_23\n      jump\t// in\n    tag_26:\n      mload(0x40)\n      dup1\n      swap2\n      sub\n      swap1\n      return\n        /* \"dataTypesValor.sol\":1061:1125  uint public balanceAddressExternally = addressExternally.balance */\n    tag_5:\n      tag_27\n      tag_28\n      jump\t// in\n    tag_27:\n      mload(0x40)\n      tag_29\n      swap2\n      swap1\n      tag_23\n      jump\t// in\n    tag_29:\n      mload(0x40)\n      dup1\n      swap2\n      sub\n      swap1\n      return\n        /* \"dataTypesValor.sol\":1877:1907  uint8 public getEdad = p1.edad */\n    tag_6:\n      tag_30\n      tag_31\n      jump\t// in\n    tag_30:\n      mload(0x40)\n      tag_32\n      swap2\n      swap1\n      tag_33\n      jump\t// in\n    tag_32:\n      mload(0x40)\n      dup1\n      swap2\n      sub\n      swap1\n      return\n        /* \"dataTypesValor.sol\":2039:2086  mapping(address => Persona) public diccPersonas */\n    tag_7:\n      tag_34\n      0x04\n      dup1\n      calldatasize\n      sub\n      dup2\n      add\n      swap1\n      tag_35\n      swap2\n      swap1\n      tag_36\n      jump\t// in\n    tag_35:\n      tag_37\n      jump\t// in\n    tag_34:\n      mload(0x40)\n      tag_38\n      swap4\n      swap3\n      swap2\n      swap1\n      tag_39\n      jump\t// in\n    tag_38:\n      mload(0x40)\n      dup1\n      swap2\n      sub\n      swap1\n      return\n        /* \"dataTypesValor.sol\":994:1052  uint public balanceAddressAccount = addressAccount.balance */\n    tag_8:\n      tag_40\n      tag_41\n      jump\t// in\n    tag_40:\n      mload(0x40)\n      tag_42\n      swap2\n      swap1\n      tag_23\n      jump\t// in\n    tag_42:\n      mload(0x40)\n      dup1\n      swap2\n      sub\n      swap1\n      return\n        /* \"dataTypesValor.sol\":862:907  address public addressExternally = msg.sender */\n    tag_9:\n      tag_43\n      tag_44\n      jump\t// in\n    tag_43:\n      mload(0x40)\n      tag_45\n      swap2\n      swap1\n      tag_46\n      jump\t// in\n    tag_45:\n      mload(0x40)\n      dup1\n      swap2\n      sub\n      swap1\n      return\n        /* \"dataTypesValor.sol\":1767:1868  Persona public p2 = Persona ({\r... */\n    tag_10:\n      tag_47\n      tag_48\n      jump\t// in\n    tag_47:\n      mload(0x40)\n      tag_49\n      swap4\n      swap3\n      swap2\n      swap1\n      tag_39\n      jump\t// in\n    tag_49:\n      mload(0x40)\n      dup1\n      swap2\n      sub\n      swap1\n      return\n        /* \"dataTypesValor.sol\":2240:2312  function addPersonas () public {\r... */\n    tag_11:\n      tag_50\n      tag_51\n      jump\t// in\n    tag_50:\n      stop\n        /* \"dataTypesValor.sol\":712:757  address public addressAccount = address(this) */\n    tag_12:\n      tag_52\n      tag_53\n      jump\t// in\n    tag_52:\n      mload(0x40)\n      tag_54\n      swap2\n      swap1\n      tag_46\n      jump\t// in\n    tag_54:\n      mload(0x40)\n      dup1\n      swap2\n      sub\n      swap1\n      return\n        /* \"dataTypesValor.sol\":1988:2032  mapping (int => string) public mappingFrutas */\n    tag_13:\n      tag_55\n      0x04\n      dup1\n      calldatasize\n      sub\n      dup2\n      add\n      swap1\n      tag_56\n      swap2\n      swap1\n      tag_57\n      jump\t// in\n    tag_56:\n      tag_58\n      jump\t// in\n    tag_55:\n      mload(0x40)\n      tag_59\n      swap2\n      swap1\n      tag_60\n      jump\t// in\n    tag_59:\n      mload(0x40)\n      dup1\n      swap2\n      sub\n      swap1\n      return\n        /* \"dataTypesValor.sol\":1712:1760  Persona public p1 = Persona (true, 39, \"Esther\") */\n    tag_14:\n      tag_61\n      tag_62\n      jump\t// in\n    tag_61:\n      mload(0x40)\n      tag_63\n      swap4\n      swap3\n      swap2\n      swap1\n      tag_39\n      jump\t// in\n    tag_63:\n      mload(0x40)\n      dup1\n      swap2\n      sub\n      swap1\n      return\n        /* \"dataTypesValor.sol\":2093:2227  function addFruta() public {\r... */\n    tag_15:\n      tag_64\n      tag_65\n      jump\t// in\n    tag_64:\n      stop\n        /* \"dataTypesValor.sol\":2316:2366  mapping (address => Persona) public mappingPersona */\n    tag_16:\n      tag_66\n      0x04\n      dup1\n      calldatasize\n      sub\n      dup2\n      add\n      swap1\n      tag_67\n      swap2\n      swap1\n      tag_36\n      jump\t// in\n    tag_67:\n      tag_68\n      jump\t// in\n    tag_66:\n      mload(0x40)\n      tag_69\n      swap4\n      swap3\n      swap2\n      swap1\n      tag_39\n      jump\t// in\n    tag_69:\n      mload(0x40)\n      dup1\n      swap2\n      sub\n      swap1\n      return\n        /* \"dataTypesValor.sol\":1425:1462  uint public lenghtData1 = data.length */\n    tag_21:\n      sload(0x0a)\n      dup2\n      jump\t// out\n        /* \"dataTypesValor.sol\":1473:1511  uint public lenghtData2 = data2.length */\n    tag_25:\n      sload(0x0b)\n      dup2\n      jump\t// out\n        /* \"dataTypesValor.sol\":1061:1125  uint public balanceAddressExternally = addressExternally.balance */\n    tag_28:\n      sload(0x07)\n      dup2\n      jump\t// out\n        /* \"dataTypesValor.sol\":1877:1907  uint8 public getEdad = p1.edad */\n    tag_31:\n      0x10\n      0x00\n      swap1\n      sload\n      swap1\n      0x0100\n      exp\n      swap1\n      div\n      0xff\n      and\n      dup2\n      jump\t// out\n        /* \"dataTypesValor.sol\":2039:2086  mapping(address => Persona) public diccPersonas */\n    tag_37:\n      mstore(0x20, 0x12)\n      dup1\n      0x00\n      mstore\n      keccak256(0x00, 0x40)\n      0x00\n      swap2\n      pop\n      swap1\n      pop\n      dup1\n      0x00\n      add\n      0x00\n      swap1\n      sload\n      swap1\n      0x0100\n      exp\n      swap1\n      div\n      0xff\n      and\n      swap1\n      dup1\n      0x00\n      add\n      0x01\n      swap1\n      sload\n      swap1\n      0x0100\n      exp\n      swap1\n      div\n      0xff\n      and\n      swap1\n      dup1\n      0x01\n      add\n      sload\n      swap1\n      pop\n      dup4\n      jump\t// out\n        /* \"dataTypesValor.sol\":994:1052  uint public balanceAddressAccount = addressAccount.balance */\n    tag_41:\n      sload(0x06)\n      dup2\n      jump\t// out\n        /* \"dataTypesValor.sol\":862:907  address public addressExternally = msg.sender */\n    tag_44:\n      0x05\n      0x00\n      swap1\n      sload\n      swap1\n      0x0100\n      exp\n      swap1\n      div\n      0xffffffffffffffffffffffffffffffffffffffff\n      and\n      dup2\n      jump\t// out\n        /* \"dataTypesValor.sol\":1767:1868  Persona public p2 = Persona ({\r... */\n    tag_48:\n      0x0e\n      dup1\n      0x00\n      add\n      0x00\n      swap1\n      sload\n      swap1\n      0x0100\n      exp\n      swap1\n      div\n      0xff\n      and\n      swap1\n      dup1\n      0x00\n      add\n      0x01\n      swap1\n      sload\n      swap1\n      0x0100\n      exp\n      swap1\n      div\n      0xff\n      and\n      swap1\n      dup1\n      0x01\n      add\n      sload\n      swap1\n      pop\n      dup4\n      jump\t// out\n        /* \"dataTypesValor.sol\":2240:2312  function addPersonas () public {\r... */\n    tag_51:\n        /* \"dataTypesValor.sol\":2304:2306  p1 */\n      0x0c\n        /* \"dataTypesValor.sol\":2278:2290  diccPersonas */\n      0x12\n        /* \"dataTypesValor.sol\":2278:2302  diccPersonas[msg.sender] */\n      0x00\n        /* \"dataTypesValor.sol\":2291:2301  msg.sender */\n      caller\n        /* \"dataTypesValor.sol\":2278:2302  diccPersonas[msg.sender] */\n      0xffffffffffffffffffffffffffffffffffffffff\n      and\n      0xffffffffffffffffffffffffffffffffffffffff\n      and\n      dup2\n      mstore\n      0x20\n      add\n      swap1\n      dup2\n      mstore\n      0x20\n      add\n      0x00\n      keccak256\n        /* \"dataTypesValor.sol\":2278:2306  diccPersonas[msg.sender]= p1 */\n      0x00\n      dup3\n      add\n      0x00\n      swap1\n      sload\n      swap1\n      0x0100\n      exp\n      swap1\n      div\n      0xff\n      and\n      dup2\n      0x00\n      add\n      exp(0x0100, 0x00)\n      dup2\n      sload\n      dup2\n      0xff\n      mul\n      not\n      and\n      swap1\n      dup4\n      iszero\n      iszero\n      mul\n      or\n      swap1\n      sstore\n      pop\n      0x00\n      dup3\n      add\n      0x01\n      swap1\n      sload\n      swap1\n      0x0100\n      exp\n      swap1\n      div\n      0xff\n      and\n      dup2\n      0x00\n      add\n      exp(0x0100, 0x01)\n      dup2\n      sload\n      dup2\n      0xff\n      mul\n      not\n      and\n      swap1\n      dup4\n      0xff\n      and\n      mul\n      or\n      swap1\n      sstore\n      pop\n      0x01\n      dup3\n      add\n      sload\n      dup2\n      0x01\n      add\n      sstore\n      swap1\n      pop\n      pop\n        /* \"dataTypesValor.sol\":2240:2312  function addPersonas () public {\r... */\n      jump\t// out\n        /* \"dataTypesValor.sol\":712:757  address public addressAccount = address(this) */\n    tag_53:\n      0x04\n      0x05\n      swap1\n      sload\n      swap1\n      0x0100\n      exp\n      swap1\n      div\n      0xffffffffffffffffffffffffffffffffffffffff\n      and\n      dup2\n      jump\t// out\n        /* \"dataTypesValor.sol\":1988:2032  mapping (int => string) public mappingFrutas */\n    tag_58:\n      mstore(0x20, 0x11)\n      dup1\n      0x00\n      mstore\n      keccak256(0x00, 0x40)\n      0x00\n      swap2\n      pop\n      swap1\n      pop\n      dup1\n      sload\n      tag_71\n      swap1\n      tag_72\n      jump\t// in\n    tag_71:\n      dup1\n      0x1f\n      add\n      0x20\n      dup1\n      swap2\n      div\n      mul\n      0x20\n      add\n      mload(0x40)\n      swap1\n      dup2\n      add\n      0x40\n      mstore\n      dup1\n      swap3\n      swap2\n      swap1\n      dup2\n      dup2\n      mstore\n      0x20\n      add\n      dup3\n      dup1\n      sload\n      tag_73\n      swap1\n      tag_72\n      jump\t// in\n    tag_73:\n      dup1\n      iszero\n      tag_74\n      jumpi\n      dup1\n      0x1f\n      lt\n      tag_75\n      jumpi\n      0x0100\n      dup1\n      dup4\n      sload\n      div\n      mul\n      dup4\n      mstore\n      swap2\n      0x20\n      add\n      swap2\n      jump(tag_74)\n    tag_75:\n      dup3\n      add\n      swap2\n      swap1\n      0x00\n      mstore\n      keccak256(0x00, 0x20)\n      swap1\n    tag_76:\n      dup2\n      sload\n      dup2\n      mstore\n      swap1\n      0x01\n      add\n      swap1\n      0x20\n      add\n      dup1\n      dup4\n      gt\n      tag_76\n      jumpi\n      dup3\n      swap1\n      sub\n      0x1f\n      and\n      dup3\n      add\n      swap2\n    tag_74:\n      pop\n      pop\n      pop\n      pop\n      pop\n      dup2\n      jump\t// out\n        /* \"dataTypesValor.sol\":1712:1760  Persona public p1 = Persona (true, 39, \"Esther\") */\n    tag_62:\n      0x0c\n      dup1\n      0x00\n      add\n      0x00\n      swap1\n      sload\n      swap1\n      0x0100\n      exp\n      swap1\n      div\n      0xff\n      and\n      swap1\n      dup1\n      0x00\n      add\n      0x01\n      swap1\n      sload\n      swap1\n      0x0100\n      exp\n      swap1\n      div\n      0xff\n      and\n      swap1\n      dup1\n      0x01\n      add\n      sload\n      swap1\n      pop\n      dup4\n      jump\t// out\n        /* \"dataTypesValor.sol\":2093:2227  function addFruta() public {\r... */\n    tag_65:\n        /* \"dataTypesValor.sol\":2127:2153  mappingFrutas[1] = \"fresa\" */\n      mload(0x40)\n      dup1\n      0x40\n      add\n      0x40\n      mstore\n      dup1\n      0x05\n      dup2\n      mstore\n      0x20\n      add\n      0x6672657361000000000000000000000000000000000000000000000000000000\n      dup2\n      mstore\n      pop\n        /* \"dataTypesValor.sol\":2127:2140  mappingFrutas */\n      0x11\n        /* \"dataTypesValor.sol\":2127:2143  mappingFrutas[1] */\n      0x00\n        /* \"dataTypesValor.sol\":2141:2142  1 */\n      0x01\n        /* \"dataTypesValor.sol\":2127:2143  mappingFrutas[1] */\n      dup2\n      mstore\n      0x20\n      add\n      swap1\n      dup2\n      mstore\n      0x20\n      add\n      0x00\n      keccak256\n        /* \"dataTypesValor.sol\":2127:2153  mappingFrutas[1] = \"fresa\" */\n      swap1\n      dup1\n      mload\n      swap1\n      0x20\n      add\n      swap1\n      tag_78\n      swap3\n      swap2\n      swap1\n      tag_79\n      jump\t// in\n    tag_78:\n      pop\n        /* \"dataTypesValor.sol\":2160:2188  mappingFrutas[5] = \"manzana\" */\n      mload(0x40)\n      dup1\n      0x40\n      add\n      0x40\n      mstore\n      dup1\n      0x07\n      dup2\n      mstore\n      0x20\n      add\n      0x6d616e7a616e6100000000000000000000000000000000000000000000000000\n      dup2\n      mstore\n      pop\n        /* \"dataTypesValor.sol\":2160:2173  mappingFrutas */\n      0x11\n        /* \"dataTypesValor.sol\":2160:2176  mappingFrutas[5] */\n      0x00\n        /* \"dataTypesValor.sol\":2174:2175  5 */\n      0x05\n        /* \"dataTypesValor.sol\":2160:2176  mappingFrutas[5] */\n      dup2\n      mstore\n      0x20\n      add\n      swap1\n      dup2\n      mstore\n      0x20\n      add\n      0x00\n      keccak256\n        /* \"dataTypesValor.sol\":2160:2188  mappingFrutas[5] = \"manzana\" */\n      swap1\n      dup1\n      mload\n      swap1\n      0x20\n      add\n      swap1\n      tag_80\n      swap3\n      swap2\n      swap1\n      tag_79\n      jump\t// in\n    tag_80:\n      pop\n        /* \"dataTypesValor.sol\":2195:2221  mappingFrutas[4] = \"melon\" */\n      mload(0x40)\n      dup1\n      0x40\n      add\n      0x40\n      mstore\n      dup1\n      0x05\n      dup2\n      mstore\n      0x20\n      add\n      0x6d656c6f6e000000000000000000000000000000000000000000000000000000\n      dup2\n      mstore\n      pop\n        /* \"dataTypesValor.sol\":2195:2208  mappingFrutas */\n      0x11\n        /* \"dataTypesValor.sol\":2195:2211  mappingFrutas[4] */\n      0x00\n        /* \"dataTypesValor.sol\":2209:2210  4 */\n      0x04\n        /* \"dataTypesValor.sol\":2195:2211  mappingFrutas[4] */\n      dup2\n      mstore\n      0x20\n      add\n      swap1\n      dup2\n      mstore\n      0x20\n      add\n      0x00\n      keccak256\n        /* \"dataTypesValor.sol\":2195:2221  mappingFrutas[4] = \"melon\" */\n      swap1\n      dup1\n      mload\n      swap1\n      0x20\n      add\n      swap1\n      tag_81\n      swap3\n      swap2\n      swap1\n      tag_79\n      jump\t// in\n    tag_81:\n      pop\n        /* \"dataTypesValor.sol\":2093:2227  function addFruta() public {\r... */\n      jump\t// out\n        /* \"dataTypesValor.sol\":2316:2366  mapping (address => Persona) public mappingPersona */\n    tag_68:\n      mstore(0x20, 0x13)\n      dup1\n      0x00\n      mstore\n      keccak256(0x00, 0x40)\n      0x00\n      swap2\n      pop\n      swap1\n      pop\n      dup1\n      0x00\n      add\n      0x00\n      swap1\n      sload\n      swap1\n      0x0100\n      exp\n      swap1\n      div\n      0xff\n      and\n      swap1\n      dup1\n      0x00\n      add\n      0x01\n      swap1\n      sload\n      swap1\n      0x0100\n      exp\n      swap1\n      div\n      0xff\n      and\n      swap1\n      dup1\n      0x01\n      add\n      sload\n      swap1\n      pop\n      dup4\n      jump\t// out\n    tag_79:\n      dup3\n      dup1\n      sload\n      tag_82\n      swap1\n      tag_72\n      jump\t// in\n    tag_82:\n      swap1\n      0x00\n      mstore\n      keccak256(0x00, 0x20)\n      swap1\n      0x1f\n      add\n      0x20\n      swap1\n      div\n      dup2\n      add\n      swap3\n      dup3\n      tag_84\n      jumpi\n      0x00\n      dup6\n      sstore\n      jump(tag_83)\n    tag_84:\n      dup3\n      0x1f\n      lt\n      tag_85\n      jumpi\n      dup1\n      mload\n      not(0xff)\n      and\n      dup4\n      dup1\n      add\n      or\n      dup6\n      sstore\n      jump(tag_83)\n    tag_85:\n      dup3\n      dup1\n      add\n      0x01\n      add\n      dup6\n      sstore\n      dup3\n      iszero\n      tag_83\n      jumpi\n      swap2\n      dup3\n      add\n    tag_86:\n      dup3\n      dup2\n      gt\n      iszero\n      tag_87\n      jumpi\n      dup3\n      mload\n      dup3\n      sstore\n      swap2\n      0x20\n      add\n      swap2\n      swap1\n      0x01\n      add\n      swap1\n      jump(tag_86)\n    tag_87:\n    tag_83:\n      pop\n      swap1\n      pop\n      tag_88\n      swap2\n      swap1\n      tag_89\n      jump\t// in\n    tag_88:\n      pop\n      swap1\n      jump\t// out\n    tag_89:\n    tag_90:\n      dup1\n      dup3\n      gt\n      iszero\n      tag_91\n      jumpi\n      0x00\n      dup2\n      0x00\n      swap1\n      sstore\n      pop\n      0x01\n      add\n      jump(tag_90)\n    tag_91:\n      pop\n      swap1\n      jump\t// out\n        /* \"#utility.yul\":7:146   */\n    tag_93:\n        /* \"#utility.yul\":53:58   */\n      0x00\n        /* \"#utility.yul\":91:97   */\n      dup2\n        /* \"#utility.yul\":78:98   */\n      calldataload\n        /* \"#utility.yul\":69:98   */\n      swap1\n      pop\n        /* \"#utility.yul\":107:140   */\n      tag_95\n        /* \"#utility.yul\":134:139   */\n      dup2\n        /* \"#utility.yul\":107:140   */\n      tag_96\n      jump\t// in\n    tag_95:\n        /* \"#utility.yul\":7:146   */\n      swap3\n      swap2\n      pop\n      pop\n      jump\t// out\n        /* \"#utility.yul\":152:289   */\n    tag_97:\n        /* \"#utility.yul\":197:202   */\n      0x00\n        /* \"#utility.yul\":235:241   */\n      dup2\n        /* \"#utility.yul\":222:242   */\n      calldataload\n        /* \"#utility.yul\":213:242   */\n      swap1\n      pop\n        /* \"#utility.yul\":251:283   */\n      tag_99\n        /* \"#utility.yul\":277:282   */\n      dup2\n        /* \"#utility.yul\":251:283   */\n      tag_100\n      jump\t// in\n    tag_99:\n        /* \"#utility.yul\":152:289   */\n      swap3\n      swap2\n      pop\n      pop\n      jump\t// out\n        /* \"#utility.yul\":295:624   */\n    tag_36:\n        /* \"#utility.yul\":354:360   */\n      0x00\n        /* \"#utility.yul\":403:405   */\n      0x20\n        /* \"#utility.yul\":391:400   */\n      dup3\n        /* \"#utility.yul\":382:389   */\n      dup5\n        /* \"#utility.yul\":378:401   */\n      sub\n        /* \"#utility.yul\":374:406   */\n      slt\n        /* \"#utility.yul\":371:490   */\n      iszero\n      tag_102\n      jumpi\n        /* \"#utility.yul\":409:488   */\n      tag_103\n      tag_104\n      jump\t// in\n    tag_103:\n        /* \"#utility.yul\":371:490   */\n    tag_102:\n        /* \"#utility.yul\":529:530   */\n      0x00\n        /* \"#utility.yul\":554:607   */\n      tag_105\n        /* \"#utility.yul\":599:606   */\n      dup5\n        /* \"#utility.yul\":590:596   */\n      dup3\n        /* \"#utility.yul\":579:588   */\n      dup6\n        /* \"#utility.yul\":575:597   */\n      add\n        /* \"#utility.yul\":554:607   */\n      tag_93\n      jump\t// in\n    tag_105:\n        /* \"#utility.yul\":544:607   */\n      swap2\n      pop\n        /* \"#utility.yul\":500:617   */\n      pop\n        /* \"#utility.yul\":295:624   */\n      swap3\n      swap2\n      pop\n      pop\n      jump\t// out\n        /* \"#utility.yul\":630:957   */\n    tag_57:\n        /* \"#utility.yul\":688:694   */\n      0x00\n        /* \"#utility.yul\":737:739   */\n      0x20\n        /* \"#utility.yul\":725:734   */\n      dup3\n        /* \"#utility.yul\":716:723   */\n      dup5\n        /* \"#utility.yul\":712:735   */\n      sub\n        /* \"#utility.yul\":708:740   */\n      slt\n        /* \"#utility.yul\":705:824   */\n      iszero\n      tag_107\n      jumpi\n        /* \"#utility.yul\":743:822   */\n      tag_108\n      tag_104\n      jump\t// in\n    tag_108:\n        /* \"#utility.yul\":705:824   */\n    tag_107:\n        /* \"#utility.yul\":863:864   */\n      0x00\n        /* \"#utility.yul\":888:940   */\n      tag_109\n        /* \"#utility.yul\":932:939   */\n      dup5\n        /* \"#utility.yul\":923:929   */\n      dup3\n        /* \"#utility.yul\":912:921   */\n      dup6\n        /* \"#utility.yul\":908:930   */\n      add\n        /* \"#utility.yul\":888:940   */\n      tag_97\n      jump\t// in\n    tag_109:\n        /* \"#utility.yul\":878:940   */\n      swap2\n      pop\n        /* \"#utility.yul\":834:950   */\n      pop\n        /* \"#utility.yul\":630:957   */\n      swap3\n      swap2\n      pop\n      pop\n      jump\t// out\n        /* \"#utility.yul\":963:1081   */\n    tag_110:\n        /* \"#utility.yul\":1050:1074   */\n      tag_112\n        /* \"#utility.yul\":1068:1073   */\n      dup2\n        /* \"#utility.yul\":1050:1074   */\n      tag_113\n      jump\t// in\n    tag_112:\n        /* \"#utility.yul\":1045:1048   */\n      dup3\n        /* \"#utility.yul\":1038:1075   */\n      mstore\n        /* \"#utility.yul\":963:1081   */\n      pop\n      pop\n      jump\t// out\n        /* \"#utility.yul\":1087:1196   */\n    tag_114:\n        /* \"#utility.yul\":1168:1189   */\n      tag_116\n        /* \"#utility.yul\":1183:1188   */\n      dup2\n        /* \"#utility.yul\":1168:1189   */\n      tag_117\n      jump\t// in\n    tag_116:\n        /* \"#utility.yul\":1163:1166   */\n      dup3\n        /* \"#utility.yul\":1156:1190   */\n      mstore\n        /* \"#utility.yul\":1087:1196   */\n      pop\n      pop\n      jump\t// out\n        /* \"#utility.yul\":1202:1320   */\n    tag_118:\n        /* \"#utility.yul\":1289:1313   */\n      tag_120\n        /* \"#utility.yul\":1307:1312   */\n      dup2\n        /* \"#utility.yul\":1289:1313   */\n      tag_121\n      jump\t// in\n    tag_120:\n        /* \"#utility.yul\":1284:1287   */\n      dup3\n        /* \"#utility.yul\":1277:1314   */\n      mstore\n        /* \"#utility.yul\":1202:1320   */\n      pop\n      pop\n      jump\t// out\n        /* \"#utility.yul\":1326:1690   */\n    tag_122:\n        /* \"#utility.yul\":1414:1417   */\n      0x00\n        /* \"#utility.yul\":1442:1481   */\n      tag_124\n        /* \"#utility.yul\":1475:1480   */\n      dup3\n        /* \"#utility.yul\":1442:1481   */\n      tag_125\n      jump\t// in\n    tag_124:\n        /* \"#utility.yul\":1497:1568   */\n      tag_126\n        /* \"#utility.yul\":1561:1567   */\n      dup2\n        /* \"#utility.yul\":1556:1559   */\n      dup6\n        /* \"#utility.yul\":1497:1568   */\n      tag_127\n      jump\t// in\n    tag_126:\n        /* \"#utility.yul\":1490:1568   */\n      swap4\n      pop\n        /* \"#utility.yul\":1577:1629   */\n      tag_128\n        /* \"#utility.yul\":1622:1628   */\n      dup2\n        /* \"#utility.yul\":1617:1620   */\n      dup6\n        /* \"#utility.yul\":1610:1614   */\n      0x20\n        /* \"#utility.yul\":1603:1608   */\n      dup7\n        /* \"#utility.yul\":1599:1615   */\n      add\n        /* \"#utility.yul\":1577:1629   */\n      tag_129\n      jump\t// in\n    tag_128:\n        /* \"#utility.yul\":1654:1683   */\n      tag_130\n        /* \"#utility.yul\":1676:1682   */\n      dup2\n        /* \"#utility.yul\":1654:1683   */\n      tag_131\n      jump\t// in\n    tag_130:\n        /* \"#utility.yul\":1649:1652   */\n      dup5\n        /* \"#utility.yul\":1645:1684   */\n      add\n        /* \"#utility.yul\":1638:1684   */\n      swap2\n      pop\n        /* \"#utility.yul\":1418:1690   */\n      pop\n        /* \"#utility.yul\":1326:1690   */\n      swap3\n      swap2\n      pop\n      pop\n      jump\t// out\n        /* \"#utility.yul\":1696:1814   */\n    tag_132:\n        /* \"#utility.yul\":1783:1807   */\n      tag_134\n        /* \"#utility.yul\":1801:1806   */\n      dup2\n        /* \"#utility.yul\":1783:1807   */\n      tag_135\n      jump\t// in\n    tag_134:\n        /* \"#utility.yul\":1778:1781   */\n      dup3\n        /* \"#utility.yul\":1771:1808   */\n      mstore\n        /* \"#utility.yul\":1696:1814   */\n      pop\n      pop\n      jump\t// out\n        /* \"#utility.yul\":1820:1932   */\n    tag_136:\n        /* \"#utility.yul\":1903:1925   */\n      tag_138\n        /* \"#utility.yul\":1919:1924   */\n      dup2\n        /* \"#utility.yul\":1903:1925   */\n      tag_139\n      jump\t// in\n    tag_138:\n        /* \"#utility.yul\":1898:1901   */\n      dup3\n        /* \"#utility.yul\":1891:1926   */\n      mstore\n        /* \"#utility.yul\":1820:1932   */\n      pop\n      pop\n      jump\t// out\n        /* \"#utility.yul\":1938:2160   */\n    tag_46:\n        /* \"#utility.yul\":2031:2035   */\n      0x00\n        /* \"#utility.yul\":2069:2071   */\n      0x20\n        /* \"#utility.yul\":2058:2067   */\n      dup3\n        /* \"#utility.yul\":2054:2072   */\n      add\n        /* \"#utility.yul\":2046:2072   */\n      swap1\n      pop\n        /* \"#utility.yul\":2082:2153   */\n      tag_141\n        /* \"#utility.yul\":2150:2151   */\n      0x00\n        /* \"#utility.yul\":2139:2148   */\n      dup4\n        /* \"#utility.yul\":2135:2152   */\n      add\n        /* \"#utility.yul\":2126:2132   */\n      dup5\n        /* \"#utility.yul\":2082:2153   */\n      tag_110\n      jump\t// in\n    tag_141:\n        /* \"#utility.yul\":1938:2160   */\n      swap3\n      swap2\n      pop\n      pop\n      jump\t// out\n        /* \"#utility.yul\":2166:2588   */\n    tag_39:\n        /* \"#utility.yul\":2305:2309   */\n      0x00\n        /* \"#utility.yul\":2343:2345   */\n      0x60\n        /* \"#utility.yul\":2332:2341   */\n      dup3\n        /* \"#utility.yul\":2328:2346   */\n      add\n        /* \"#utility.yul\":2320:2346   */\n      swap1\n      pop\n        /* \"#utility.yul\":2356:2421   */\n      tag_143\n        /* \"#utility.yul\":2418:2419   */\n      0x00\n        /* \"#utility.yul\":2407:2416   */\n      dup4\n        /* \"#utility.yul\":2403:2420   */\n      add\n        /* \"#utility.yul\":2394:2400   */\n      dup7\n        /* \"#utility.yul\":2356:2421   */\n      tag_114\n      jump\t// in\n    tag_143:\n        /* \"#utility.yul\":2431:2499   */\n      tag_144\n        /* \"#utility.yul\":2495:2497   */\n      0x20\n        /* \"#utility.yul\":2484:2493   */\n      dup4\n        /* \"#utility.yul\":2480:2498   */\n      add\n        /* \"#utility.yul\":2471:2477   */\n      dup6\n        /* \"#utility.yul\":2431:2499   */\n      tag_136\n      jump\t// in\n    tag_144:\n        /* \"#utility.yul\":2509:2581   */\n      tag_145\n        /* \"#utility.yul\":2577:2579   */\n      0x40\n        /* \"#utility.yul\":2566:2575   */\n      dup4\n        /* \"#utility.yul\":2562:2580   */\n      add\n        /* \"#utility.yul\":2553:2559   */\n      dup5\n        /* \"#utility.yul\":2509:2581   */\n      tag_118\n      jump\t// in\n    tag_145:\n        /* \"#utility.yul\":2166:2588   */\n      swap5\n      swap4\n      pop\n      pop\n      pop\n      pop\n      jump\t// out\n        /* \"#utility.yul\":2594:2907   */\n    tag_60:\n        /* \"#utility.yul\":2707:2711   */\n      0x00\n        /* \"#utility.yul\":2745:2747   */\n      0x20\n        /* \"#utility.yul\":2734:2743   */\n      dup3\n        /* \"#utility.yul\":2730:2748   */\n      add\n        /* \"#utility.yul\":2722:2748   */\n      swap1\n      pop\n        /* \"#utility.yul\":2794:2803   */\n      dup2\n        /* \"#utility.yul\":2788:2792   */\n      dup2\n        /* \"#utility.yul\":2784:2804   */\n      sub\n        /* \"#utility.yul\":2780:2781   */\n      0x00\n        /* \"#utility.yul\":2769:2778   */\n      dup4\n        /* \"#utility.yul\":2765:2782   */\n      add\n        /* \"#utility.yul\":2758:2805   */\n      mstore\n        /* \"#utility.yul\":2822:2900   */\n      tag_147\n        /* \"#utility.yul\":2895:2899   */\n      dup2\n        /* \"#utility.yul\":2886:2892   */\n      dup5\n        /* \"#utility.yul\":2822:2900   */\n      tag_122\n      jump\t// in\n    tag_147:\n        /* \"#utility.yul\":2814:2900   */\n      swap1\n      pop\n        /* \"#utility.yul\":2594:2907   */\n      swap3\n      swap2\n      pop\n      pop\n      jump\t// out\n        /* \"#utility.yul\":2913:3135   */\n    tag_23:\n        /* \"#utility.yul\":3006:3010   */\n      0x00\n        /* \"#utility.yul\":3044:3046   */\n      0x20\n        /* \"#utility.yul\":3033:3042   */\n      dup3\n        /* \"#utility.yul\":3029:3047   */\n      add\n        /* \"#utility.yul\":3021:3047   */\n      swap1\n      pop\n        /* \"#utility.yul\":3057:3128   */\n      tag_149\n        /* \"#utility.yul\":3125:3126   */\n      0x00\n        /* \"#utility.yul\":3114:3123   */\n      dup4\n        /* \"#utility.yul\":3110:3127   */\n      add\n        /* \"#utility.yul\":3101:3107   */\n      dup5\n        /* \"#utility.yul\":3057:3128   */\n      tag_132\n      jump\t// in\n    tag_149:\n        /* \"#utility.yul\":2913:3135   */\n      swap3\n      swap2\n      pop\n      pop\n      jump\t// out\n        /* \"#utility.yul\":3141:3355   */\n    tag_33:\n        /* \"#utility.yul\":3230:3234   */\n      0x00\n        /* \"#utility.yul\":3268:3270   */\n      0x20\n        /* \"#utility.yul\":3257:3266   */\n      dup3\n        /* \"#utility.yul\":3253:3271   */\n      add\n        /* \"#utility.yul\":3245:3271   */\n      swap1\n      pop\n        /* \"#utility.yul\":3281:3348   */\n      tag_151\n        /* \"#utility.yul\":3345:3346   */\n      0x00\n        /* \"#utility.yul\":3334:3343   */\n      dup4\n        /* \"#utility.yul\":3330:3347   */\n      add\n        /* \"#utility.yul\":3321:3327   */\n      dup5\n        /* \"#utility.yul\":3281:3348   */\n      tag_136\n      jump\t// in\n    tag_151:\n        /* \"#utility.yul\":3141:3355   */\n      swap3\n      swap2\n      pop\n      pop\n      jump\t// out\n        /* \"#utility.yul\":3442:3541   */\n    tag_125:\n        /* \"#utility.yul\":3494:3500   */\n      0x00\n        /* \"#utility.yul\":3528:3533   */\n      dup2\n        /* \"#utility.yul\":3522:3534   */\n      mload\n        /* \"#utility.yul\":3512:3534   */\n      swap1\n      pop\n        /* \"#utility.yul\":3442:3541   */\n      swap2\n      swap1\n      pop\n      jump\t// out\n        /* \"#utility.yul\":3547:3716   */\n    tag_127:\n        /* \"#utility.yul\":3631:3642   */\n      0x00\n        /* \"#utility.yul\":3665:3671   */\n      dup3\n        /* \"#utility.yul\":3660:3663   */\n      dup3\n        /* \"#utility.yul\":3653:3672   */\n      mstore\n        /* \"#utility.yul\":3705:3709   */\n      0x20\n        /* \"#utility.yul\":3700:3703   */\n      dup3\n        /* \"#utility.yul\":3696:3710   */\n      add\n        /* \"#utility.yul\":3681:3710   */\n      swap1\n      pop\n        /* \"#utility.yul\":3547:3716   */\n      swap3\n      swap2\n      pop\n      pop\n      jump\t// out\n        /* \"#utility.yul\":3722:3818   */\n    tag_113:\n        /* \"#utility.yul\":3759:3766   */\n      0x00\n        /* \"#utility.yul\":3788:3812   */\n      tag_157\n        /* \"#utility.yul\":3806:3811   */\n      dup3\n        /* \"#utility.yul\":3788:3812   */\n      tag_158\n      jump\t// in\n    tag_157:\n        /* \"#utility.yul\":3777:3812   */\n      swap1\n      pop\n        /* \"#utility.yul\":3722:3818   */\n      swap2\n      swap1\n      pop\n      jump\t// out\n        /* \"#utility.yul\":3824:3914   */\n    tag_117:\n        /* \"#utility.yul\":3858:3865   */\n      0x00\n        /* \"#utility.yul\":3901:3906   */\n      dup2\n        /* \"#utility.yul\":3894:3907   */\n      iszero\n        /* \"#utility.yul\":3887:3908   */\n      iszero\n        /* \"#utility.yul\":3876:3908   */\n      swap1\n      pop\n        /* \"#utility.yul\":3824:3914   */\n      swap2\n      swap1\n      pop\n      jump\t// out\n        /* \"#utility.yul\":3920:3997   */\n    tag_121:\n        /* \"#utility.yul\":3957:3964   */\n      0x00\n        /* \"#utility.yul\":3986:3991   */\n      dup2\n        /* \"#utility.yul\":3975:3991   */\n      swap1\n      pop\n        /* \"#utility.yul\":3920:3997   */\n      swap2\n      swap1\n      pop\n      jump\t// out\n        /* \"#utility.yul\":4003:4079   */\n    tag_161:\n        /* \"#utility.yul\":4039:4046   */\n      0x00\n        /* \"#utility.yul\":4068:4073   */\n      dup2\n        /* \"#utility.yul\":4057:4073   */\n      swap1\n      pop\n        /* \"#utility.yul\":4003:4079   */\n      swap2\n      swap1\n      pop\n      jump\t// out\n        /* \"#utility.yul\":4085:4211   */\n    tag_158:\n        /* \"#utility.yul\":4122:4129   */\n      0x00\n        /* \"#utility.yul\":4162:4204   */\n      0xffffffffffffffffffffffffffffffffffffffff\n        /* \"#utility.yul\":4155:4160   */\n      dup3\n        /* \"#utility.yul\":4151:4205   */\n      and\n        /* \"#utility.yul\":4140:4205   */\n      swap1\n      pop\n        /* \"#utility.yul\":4085:4211   */\n      swap2\n      swap1\n      pop\n      jump\t// out\n        /* \"#utility.yul\":4217:4294   */\n    tag_135:\n        /* \"#utility.yul\":4254:4261   */\n      0x00\n        /* \"#utility.yul\":4283:4288   */\n      dup2\n        /* \"#utility.yul\":4272:4288   */\n      swap1\n      pop\n        /* \"#utility.yul\":4217:4294   */\n      swap2\n      swap1\n      pop\n      jump\t// out\n        /* \"#utility.yul\":4300:4386   */\n    tag_139:\n        /* \"#utility.yul\":4335:4342   */\n      0x00\n        /* \"#utility.yul\":4375:4379   */\n      0xff\n        /* \"#utility.yul\":4368:4373   */\n      dup3\n        /* \"#utility.yul\":4364:4380   */\n      and\n        /* \"#utility.yul\":4353:4380   */\n      swap1\n      pop\n        /* \"#utility.yul\":4300:4386   */\n      swap2\n      swap1\n      pop\n      jump\t// out\n        /* \"#utility.yul\":4392:4699   */\n    tag_129:\n        /* \"#utility.yul\":4460:4461   */\n      0x00\n        /* \"#utility.yul\":4470:4583   */\n    tag_167:\n        /* \"#utility.yul\":4484:4490   */\n      dup4\n        /* \"#utility.yul\":4481:4482   */\n      dup2\n        /* \"#utility.yul\":4478:4491   */\n      lt\n        /* \"#utility.yul\":4470:4583   */\n      iszero\n      tag_169\n      jumpi\n        /* \"#utility.yul\":4569:4570   */\n      dup1\n        /* \"#utility.yul\":4564:4567   */\n      dup3\n        /* \"#utility.yul\":4560:4571   */\n      add\n        /* \"#utility.yul\":4554:4572   */\n      mload\n        /* \"#utility.yul\":4550:4551   */\n      dup2\n        /* \"#utility.yul\":4545:4548   */\n      dup5\n        /* \"#utility.yul\":4541:4552   */\n      add\n        /* \"#utility.yul\":4534:4573   */\n      mstore\n        /* \"#utility.yul\":4506:4508   */\n      0x20\n        /* \"#utility.yul\":4503:4504   */\n      dup2\n        /* \"#utility.yul\":4499:4509   */\n      add\n        /* \"#utility.yul\":4494:4509   */\n      swap1\n      pop\n        /* \"#utility.yul\":4470:4583   */\n      jump(tag_167)\n    tag_169:\n        /* \"#utility.yul\":4601:4607   */\n      dup4\n        /* \"#utility.yul\":4598:4599   */\n      dup2\n        /* \"#utility.yul\":4595:4608   */\n      gt\n        /* \"#utility.yul\":4592:4693   */\n      iszero\n      tag_170\n      jumpi\n        /* \"#utility.yul\":4681:4682   */\n      0x00\n        /* \"#utility.yul\":4672:4678   */\n      dup5\n        /* \"#utility.yul\":4667:4670   */\n      dup5\n        /* \"#utility.yul\":4663:4679   */\n      add\n        /* \"#utility.yul\":4656:4683   */\n      mstore\n        /* \"#utility.yul\":4592:4693   */\n    tag_170:\n        /* \"#utility.yul\":4441:4699   */\n      pop\n        /* \"#utility.yul\":4392:4699   */\n      pop\n      pop\n      pop\n      jump\t// out\n        /* \"#utility.yul\":4705:5025   */\n    tag_72:\n        /* \"#utility.yul\":4749:4755   */\n      0x00\n        /* \"#utility.yul\":4786:4787   */\n      0x02\n        /* \"#utility.yul\":4780:4784   */\n      dup3\n        /* \"#utility.yul\":4776:4788   */\n      div\n        /* \"#utility.yul\":4766:4788   */\n      swap1\n      pop\n        /* \"#utility.yul\":4833:4834   */\n      0x01\n        /* \"#utility.yul\":4827:4831   */\n      dup3\n        /* \"#utility.yul\":4823:4835   */\n      and\n        /* \"#utility.yul\":4854:4872   */\n      dup1\n        /* \"#utility.yul\":4844:4925   */\n      tag_172\n      jumpi\n        /* \"#utility.yul\":4910:4914   */\n      0x7f\n        /* \"#utility.yul\":4902:4908   */\n      dup3\n        /* \"#utility.yul\":4898:4915   */\n      and\n        /* \"#utility.yul\":4888:4915   */\n      swap2\n      pop\n        /* \"#utility.yul\":4844:4925   */\n    tag_172:\n        /* \"#utility.yul\":4972:4974   */\n      0x20\n        /* \"#utility.yul\":4964:4970   */\n      dup3\n        /* \"#utility.yul\":4961:4975   */\n      lt\n        /* \"#utility.yul\":4941:4959   */\n      dup2\n        /* \"#utility.yul\":4938:4976   */\n      eq\n        /* \"#utility.yul\":4935:5019   */\n      iszero\n      tag_173\n      jumpi\n        /* \"#utility.yul\":4991:5009   */\n      tag_174\n      tag_175\n      jump\t// in\n    tag_174:\n        /* \"#utility.yul\":4935:5019   */\n    tag_173:\n        /* \"#utility.yul\":4756:5025   */\n      pop\n        /* \"#utility.yul\":4705:5025   */\n      swap2\n      swap1\n      pop\n      jump\t// out\n        /* \"#utility.yul\":5031:5211   */\n    tag_175:\n        /* \"#utility.yul\":5079:5156   */\n      0x4e487b7100000000000000000000000000000000000000000000000000000000\n        /* \"#utility.yul\":5076:5077   */\n      0x00\n        /* \"#utility.yul\":5069:5157   */\n      mstore\n        /* \"#utility.yul\":5176:5180   */\n      0x22\n        /* \"#utility.yul\":5173:5174   */\n      0x04\n        /* \"#utility.yul\":5166:5181   */\n      mstore\n        /* \"#utility.yul\":5200:5204   */\n      0x24\n        /* \"#utility.yul\":5197:5198   */\n      0x00\n        /* \"#utility.yul\":5190:5205   */\n      revert\n        /* \"#utility.yul\":5340:5457   */\n    tag_104:\n        /* \"#utility.yul\":5449:5450   */\n      0x00\n        /* \"#utility.yul\":5446:5447   */\n      dup1\n        /* \"#utility.yul\":5439:5451   */\n      revert\n        /* \"#utility.yul\":5463:5565   */\n    tag_131:\n        /* \"#utility.yul\":5504:5510   */\n      0x00\n        /* \"#utility.yul\":5555:5557   */\n      0x1f\n        /* \"#utility.yul\":5551:5558   */\n      not\n        /* \"#utility.yul\":5546:5548   */\n      0x1f\n        /* \"#utility.yul\":5539:5544   */\n      dup4\n        /* \"#utility.yul\":5535:5549   */\n      add\n        /* \"#utility.yul\":5531:5559   */\n      and\n        /* \"#utility.yul\":5521:5559   */\n      swap1\n      pop\n        /* \"#utility.yul\":5463:5565   */\n      swap2\n      swap1\n      pop\n      jump\t// out\n        /* \"#utility.yul\":5571:5693   */\n    tag_96:\n        /* \"#utility.yul\":5644:5668   */\n      tag_182\n        /* \"#utility.yul\":5662:5667   */\n      dup2\n        /* \"#utility.yul\":5644:5668   */\n      tag_113\n      jump\t// in\n    tag_182:\n        /* \"#utility.yul\":5637:5642   */\n      dup2\n        /* \"#utility.yul\":5634:5669   */\n      eq\n        /* \"#utility.yul\":5624:5687   */\n      tag_183\n      jumpi\n        /* \"#utility.yul\":5683:5684   */\n      0x00\n        /* \"#utility.yul\":5680:5681   */\n      dup1\n        /* \"#utility.yul\":5673:5685   */\n      revert\n        /* \"#utility.yul\":5624:5687   */\n    tag_183:\n        /* \"#utility.yul\":5571:5693   */\n      pop\n      jump\t// out\n        /* \"#utility.yul\":5699:5819   */\n    tag_100:\n        /* \"#utility.yul\":5771:5794   */\n      tag_185\n        /* \"#utility.yul\":5788:5793   */\n      dup2\n        /* \"#utility.yul\":5771:5794   */\n      tag_161\n      jump\t// in\n    tag_185:\n        /* \"#utility.yul\":5764:5769   */\n      dup2\n        /* \"#utility.yul\":5761:5795   */\n      eq\n        /* \"#utility.yul\":5751:5813   */\n      tag_186\n      jumpi\n        /* \"#utility.yul\":5809:5810   */\n      0x00\n        /* \"#utility.yul\":5806:5807   */\n      dup1\n        /* \"#utility.yul\":5799:5811   */\n      revert\n        /* \"#utility.yul\":5751:5813   */\n    tag_186:\n        /* \"#utility.yul\":5699:5819   */\n      pop\n      jump\t// out\n\n    auxdata: 0xa2646970667358221220bcd8c6c3ddc065eaf0df4c6779d348f9e3f80e8eb415080d3fb3fdfe6104ad1464736f6c63430008070033\n}\n",
				"bytecode": {
					"linkReferences": {},
					"object": "608060405260016000806101000a81548160ff02191690831515021790555060008060016101000a81548160ff0219169083151502179055507ffffffffffffffffffffffffffffffffffffffffffffffffffffffffffffffff86001557ffffffffffffffffffffffffffffffffffffffffffffffffffffffffffffffff8600260006101000a81548160ff021916908360000b60ff1602179055507ffffffffffffffffffffffffffffffffffffffffffffffffffffffffffffffff8600260016101000a81548161ffff021916908360010b61ffff16021790555060086003556008600460006101000a81548160ff021916908360ff1602179055506008600460016101000a81548163ffffffff021916908363ffffffff16021790555030600460056101000a81548173ffffffffffffffffffffffffffffffffffffffff021916908373ffffffffffffffffffffffffffffffffffffffff16021790555033600560006101000a81548173ffffffffffffffffffffffffffffffffffffffff021916908373ffffffffffffffffffffffffffffffffffffffff160217905550600460059054906101000a900473ffffffffffffffffffffffffffffffffffffffff1673ffffffffffffffffffffffffffffffffffffffff1631600655600560009054906101000a900473ffffffffffffffffffffffffffffffffffffffff1673ffffffffffffffffffffffffffffffffffffffff16316007557f3900000000000000000000000000000000000000000000000000000000000000600860006101000a81548160ff021916908360f81c02179055507f3930000000000000000000000000000000000000000000000000000000000000600860016101000a81548161ffff021916908360f01c02179055507f48656c6c6f20576f726c64000000000000000000000000000000000000000000600955600860009054906101000a905050600160ff16600a55600860019054906101000a905050600260ff16600b556040518060600160405280600115158152602001602760ff1681526020017f4573746865720000000000000000000000000000000000000000000000000000815250600c60008201518160000160006101000a81548160ff02191690831515021790555060208201518160000160016101000a81548160ff021916908360ff1602179055506040820151816001015550506040518060600160405280600015158152602001602760ff1681526020017f4a756c6961000000000000000000000000000000000000000000000000000000815250600e60008201518160000160006101000a81548160ff02191690831515021790555060208201518160000160016101000a81548160ff021916908360ff160217905550604082015181600101555050600c60000160019054906101000a900460ff16601060006101000a81548160ff021916908360ff16021790555034801561043b57600080fd5b50610a5b8061044b6000396000f3fe608060405234801561001057600080fd5b50600436106100ea5760003560e01c806381d01ed31161008c578063bae878ea11610066578063bae878ea1461021d578063c2a2747b1461024d578063d97ec9c01461026d578063ec4ca3c014610277576100ea565b806381d01ed3146101d557806392ed4873146101f5578063b704ed74146101ff576100ea565b80635cfd4af5116100c85780635cfd4af514610149578063645c71f014610167578063648b6450146101995780636c30c1c7146101b7576100ea565b80631bc66815146100ef578063379937a01461010d5780634de1a1b81461012b575b600080fd5b6100f76102a9565b6040516101049190610892565b60405180910390f35b6101156102af565b6040516101229190610892565b60405180910390f35b6101336102b5565b6040516101409190610892565b60405180910390f35b6101516102bb565b60405161015e91906108ad565b60405180910390f35b610181600480360381019061017c9190610740565b6102ce565b60405161019093929190610839565b60405180910390f35b6101a1610312565b6040516101ae9190610892565b60405180910390f35b6101bf610318565b6040516101cc919061081e565b60405180910390f35b6101dd61033e565b6040516101ec93929190610839565b60405180910390f35b6101fd610370565b005b61020761041b565b604051610214919061081e565b60405180910390f35b6102376004803603810190610232919061076d565b610441565b6040516102449190610870565b60405180910390f35b6102556104e1565b60405161026493929190610839565b60405180910390f35b610275610513565b005b610291600480360381019061028c9190610740565b61062f565b6040516102a093929190610839565b60405180910390f35b600a5481565b600b5481565b60075481565b601060009054906101000a900460ff1681565b60126020528060005260406000206000915090508060000160009054906101000a900460ff16908060000160019054906101000a900460ff16908060010154905083565b60065481565b600560009054906101000a900473ffffffffffffffffffffffffffffffffffffffff1681565b600e8060000160009054906101000a900460ff16908060000160019054906101000a900460ff16908060010154905083565b600c601260003373ffffffffffffffffffffffffffffffffffffffff1673ffffffffffffffffffffffffffffffffffffffff1681526020019081526020016000206000820160009054906101000a900460ff168160000160006101000a81548160ff0219169083151502179055506000820160019054906101000a900460ff168160000160016101000a81548160ff021916908360ff16021790555060018201548160010155905050565b600460059054906101000a900473ffffffffffffffffffffffffffffffffffffffff1681565b6011602052806000526040600020600091509050805461046090610980565b80601f016020809104026020016040519081016040528092919081815260200182805461048c90610980565b80156104d95780601f106104ae576101008083540402835291602001916104d9565b820191906000526020600020905b8154815290600101906020018083116104bc57829003601f168201915b505050505081565b600c8060000160009054906101000a900460ff16908060000160019054906101000a900460ff16908060010154905083565b6040518060400160405280600581526020017f667265736100000000000000000000000000000000000000000000000000000081525060116000600181526020019081526020016000209080519060200190610570929190610673565b506040518060400160405280600781526020017f6d616e7a616e6100000000000000000000000000000000000000000000000000815250601160006005815260200190815260200160002090805190602001906105ce929190610673565b506040518060400160405280600581526020017f6d656c6f6e0000000000000000000000000000000000000000000000000000008152506011600060048152602001908152602001600020908051906020019061062c929190610673565b50565b60136020528060005260406000206000915090508060000160009054906101000a900460ff16908060000160019054906101000a900460ff16908060010154905083565b82805461067f90610980565b90600052602060002090601f0160209004810192826106a157600085556106e8565b82601f106106ba57805160ff19168380011785556106e8565b828001600101855582156106e8579182015b828111156106e75782518255916020019190600101906106cc565b5b5090506106f591906106f9565b5090565b5b808211156107125760008160009055506001016106fa565b5090565b600081359050610725816109f7565b92915050565b60008135905061073a81610a0e565b92915050565b600060208284031215610756576107556109e1565b5b600061076484828501610716565b91505092915050565b600060208284031215610783576107826109e1565b5b60006107918482850161072b565b91505092915050565b6107a3816108e4565b82525050565b6107b2816108f6565b82525050565b6107c181610902565b82525050565b60006107d2826108c8565b6107dc81856108d3565b93506107ec81856020860161094d565b6107f5816109e6565b840191505092915050565b61080981610936565b82525050565b61081881610940565b82525050565b6000602082019050610833600083018461079a565b92915050565b600060608201905061084e60008301866107a9565b61085b602083018561080f565b61086860408301846107b8565b949350505050565b6000602082019050818103600083015261088a81846107c7565b905092915050565b60006020820190506108a76000830184610800565b92915050565b60006020820190506108c2600083018461080f565b92915050565b600081519050919050565b600082825260208201905092915050565b60006108ef82610916565b9050919050565b60008115159050919050565b6000819050919050565b6000819050919050565b600073ffffffffffffffffffffffffffffffffffffffff82169050919050565b6000819050919050565b600060ff82169050919050565b60005b8381101561096b578082015181840152602081019050610950565b8381111561097a576000848401525b50505050565b6000600282049050600182168061099857607f821691505b602082108114156109ac576109ab6109b2565b5b50919050565b7f4e487b7100000000000000000000000000000000000000000000000000000000600052602260045260246000fd5b600080fd5b6000601f19601f8301169050919050565b610a00816108e4565b8114610a0b57600080fd5b50565b610a178161090c565b8114610a2257600080fd5b5056fea2646970667358221220bcd8c6c3ddc065eaf0df4c6779d348f9e3f80e8eb415080d3fb3fdfe6104ad1464736f6c63430008070033",
					"opcodes": "PUSH1 0x80 PUSH1 0x40 MSTORE PUSH1 0x1 PUSH1 0x0 DUP1 PUSH2 0x100 EXP DUP2 SLOAD DUP2 PUSH1 0xFF MUL NOT AND SWAP1 DUP4 ISZERO ISZERO MUL OR SWAP1 SSTORE POP PUSH1 0x0 DUP1 PUSH1 0x1 PUSH2 0x100 EXP DUP2 SLOAD DUP2 PUSH1 0xFF MUL NOT AND SWAP1 DUP4 ISZERO ISZERO MUL OR SWAP1 SSTORE POP PUSH32 0xFFFFFFFFFFFFFFFFFFFFFFFFFFFFFFFFFFFFFFFFFFFFFFFFFFFFFFFFFFFFFFF8 PUSH1 0x1 SSTORE PUSH32 0xFFFFFFFFFFFFFFFFFFFFFFFFFFFFFFFFFFFFFFFFFFFFFFFFFFFFFFFFFFFFFFF8 PUSH1 0x2 PUSH1 0x0 PUSH2 0x100 EXP DUP2 SLOAD DUP2 PUSH1 0xFF MUL NOT AND SWAP1 DUP4 PUSH1 0x0 SIGNEXTEND PUSH1 0xFF AND MUL OR SWAP1 SSTORE POP PUSH32 0xFFFFFFFFFFFFFFFFFFFFFFFFFFFFFFFFFFFFFFFFFFFFFFFFFFFFFFFFFFFFFFF8 PUSH1 0x2 PUSH1 0x1 PUSH2 0x100 EXP DUP2 SLOAD DUP2 PUSH2 0xFFFF MUL NOT AND SWAP1 DUP4 PUSH1 0x1 SIGNEXTEND PUSH2 0xFFFF AND MUL OR SWAP1 SSTORE POP PUSH1 0x8 PUSH1 0x3 SSTORE PUSH1 0x8 PUSH1 0x4 PUSH1 0x0 PUSH2 0x100 EXP DUP2 SLOAD DUP2 PUSH1 0xFF MUL NOT AND SWAP1 DUP4 PUSH1 0xFF AND MUL OR SWAP1 SSTORE POP PUSH1 0x8 PUSH1 0x4 PUSH1 0x1 PUSH2 0x100 EXP DUP2 SLOAD DUP2 PUSH4 0xFFFFFFFF MUL NOT AND SWAP1 DUP4 PUSH4 0xFFFFFFFF AND MUL OR SWAP1 SSTORE POP ADDRESS PUSH1 0x4 PUSH1 0x5 PUSH2 0x100 EXP DUP2 SLOAD DUP2 PUSH20 0xFFFFFFFFFFFFFFFFFFFFFFFFFFFFFFFFFFFFFFFF MUL NOT AND SWAP1 DUP4 PUSH20 0xFFFFFFFFFFFFFFFFFFFFFFFFFFFFFFFFFFFFFFFF AND MUL OR SWAP1 SSTORE POP CALLER PUSH1 0x5 PUSH1 0x0 PUSH2 0x100 EXP DUP2 SLOAD DUP2 PUSH20 0xFFFFFFFFFFFFFFFFFFFFFFFFFFFFFFFFFFFFFFFF MUL NOT AND SWAP1 DUP4 PUSH20 0xFFFFFFFFFFFFFFFFFFFFFFFFFFFFFFFFFFFFFFFF AND MUL OR SWAP1 SSTORE POP PUSH1 0x4 PUSH1 0x5 SWAP1 SLOAD SWAP1 PUSH2 0x100 EXP SWAP1 DIV PUSH20 0xFFFFFFFFFFFFFFFFFFFFFFFFFFFFFFFFFFFFFFFF AND PUSH20 0xFFFFFFFFFFFFFFFFFFFFFFFFFFFFFFFFFFFFFFFF AND BALANCE PUSH1 0x6 SSTORE PUSH1 0x5 PUSH1 0x0 SWAP1 SLOAD SWAP1 PUSH2 0x100 EXP SWAP1 DIV PUSH20 0xFFFFFFFFFFFFFFFFFFFFFFFFFFFFFFFFFFFFFFFF AND PUSH20 0xFFFFFFFFFFFFFFFFFFFFFFFFFFFFFFFFFFFFFFFF AND BALANCE PUSH1 0x7 SSTORE PUSH32 0x3900000000000000000000000000000000000000000000000000000000000000 PUSH1 0x8 PUSH1 0x0 PUSH2 0x100 EXP DUP2 SLOAD DUP2 PUSH1 0xFF MUL NOT AND SWAP1 DUP4 PUSH1 0xF8 SHR MUL OR SWAP1 SSTORE POP PUSH32 0x3930000000000000000000000000000000000000000000000000000000000000 PUSH1 0x8 PUSH1 0x1 PUSH2 0x100 EXP DUP2 SLOAD DUP2 PUSH2 0xFFFF MUL NOT AND SWAP1 DUP4 PUSH1 0xF0 SHR MUL OR SWAP1 SSTORE POP PUSH32 0x48656C6C6F20576F726C64000000000000000000000000000000000000000000 PUSH1 0x9 SSTORE PUSH1 0x8 PUSH1 0x0 SWAP1 SLOAD SWAP1 PUSH2 0x100 EXP SWAP1 POP POP PUSH1 0x1 PUSH1 0xFF AND PUSH1 0xA SSTORE PUSH1 0x8 PUSH1 0x1 SWAP1 SLOAD SWAP1 PUSH2 0x100 EXP SWAP1 POP POP PUSH1 0x2 PUSH1 0xFF AND PUSH1 0xB SSTORE PUSH1 0x40 MLOAD DUP1 PUSH1 0x60 ADD PUSH1 0x40 MSTORE DUP1 PUSH1 0x1 ISZERO ISZERO DUP2 MSTORE PUSH1 0x20 ADD PUSH1 0x27 PUSH1 0xFF AND DUP2 MSTORE PUSH1 0x20 ADD PUSH32 0x4573746865720000000000000000000000000000000000000000000000000000 DUP2 MSTORE POP PUSH1 0xC PUSH1 0x0 DUP3 ADD MLOAD DUP2 PUSH1 0x0 ADD PUSH1 0x0 PUSH2 0x100 EXP DUP2 SLOAD DUP2 PUSH1 0xFF MUL NOT AND SWAP1 DUP4 ISZERO ISZERO MUL OR SWAP1 SSTORE POP PUSH1 0x20 DUP3 ADD MLOAD DUP2 PUSH1 0x0 ADD PUSH1 0x1 PUSH2 0x100 EXP DUP2 SLOAD DUP2 PUSH1 0xFF MUL NOT AND SWAP1 DUP4 PUSH1 0xFF AND MUL OR SWAP1 SSTORE POP PUSH1 0x40 DUP3 ADD MLOAD DUP2 PUSH1 0x1 ADD SSTORE POP POP PUSH1 0x40 MLOAD DUP1 PUSH1 0x60 ADD PUSH1 0x40 MSTORE DUP1 PUSH1 0x0 ISZERO ISZERO DUP2 MSTORE PUSH1 0x20 ADD PUSH1 0x27 PUSH1 0xFF AND DUP2 MSTORE PUSH1 0x20 ADD PUSH32 0x4A756C6961000000000000000000000000000000000000000000000000000000 DUP2 MSTORE POP PUSH1 0xE PUSH1 0x0 DUP3 ADD MLOAD DUP2 PUSH1 0x0 ADD PUSH1 0x0 PUSH2 0x100 EXP DUP2 SLOAD DUP2 PUSH1 0xFF MUL NOT AND SWAP1 DUP4 ISZERO ISZERO MUL OR SWAP1 SSTORE POP PUSH1 0x20 DUP3 ADD MLOAD DUP2 PUSH1 0x0 ADD PUSH1 0x1 PUSH2 0x100 EXP DUP2 SLOAD DUP2 PUSH1 0xFF MUL NOT AND SWAP1 DUP4 PUSH1 0xFF AND MUL OR SWAP1 SSTORE POP PUSH1 0x40 DUP3 ADD MLOAD DUP2 PUSH1 0x1 ADD SSTORE POP POP PUSH1 0xC PUSH1 0x0 ADD PUSH1 0x1 SWAP1 SLOAD SWAP1 PUSH2 0x100 EXP SWAP1 DIV PUSH1 0xFF AND PUSH1 0x10 PUSH1 0x0 PUSH2 0x100 EXP DUP2 SLOAD DUP2 PUSH1 0xFF MUL NOT AND SWAP1 DUP4 PUSH1 0xFF AND MUL OR SWAP1 SSTORE POP CALLVALUE DUP1 ISZERO PUSH2 0x43B JUMPI PUSH1 0x0 DUP1 REVERT JUMPDEST POP PUSH2 0xA5B DUP1 PUSH2 0x44B PUSH1 0x0 CODECOPY PUSH1 0x0 RETURN INVALID PUSH1 0x80 PUSH1 0x40 MSTORE CALLVALUE DUP1 ISZERO PUSH2 0x10 JUMPI PUSH1 0x0 DUP1 REVERT JUMPDEST POP PUSH1 0x4 CALLDATASIZE LT PUSH2 0xEA JUMPI PUSH1 0x0 CALLDATALOAD PUSH1 0xE0 SHR DUP1 PUSH4 0x81D01ED3 GT PUSH2 0x8C JUMPI DUP1 PUSH4 0xBAE878EA GT PUSH2 0x66 JUMPI DUP1 PUSH4 0xBAE878EA EQ PUSH2 0x21D JUMPI DUP1 PUSH4 0xC2A2747B EQ PUSH2 0x24D JUMPI DUP1 PUSH4 0xD97EC9C0 EQ PUSH2 0x26D JUMPI DUP1 PUSH4 0xEC4CA3C0 EQ PUSH2 0x277 JUMPI PUSH2 0xEA JUMP JUMPDEST DUP1 PUSH4 0x81D01ED3 EQ PUSH2 0x1D5 JUMPI DUP1 PUSH4 0x92ED4873 EQ PUSH2 0x1F5 JUMPI DUP1 PUSH4 0xB704ED74 EQ PUSH2 0x1FF JUMPI PUSH2 0xEA JUMP JUMPDEST DUP1 PUSH4 0x5CFD4AF5 GT PUSH2 0xC8 JUMPI DUP1 PUSH4 0x5CFD4AF5 EQ PUSH2 0x149 JUMPI DUP1 PUSH4 0x645C71F0 EQ PUSH2 0x167 JUMPI DUP1 PUSH4 0x648B6450 EQ PUSH2 0x199 JUMPI DUP1 PUSH4 0x6C30C1C7 EQ PUSH2 0x1B7 JUMPI PUSH2 0xEA JUMP JUMPDEST DUP1 PUSH4 0x1BC66815 EQ PUSH2 0xEF JUMPI DUP1 PUSH4 0x379937A0 EQ PUSH2 0x10D JUMPI DUP1 PUSH4 0x4DE1A1B8 EQ PUSH2 0x12B JUMPI JUMPDEST PUSH1 0x0 DUP1 REVERT JUMPDEST PUSH2 0xF7 PUSH2 0x2A9 JUMP JUMPDEST PUSH1 0x40 MLOAD PUSH2 0x104 SWAP2 SWAP1 PUSH2 0x892 JUMP JUMPDEST PUSH1 0x40 MLOAD DUP1 SWAP2 SUB SWAP1 RETURN JUMPDEST PUSH2 0x115 PUSH2 0x2AF JUMP JUMPDEST PUSH1 0x40 MLOAD PUSH2 0x122 SWAP2 SWAP1 PUSH2 0x892 JUMP JUMPDEST PUSH1 0x40 MLOAD DUP1 SWAP2 SUB SWAP1 RETURN JUMPDEST PUSH2 0x133 PUSH2 0x2B5 JUMP JUMPDEST PUSH1 0x40 MLOAD PUSH2 0x140 SWAP2 SWAP1 PUSH2 0x892 JUMP JUMPDEST PUSH1 0x40 MLOAD DUP1 SWAP2 SUB SWAP1 RETURN JUMPDEST PUSH2 0x151 PUSH2 0x2BB JUMP JUMPDEST PUSH1 0x40 MLOAD PUSH2 0x15E SWAP2 SWAP1 PUSH2 0x8AD JUMP JUMPDEST PUSH1 0x40 MLOAD DUP1 SWAP2 SUB SWAP1 RETURN JUMPDEST PUSH2 0x181 PUSH1 0x4 DUP1 CALLDATASIZE SUB DUP2 ADD SWAP1 PUSH2 0x17C SWAP2 SWAP1 PUSH2 0x740 JUMP JUMPDEST PUSH2 0x2CE JUMP JUMPDEST PUSH1 0x40 MLOAD PUSH2 0x190 SWAP4 SWAP3 SWAP2 SWAP1 PUSH2 0x839 JUMP JUMPDEST PUSH1 0x40 MLOAD DUP1 SWAP2 SUB SWAP1 RETURN JUMPDEST PUSH2 0x1A1 PUSH2 0x312 JUMP JUMPDEST PUSH1 0x40 MLOAD PUSH2 0x1AE SWAP2 SWAP1 PUSH2 0x892 JUMP JUMPDEST PUSH1 0x40 MLOAD DUP1 SWAP2 SUB SWAP1 RETURN JUMPDEST PUSH2 0x1BF PUSH2 0x318 JUMP JUMPDEST PUSH1 0x40 MLOAD PUSH2 0x1CC SWAP2 SWAP1 PUSH2 0x81E JUMP JUMPDEST PUSH1 0x40 MLOAD DUP1 SWAP2 SUB SWAP1 RETURN JUMPDEST PUSH2 0x1DD PUSH2 0x33E JUMP JUMPDEST PUSH1 0x40 MLOAD PUSH2 0x1EC SWAP4 SWAP3 SWAP2 SWAP1 PUSH2 0x839 JUMP JUMPDEST PUSH1 0x40 MLOAD DUP1 SWAP2 SUB SWAP1 RETURN JUMPDEST PUSH2 0x1FD PUSH2 0x370 JUMP JUMPDEST STOP JUMPDEST PUSH2 0x207 PUSH2 0x41B JUMP JUMPDEST PUSH1 0x40 MLOAD PUSH2 0x214 SWAP2 SWAP1 PUSH2 0x81E JUMP JUMPDEST PUSH1 0x40 MLOAD DUP1 SWAP2 SUB SWAP1 RETURN JUMPDEST PUSH2 0x237 PUSH1 0x4 DUP1 CALLDATASIZE SUB DUP2 ADD SWAP1 PUSH2 0x232 SWAP2 SWAP1 PUSH2 0x76D JUMP JUMPDEST PUSH2 0x441 JUMP JUMPDEST PUSH1 0x40 MLOAD PUSH2 0x244 SWAP2 SWAP1 PUSH2 0x870 JUMP JUMPDEST PUSH1 0x40 MLOAD DUP1 SWAP2 SUB SWAP1 RETURN JUMPDEST PUSH2 0x255 PUSH2 0x4E1 JUMP JUMPDEST PUSH1 0x40 MLOAD PUSH2 0x264 SWAP4 SWAP3 SWAP2 SWAP1 PUSH2 0x839 JUMP JUMPDEST PUSH1 0x40 MLOAD DUP1 SWAP2 SUB SWAP1 RETURN JUMPDEST PUSH2 0x275 PUSH2 0x513 JUMP JUMPDEST STOP JUMPDEST PUSH2 0x291 PUSH1 0x4 DUP1 CALLDATASIZE SUB DUP2 ADD SWAP1 PUSH2 0x28C SWAP2 SWAP1 PUSH2 0x740 JUMP JUMPDEST PUSH2 0x62F JUMP JUMPDEST PUSH1 0x40 MLOAD PUSH2 0x2A0 SWAP4 SWAP3 SWAP2 SWAP1 PUSH2 0x839 JUMP JUMPDEST PUSH1 0x40 MLOAD DUP1 SWAP2 SUB SWAP1 RETURN JUMPDEST PUSH1 0xA SLOAD DUP2 JUMP JUMPDEST PUSH1 0xB SLOAD DUP2 JUMP JUMPDEST PUSH1 0x7 SLOAD DUP2 JUMP JUMPDEST PUSH1 0x10 PUSH1 0x0 SWAP1 SLOAD SWAP1 PUSH2 0x100 EXP SWAP1 DIV PUSH1 0xFF AND DUP2 JUMP JUMPDEST PUSH1 0x12 PUSH1 0x20 MSTORE DUP1 PUSH1 0x0 MSTORE PUSH1 0x40 PUSH1 0x0 KECCAK256 PUSH1 0x0 SWAP2 POP SWAP1 POP DUP1 PUSH1 0x0 ADD PUSH1 0x0 SWAP1 SLOAD SWAP1 PUSH2 0x100 EXP SWAP1 DIV PUSH1 0xFF AND SWAP1 DUP1 PUSH1 0x0 ADD PUSH1 0x1 SWAP1 SLOAD SWAP1 PUSH2 0x100 EXP SWAP1 DIV PUSH1 0xFF AND SWAP1 DUP1 PUSH1 0x1 ADD SLOAD SWAP1 POP DUP4 JUMP JUMPDEST PUSH1 0x6 SLOAD DUP2 JUMP JUMPDEST PUSH1 0x5 PUSH1 0x0 SWAP1 SLOAD SWAP1 PUSH2 0x100 EXP SWAP1 DIV PUSH20 0xFFFFFFFFFFFFFFFFFFFFFFFFFFFFFFFFFFFFFFFF AND DUP2 JUMP JUMPDEST PUSH1 0xE DUP1 PUSH1 0x0 ADD PUSH1 0x0 SWAP1 SLOAD SWAP1 PUSH2 0x100 EXP SWAP1 DIV PUSH1 0xFF AND SWAP1 DUP1 PUSH1 0x0 ADD PUSH1 0x1 SWAP1 SLOAD SWAP1 PUSH2 0x100 EXP SWAP1 DIV PUSH1 0xFF AND SWAP1 DUP1 PUSH1 0x1 ADD SLOAD SWAP1 POP DUP4 JUMP JUMPDEST PUSH1 0xC PUSH1 0x12 PUSH1 0x0 CALLER PUSH20 0xFFFFFFFFFFFFFFFFFFFFFFFFFFFFFFFFFFFFFFFF AND PUSH20 0xFFFFFFFFFFFFFFFFFFFFFFFFFFFFFFFFFFFFFFFF AND DUP2 MSTORE PUSH1 0x20 ADD SWAP1 DUP2 MSTORE PUSH1 0x20 ADD PUSH1 0x0 KECCAK256 PUSH1 0x0 DUP3 ADD PUSH1 0x0 SWAP1 SLOAD SWAP1 PUSH2 0x100 EXP SWAP1 DIV PUSH1 0xFF AND DUP2 PUSH1 0x0 ADD PUSH1 0x0 PUSH2 0x100 EXP DUP2 SLOAD DUP2 PUSH1 0xFF MUL NOT AND SWAP1 DUP4 ISZERO ISZERO MUL OR SWAP1 SSTORE POP PUSH1 0x0 DUP3 ADD PUSH1 0x1 SWAP1 SLOAD SWAP1 PUSH2 0x100 EXP SWAP1 DIV PUSH1 0xFF AND DUP2 PUSH1 0x0 ADD PUSH1 0x1 PUSH2 0x100 EXP DUP2 SLOAD DUP2 PUSH1 0xFF MUL NOT AND SWAP1 DUP4 PUSH1 0xFF AND MUL OR SWAP1 SSTORE POP PUSH1 0x1 DUP3 ADD SLOAD DUP2 PUSH1 0x1 ADD SSTORE SWAP1 POP POP JUMP JUMPDEST PUSH1 0x4 PUSH1 0x5 SWAP1 SLOAD SWAP1 PUSH2 0x100 EXP SWAP1 DIV PUSH20 0xFFFFFFFFFFFFFFFFFFFFFFFFFFFFFFFFFFFFFFFF AND DUP2 JUMP JUMPDEST PUSH1 0x11 PUSH1 0x20 MSTORE DUP1 PUSH1 0x0 MSTORE PUSH1 0x40 PUSH1 0x0 KECCAK256 PUSH1 0x0 SWAP2 POP SWAP1 POP DUP1 SLOAD PUSH2 0x460 SWAP1 PUSH2 0x980 JUMP JUMPDEST DUP1 PUSH1 0x1F ADD PUSH1 0x20 DUP1 SWAP2 DIV MUL PUSH1 0x20 ADD PUSH1 0x40 MLOAD SWAP1 DUP2 ADD PUSH1 0x40 MSTORE DUP1 SWAP3 SWAP2 SWAP1 DUP2 DUP2 MSTORE PUSH1 0x20 ADD DUP3 DUP1 SLOAD PUSH2 0x48C SWAP1 PUSH2 0x980 JUMP JUMPDEST DUP1 ISZERO PUSH2 0x4D9 JUMPI DUP1 PUSH1 0x1F LT PUSH2 0x4AE JUMPI PUSH2 0x100 DUP1 DUP4 SLOAD DIV MUL DUP4 MSTORE SWAP2 PUSH1 0x20 ADD SWAP2 PUSH2 0x4D9 JUMP JUMPDEST DUP3 ADD SWAP2 SWAP1 PUSH1 0x0 MSTORE PUSH1 0x20 PUSH1 0x0 KECCAK256 SWAP1 JUMPDEST DUP2 SLOAD DUP2 MSTORE SWAP1 PUSH1 0x1 ADD SWAP1 PUSH1 0x20 ADD DUP1 DUP4 GT PUSH2 0x4BC JUMPI DUP3 SWAP1 SUB PUSH1 0x1F AND DUP3 ADD SWAP2 JUMPDEST POP POP POP POP POP DUP2 JUMP JUMPDEST PUSH1 0xC DUP1 PUSH1 0x0 ADD PUSH1 0x0 SWAP1 SLOAD SWAP1 PUSH2 0x100 EXP SWAP1 DIV PUSH1 0xFF AND SWAP1 DUP1 PUSH1 0x0 ADD PUSH1 0x1 SWAP1 SLOAD SWAP1 PUSH2 0x100 EXP SWAP1 DIV PUSH1 0xFF AND SWAP1 DUP1 PUSH1 0x1 ADD SLOAD SWAP1 POP DUP4 JUMP JUMPDEST PUSH1 0x40 MLOAD DUP1 PUSH1 0x40 ADD PUSH1 0x40 MSTORE DUP1 PUSH1 0x5 DUP2 MSTORE PUSH1 0x20 ADD PUSH32 0x6672657361000000000000000000000000000000000000000000000000000000 DUP2 MSTORE POP PUSH1 0x11 PUSH1 0x0 PUSH1 0x1 DUP2 MSTORE PUSH1 0x20 ADD SWAP1 DUP2 MSTORE PUSH1 0x20 ADD PUSH1 0x0 KECCAK256 SWAP1 DUP1 MLOAD SWAP1 PUSH1 0x20 ADD SWAP1 PUSH2 0x570 SWAP3 SWAP2 SWAP1 PUSH2 0x673 JUMP JUMPDEST POP PUSH1 0x40 MLOAD DUP1 PUSH1 0x40 ADD PUSH1 0x40 MSTORE DUP1 PUSH1 0x7 DUP2 MSTORE PUSH1 0x20 ADD PUSH32 0x6D616E7A616E6100000000000000000000000000000000000000000000000000 DUP2 MSTORE POP PUSH1 0x11 PUSH1 0x0 PUSH1 0x5 DUP2 MSTORE PUSH1 0x20 ADD SWAP1 DUP2 MSTORE PUSH1 0x20 ADD PUSH1 0x0 KECCAK256 SWAP1 DUP1 MLOAD SWAP1 PUSH1 0x20 ADD SWAP1 PUSH2 0x5CE SWAP3 SWAP2 SWAP1 PUSH2 0x673 JUMP JUMPDEST POP PUSH1 0x40 MLOAD DUP1 PUSH1 0x40 ADD PUSH1 0x40 MSTORE DUP1 PUSH1 0x5 DUP2 MSTORE PUSH1 0x20 ADD PUSH32 0x6D656C6F6E000000000000000000000000000000000000000000000000000000 DUP2 MSTORE POP PUSH1 0x11 PUSH1 0x0 PUSH1 0x4 DUP2 MSTORE PUSH1 0x20 ADD SWAP1 DUP2 MSTORE PUSH1 0x20 ADD PUSH1 0x0 KECCAK256 SWAP1 DUP1 MLOAD SWAP1 PUSH1 0x20 ADD SWAP1 PUSH2 0x62C SWAP3 SWAP2 SWAP1 PUSH2 0x673 JUMP JUMPDEST POP JUMP JUMPDEST PUSH1 0x13 PUSH1 0x20 MSTORE DUP1 PUSH1 0x0 MSTORE PUSH1 0x40 PUSH1 0x0 KECCAK256 PUSH1 0x0 SWAP2 POP SWAP1 POP DUP1 PUSH1 0x0 ADD PUSH1 0x0 SWAP1 SLOAD SWAP1 PUSH2 0x100 EXP SWAP1 DIV PUSH1 0xFF AND SWAP1 DUP1 PUSH1 0x0 ADD PUSH1 0x1 SWAP1 SLOAD SWAP1 PUSH2 0x100 EXP SWAP1 DIV PUSH1 0xFF AND SWAP1 DUP1 PUSH1 0x1 ADD SLOAD SWAP1 POP DUP4 JUMP JUMPDEST DUP3 DUP1 SLOAD PUSH2 0x67F SWAP1 PUSH2 0x980 JUMP JUMPDEST SWAP1 PUSH1 0x0 MSTORE PUSH1 0x20 PUSH1 0x0 KECCAK256 SWAP1 PUSH1 0x1F ADD PUSH1 0x20 SWAP1 DIV DUP2 ADD SWAP3 DUP3 PUSH2 0x6A1 JUMPI PUSH1 0x0 DUP6 SSTORE PUSH2 0x6E8 JUMP JUMPDEST DUP3 PUSH1 0x1F LT PUSH2 0x6BA JUMPI DUP1 MLOAD PUSH1 0xFF NOT AND DUP4 DUP1 ADD OR DUP6 SSTORE PUSH2 0x6E8 JUMP JUMPDEST DUP3 DUP1 ADD PUSH1 0x1 ADD DUP6 SSTORE DUP3 ISZERO PUSH2 0x6E8 JUMPI SWAP2 DUP3 ADD JUMPDEST DUP3 DUP2 GT ISZERO PUSH2 0x6E7 JUMPI DUP3 MLOAD DUP3 SSTORE SWAP2 PUSH1 0x20 ADD SWAP2 SWAP1 PUSH1 0x1 ADD SWAP1 PUSH2 0x6CC JUMP JUMPDEST JUMPDEST POP SWAP1 POP PUSH2 0x6F5 SWAP2 SWAP1 PUSH2 0x6F9 JUMP JUMPDEST POP SWAP1 JUMP JUMPDEST JUMPDEST DUP1 DUP3 GT ISZERO PUSH2 0x712 JUMPI PUSH1 0x0 DUP2 PUSH1 0x0 SWAP1 SSTORE POP PUSH1 0x1 ADD PUSH2 0x6FA JUMP JUMPDEST POP SWAP1 JUMP JUMPDEST PUSH1 0x0 DUP2 CALLDATALOAD SWAP1 POP PUSH2 0x725 DUP2 PUSH2 0x9F7 JUMP JUMPDEST SWAP3 SWAP2 POP POP JUMP JUMPDEST PUSH1 0x0 DUP2 CALLDATALOAD SWAP1 POP PUSH2 0x73A DUP2 PUSH2 0xA0E JUMP JUMPDEST SWAP3 SWAP2 POP POP JUMP JUMPDEST PUSH1 0x0 PUSH1 0x20 DUP3 DUP5 SUB SLT ISZERO PUSH2 0x756 JUMPI PUSH2 0x755 PUSH2 0x9E1 JUMP JUMPDEST JUMPDEST PUSH1 0x0 PUSH2 0x764 DUP5 DUP3 DUP6 ADD PUSH2 0x716 JUMP JUMPDEST SWAP2 POP POP SWAP3 SWAP2 POP POP JUMP JUMPDEST PUSH1 0x0 PUSH1 0x20 DUP3 DUP5 SUB SLT ISZERO PUSH2 0x783 JUMPI PUSH2 0x782 PUSH2 0x9E1 JUMP JUMPDEST JUMPDEST PUSH1 0x0 PUSH2 0x791 DUP5 DUP3 DUP6 ADD PUSH2 0x72B JUMP JUMPDEST SWAP2 POP POP SWAP3 SWAP2 POP POP JUMP JUMPDEST PUSH2 0x7A3 DUP2 PUSH2 0x8E4 JUMP JUMPDEST DUP3 MSTORE POP POP JUMP JUMPDEST PUSH2 0x7B2 DUP2 PUSH2 0x8F6 JUMP JUMPDEST DUP3 MSTORE POP POP JUMP JUMPDEST PUSH2 0x7C1 DUP2 PUSH2 0x902 JUMP JUMPDEST DUP3 MSTORE POP POP JUMP JUMPDEST PUSH1 0x0 PUSH2 0x7D2 DUP3 PUSH2 0x8C8 JUMP JUMPDEST PUSH2 0x7DC DUP2 DUP6 PUSH2 0x8D3 JUMP JUMPDEST SWAP4 POP PUSH2 0x7EC DUP2 DUP6 PUSH1 0x20 DUP7 ADD PUSH2 0x94D JUMP JUMPDEST PUSH2 0x7F5 DUP2 PUSH2 0x9E6 JUMP JUMPDEST DUP5 ADD SWAP2 POP POP SWAP3 SWAP2 POP POP JUMP JUMPDEST PUSH2 0x809 DUP2 PUSH2 0x936 JUMP JUMPDEST DUP3 MSTORE POP POP JUMP JUMPDEST PUSH2 0x818 DUP2 PUSH2 0x940 JUMP JUMPDEST DUP3 MSTORE POP POP JUMP JUMPDEST PUSH1 0x0 PUSH1 0x20 DUP3 ADD SWAP1 POP PUSH2 0x833 PUSH1 0x0 DUP4 ADD DUP5 PUSH2 0x79A JUMP JUMPDEST SWAP3 SWAP2 POP POP JUMP JUMPDEST PUSH1 0x0 PUSH1 0x60 DUP3 ADD SWAP1 POP PUSH2 0x84E PUSH1 0x0 DUP4 ADD DUP7 PUSH2 0x7A9 JUMP JUMPDEST PUSH2 0x85B PUSH1 0x20 DUP4 ADD DUP6 PUSH2 0x80F JUMP JUMPDEST PUSH2 0x868 PUSH1 0x40 DUP4 ADD DUP5 PUSH2 0x7B8 JUMP JUMPDEST SWAP5 SWAP4 POP POP POP POP JUMP JUMPDEST PUSH1 0x0 PUSH1 0x20 DUP3 ADD SWAP1 POP DUP2 DUP2 SUB PUSH1 0x0 DUP4 ADD MSTORE PUSH2 0x88A DUP2 DUP5 PUSH2 0x7C7 JUMP JUMPDEST SWAP1 POP SWAP3 SWAP2 POP POP JUMP JUMPDEST PUSH1 0x0 PUSH1 0x20 DUP3 ADD SWAP1 POP PUSH2 0x8A7 PUSH1 0x0 DUP4 ADD DUP5 PUSH2 0x800 JUMP JUMPDEST SWAP3 SWAP2 POP POP JUMP JUMPDEST PUSH1 0x0 PUSH1 0x20 DUP3 ADD SWAP1 POP PUSH2 0x8C2 PUSH1 0x0 DUP4 ADD DUP5 PUSH2 0x80F JUMP JUMPDEST SWAP3 SWAP2 POP POP JUMP JUMPDEST PUSH1 0x0 DUP2 MLOAD SWAP1 POP SWAP2 SWAP1 POP JUMP JUMPDEST PUSH1 0x0 DUP3 DUP3 MSTORE PUSH1 0x20 DUP3 ADD SWAP1 POP SWAP3 SWAP2 POP POP JUMP JUMPDEST PUSH1 0x0 PUSH2 0x8EF DUP3 PUSH2 0x916 JUMP JUMPDEST SWAP1 POP SWAP2 SWAP1 POP JUMP JUMPDEST PUSH1 0x0 DUP2 ISZERO ISZERO SWAP1 POP SWAP2 SWAP1 POP JUMP JUMPDEST PUSH1 0x0 DUP2 SWAP1 POP SWAP2 SWAP1 POP JUMP JUMPDEST PUSH1 0x0 DUP2 SWAP1 POP SWAP2 SWAP1 POP JUMP JUMPDEST PUSH1 0x0 PUSH20 0xFFFFFFFFFFFFFFFFFFFFFFFFFFFFFFFFFFFFFFFF DUP3 AND SWAP1 POP SWAP2 SWAP1 POP JUMP JUMPDEST PUSH1 0x0 DUP2 SWAP1 POP SWAP2 SWAP1 POP JUMP JUMPDEST PUSH1 0x0 PUSH1 0xFF DUP3 AND SWAP1 POP SWAP2 SWAP1 POP JUMP JUMPDEST PUSH1 0x0 JUMPDEST DUP4 DUP2 LT ISZERO PUSH2 0x96B JUMPI DUP1 DUP3 ADD MLOAD DUP2 DUP5 ADD MSTORE PUSH1 0x20 DUP2 ADD SWAP1 POP PUSH2 0x950 JUMP JUMPDEST DUP4 DUP2 GT ISZERO PUSH2 0x97A JUMPI PUSH1 0x0 DUP5 DUP5 ADD MSTORE JUMPDEST POP POP POP POP JUMP JUMPDEST PUSH1 0x0 PUSH1 0x2 DUP3 DIV SWAP1 POP PUSH1 0x1 DUP3 AND DUP1 PUSH2 0x998 JUMPI PUSH1 0x7F DUP3 AND SWAP2 POP JUMPDEST PUSH1 0x20 DUP3 LT DUP2 EQ ISZERO PUSH2 0x9AC JUMPI PUSH2 0x9AB PUSH2 0x9B2 JUMP JUMPDEST JUMPDEST POP SWAP2 SWAP1 POP JUMP JUMPDEST PUSH32 0x4E487B7100000000000000000000000000000000000000000000000000000000 PUSH1 0x0 MSTORE PUSH1 0x22 PUSH1 0x4 MSTORE PUSH1 0x24 PUSH1 0x0 REVERT JUMPDEST PUSH1 0x0 DUP1 REVERT JUMPDEST PUSH1 0x0 PUSH1 0x1F NOT PUSH1 0x1F DUP4 ADD AND SWAP1 POP SWAP2 SWAP1 POP JUMP JUMPDEST PUSH2 0xA00 DUP2 PUSH2 0x8E4 JUMP JUMPDEST DUP2 EQ PUSH2 0xA0B JUMPI PUSH1 0x0 DUP1 REVERT JUMPDEST POP JUMP JUMPDEST PUSH2 0xA17 DUP2 PUSH2 0x90C JUMP JUMPDEST DUP2 EQ PUSH2 0xA22 JUMPI PUSH1 0x0 DUP1 REVERT JUMPDEST POP JUMP INVALID LOG2 PUSH5 0x6970667358 0x22 SLT KECCAK256 0xBC 0xD8 0xC6 0xC3 0xDD 0xC0 PUSH6 0xEAF0DF4C6779 0xD3 BASEFEE 0xF9 0xE3 0xF8 0xE DUP15 0xB4 ISZERO ADDMOD 0xD EXTCODEHASH 0xB3 REVERT INVALID PUSH2 0x4AD EQ PUSH5 0x736F6C6343 STOP ADDMOD SMOD STOP CALLER "
				},
				"gasEstimates": {
					"creation": {
						"codeDepositCost": "530200",
						"executionCost": "580195",
						"totalCost": "1110395"
					},
					"external": {
						"addFruta()": "infinite",
						"addPersonas()": "77439",
						"addressAccount()": "2631",
						"addressExternally()": "2603",
						"balanceAddressAccount()": "2496",
						"balanceAddressExternally()": "2497",
						"diccPersonas(address)": "7431",
						"getEdad()": "2494",
						"lenghtData1()": "2453",
						"lenghtData2()": "2475",
						"mappingFrutas(int256)": "infinite",
						"mappingPersona(address)": "7474",
						"p1()": "7045",
						"p2()": "7024"
					}
				},
				"methodIdentifiers": {
					"addFruta()": "d97ec9c0",
					"addPersonas()": "92ed4873",
					"addressAccount()": "b704ed74",
					"addressExternally()": "6c30c1c7",
					"balanceAddressAccount()": "648b6450",
					"balanceAddressExternally()": "4de1a1b8",
					"diccPersonas(address)": "645c71f0",
					"getEdad()": "5cfd4af5",
					"lenghtData1()": "1bc66815",
					"lenghtData2()": "379937a0",
					"mappingFrutas(int256)": "bae878ea",
					"mappingPersona(address)": "ec4ca3c0",
					"p1()": "c2a2747b",
					"p2()": "81d01ed3"
				}
			},
			"storageLayout": {
				"storage": [
					{
						"astId": 4,
						"contract": "dataTypesValor.sol:dataTypeValor",
						"label": "flagVerdadero",
						"offset": 0,
						"slot": "0",
						"type": "t_bool"
					},
					{
						"astId": 7,
						"contract": "dataTypesValor.sol:dataTypeValor",
						"label": "flagFalse",
						"offset": 1,
						"slot": "0",
						"type": "t_bool"
					},
					{
						"astId": 11,
						"contract": "dataTypesValor.sol:dataTypeValor",
						"label": "number1",
						"offset": 0,
						"slot": "1",
						"type": "t_int256"
					},
					{
						"astId": 15,
						"contract": "dataTypesValor.sol:dataTypeValor",
						"label": "number2",
						"offset": 0,
						"slot": "2",
						"type": "t_int8"
					},
					{
						"astId": 19,
						"contract": "dataTypesValor.sol:dataTypeValor",
						"label": "number3",
						"offset": 1,
						"slot": "2",
						"type": "t_int16"
					},
					{
						"astId": 22,
						"contract": "dataTypesValor.sol:dataTypeValor",
						"label": "number4",
						"offset": 0,
						"slot": "3",
						"type": "t_uint256"
					},
					{
						"astId": 25,
						"contract": "dataTypesValor.sol:dataTypeValor",
						"label": "number5",
						"offset": 0,
						"slot": "4",
						"type": "t_uint8"
					},
					{
						"astId": 28,
						"contract": "dataTypesValor.sol:dataTypeValor",
						"label": "number6",
						"offset": 1,
						"slot": "4",
						"type": "t_uint32"
					},
					{
						"astId": 34,
						"contract": "dataTypesValor.sol:dataTypeValor",
						"label": "addressAccount",
						"offset": 5,
						"slot": "4",
						"type": "t_address"
					},
					{
						"astId": 38,
						"contract": "dataTypesValor.sol:dataTypeValor",
						"label": "addressExternally",
						"offset": 0,
						"slot": "5",
						"type": "t_address"
					},
					{
						"astId": 42,
						"contract": "dataTypesValor.sol:dataTypeValor",
						"label": "balanceAddressAccount",
						"offset": 0,
						"slot": "6",
						"type": "t_uint256"
					},
					{
						"astId": 46,
						"contract": "dataTypesValor.sol:dataTypeValor",
						"label": "balanceAddressExternally",
						"offset": 0,
						"slot": "7",
						"type": "t_uint256"
					},
					{
						"astId": 49,
						"contract": "dataTypesValor.sol:dataTypeValor",
						"label": "data",
						"offset": 0,
						"slot": "8",
						"type": "t_bytes1"
					},
					{
						"astId": 52,
						"contract": "dataTypesValor.sol:dataTypeValor",
						"label": "data2",
						"offset": 1,
						"slot": "8",
						"type": "t_bytes2"
					},
					{
						"astId": 55,
						"contract": "dataTypesValor.sol:dataTypeValor",
						"label": "data3",
						"offset": 0,
						"slot": "9",
						"type": "t_bytes32"
					},
					{
						"astId": 59,
						"contract": "dataTypesValor.sol:dataTypeValor",
						"label": "lenghtData1",
						"offset": 0,
						"slot": "10",
						"type": "t_uint256"
					},
					{
						"astId": 63,
						"contract": "dataTypesValor.sol:dataTypeValor",
						"label": "lenghtData2",
						"offset": 0,
						"slot": "11",
						"type": "t_uint256"
					},
					{
						"astId": 78,
						"contract": "dataTypesValor.sol:dataTypeValor",
						"label": "p1",
						"offset": 0,
						"slot": "12",
						"type": "t_struct(Persona)70_storage"
					},
					{
						"astId": 86,
						"contract": "dataTypesValor.sol:dataTypeValor",
						"label": "p2",
						"offset": 0,
						"slot": "14",
						"type": "t_struct(Persona)70_storage"
					},
					{
						"astId": 90,
						"contract": "dataTypesValor.sol:dataTypeValor",
						"label": "getEdad",
						"offset": 0,
						"slot": "16",
						"type": "t_uint8"
					},
					{
						"astId": 94,
						"contract": "dataTypesValor.sol:dataTypeValor",
						"label": "mappingFrutas",
						"offset": 0,
						"slot": "17",
						"type": "t_mapping(t_int256,t_string_storage)"
					},
					{
						"astId": 99,
						"contract": "dataTypesValor.sol:dataTypeValor",
						"label": "diccPersonas",
						"offset": 0,
						"slot": "18",
						"type": "t_mapping(t_address,t_struct(Persona)70_storage)"
					},
					{
						"astId": 137,
						"contract": "dataTypesValor.sol:dataTypeValor",
						"label": "mappingPersona",
						"offset": 0,
						"slot": "19",
						"type": "t_mapping(t_address,t_struct(Persona)70_storage)"
					}
				],
				"types": {
					"t_address": {
						"encoding": "inplace",
						"label": "address",
						"numberOfBytes": "20"
					},
					"t_bool": {
						"encoding": "inplace",
						"label": "bool",
						"numberOfBytes": "1"
					},
					"t_bytes1": {
						"encoding": "inplace",
						"label": "bytes1",
						"numberOfBytes": "1"
					},
					"t_bytes2": {
						"encoding": "inplace",
						"label": "bytes2",
						"numberOfBytes": "2"
					},
					"t_bytes32": {
						"encoding": "inplace",
						"label": "bytes32",
						"numberOfBytes": "32"
					},
					"t_int16": {
						"encoding": "inplace",
						"label": "int16",
						"numberOfBytes": "2"
					},
					"t_int256": {
						"encoding": "inplace",
						"label": "int256",
						"numberOfBytes": "32"
					},
					"t_int8": {
						"encoding": "inplace",
						"label": "int8",
						"numberOfBytes": "1"
					},
					"t_mapping(t_address,t_struct(Persona)70_storage)": {
						"encoding": "mapping",
						"key": "t_address",
						"label": "mapping(address => struct dataTypeValor.Persona)",
						"numberOfBytes": "32",
						"value": "t_struct(Persona)70_storage"
					},
					"t_mapping(t_int256,t_string_storage)": {
						"encoding": "mapping",
						"key": "t_int256",
						"label": "mapping(int256 => string)",
						"numberOfBytes": "32",
						"value": "t_string_storage"
					},
					"t_string_storage": {
						"encoding": "bytes",
						"label": "string",
						"numberOfBytes": "32"
					},
					"t_struct(Persona)70_storage": {
						"encoding": "inplace",
						"label": "struct dataTypeValor.Persona",
						"members": [
							{
								"astId": 65,
								"contract": "dataTypesValor.sol:dataTypeValor",
								"label": "vacunado",
								"offset": 0,
								"slot": "0",
								"type": "t_bool"
							},
							{
								"astId": 67,
								"contract": "dataTypesValor.sol:dataTypeValor",
								"label": "edad",
								"offset": 1,
								"slot": "0",
								"type": "t_uint8"
							},
							{
								"astId": 69,
								"contract": "dataTypesValor.sol:dataTypeValor",
								"label": "nombre",
								"offset": 0,
								"slot": "1",
								"type": "t_bytes32"
							}
						],
						"numberOfBytes": "64"
					},
					"t_uint256": {
						"encoding": "inplace",
						"label": "uint256",
						"numberOfBytes": "32"
					},
					"t_uint32": {
						"encoding": "inplace",
						"label": "uint32",
						"numberOfBytes": "4"
					},
					"t_uint8": {
						"encoding": "inplace",
						"label": "uint8",
						"numberOfBytes": "1"
					}
				}
			},
			"userdoc": {
				"kind": "user",
				"methods": {},
				"version": 1
			}
		}
	}
}